:02000004610099
:100000006F00001B00000000B20300610000000050
:10001000B2030061000000000000000000000000CA
:10002000B203006100000000B203006100000000A4
:10003000B2030061000000000000000000000000AA
:10004000B203006100000000B20300610000000084
:10005000B203006100000000B20300610000000074
:10006000B203006100000000B20300610000000064
:10007000B203006100000000B20300610000000054
:10008000B203006100000000B20300610000000044
:10009000B20300610000000000000000000000004A
:1000A0000000000000000000000000000000000050
:1000B0000000000000000000000000000000000040
:1000C0000000000000000000000000000000000030
:1000D0000000000000000000000000000000000020
:1000E0000000000000000000000000000000000010
:1000F0000000000000000000000000000000000000
:1001000000000000000000000000000000000000EF
:1001100000000000000000000000000000000000DF
:1001200000000000000000000000000000000000CF
:1001300000000000000000000000000000000000BF
:1001400000000000000000000000000000000000AF
:10015000000000000000000000000000000000009F
:10016000000000000000000000000000000000008F
:10017000000000000000000000000000000000007F
:10018000000000000000000000000000000000006F
:10019000000000000000000000000000000000005F
:1001A000000000000000000000000000000000004F
:1001B00073700430970101009381C16F1701020031
:1001C000130141E49302002073A0027D9702000016
:1001D000938242E3739072309702000093828216FA
:1001E0007390C27E73E0C07E970200009382820DFE
:1001F000739052309302F00373B0523073E0513079
:10020000996273A002307310300073F00232170548
:1002100000001305E5099705000093856509630053
:10022000B502174600001306267F63FAC500832235
:10023000050023A0550011059105E3EAC5FE174509
:1002400000001305657D970501009385A5DB170662
:100250000100130626E863FAC5008322050023A0E7
:10026000550011059105E3EAC5FE170501001305C8
:1002700065E69385019C6377B50023200500110591
:10028000E36DB5FEEF105077173500001305E5C993
:10029000EF20D048EF20904CEF20C01D0145814554
:0A02A000EF204060EF20A02001A035
:1002C000357106E012E416E81AEC1EF02AF42EF856
:1002D00032FCB6E0BAE4BEE8C2F8C6FC72E176E5EC
:1002E0007AE97EED73D0E57E7350F67E73D0B67EEC
:1002F000732520348A85EF10F07CA6727390427CBF
:10030000867273901234E6627390223482602262A5
:10031000C262626382732275C275627686662667E0
:10032000C6674678E6780A6EAA6E4A6FEA6F0D6174
:1003300073002030000000000000000000000000FA
:10034000357106E012E416E81AEC1EF02AF42EF8D5
:1003500032FCB6E0BAE4BEE8C2F8C6FC72E176E56B
:100360007AE97EED73D0E57E7350F67E73D0B67E6B
:10037000F390D07E73700430A6727390427C8672C4
:1003800073901234E6627390223482602262C262F9
:10039000626382732275C275627686662667C66757
:1003A0004678E6780A6EAA6E4A6FEA6F0D617300AE
:1003B000203001A00000011122EC00102334A4FE23
:1003C000833784FE83A7870D812793E717001B8758
:1003D0000700833784FE23ACE70C010062640561EB
:1003E0008280797122F40018233CA4FC85472326DF
:1003F000F4FE833784FD83A7870D8127F99B1B8734
:100400000700833784FD23ACE70C8327C4FE3E85B9
:10041000227445618280797122F40018233CA4FC87
:10042000AE87232AF4FC85472326F4FE8327C4FEE7
:100430001B8707008547631BF714832744FD23248C
:10044000F4FE832784FE1B8707009D4763E2E712C3
:10045000836784FE13972700974700009387070957
:10046000BA979C431B8707009747000093870708AC
:10047000BA978287833784FD83A7070E812793E786
:1004800017101B870700833784FD23A0E70E01A206
:10049000833784FD83A7070E812793E727201B87D7
:1004A0000700833784FD23A0E70ED5A0833784FDA2
:1004B00083A7070E812793E747401B8707008337F1
:1004C00084FD23A0E70EE1A0833784FD83A7070EF8
:1004D00081273E87856793878780D98F1B87070091
:1004E000833784FD23A0E70E5DA0833784FD83A7B7
:1004F000070E81273E878567C107D98F1B870700B5
:10050000833784FD23A0E70E59A0833784FD83A79A
:10051000070E81273E87896793870702D98F1B873C
:100520000700833784FD23A0E70E95A0833784FD61
:1005300083A7070E81273E87916793870704D98F8A
:100540001B870700833784FD23A0E70E89A083372C
:1005500084FD83A7070E81273E87A167938707083D
:10056000D98F1B870700833784FD23A0E70E05A0E2
:10057000833784FD83A7070E812793E717101B8716
:100580000700833784FD23A0E70E11A00100832715
:10059000C4FE3E85227445618280797122F4001880
:1005A000233CA4FCAE87232AF4FC231704FE8337E4
:1005B00084FD83A7070E81272317F4FE833784FD6C
:1005C00083A7070E81273E87C177F98F1B87070016
:1005D000833784FD23A0E70E8357E4FE81273E8501
:1005E000227445618280797122F40018233CA4FCB6
:1005F000AE873287232AF4FCBA872328F4FC854788
:100600002326F4FE832744FD812781CB832744FDE5
:100610001B87070089476317F700833784FD03278B
:1006200004FD98C3832744FD1B87070085476309A2
:10063000F700832744FD1B87070089476317F700EE
:10064000833784FD032704FD98C78327C4FE3E85B6
:10065000227445618280011122EC00102334A4FE33
:10066000833784FE984F1367170098CF833784FE33
:10067000984F459B98CF833784FE984F1377F7F8B0
:1006800098CF833784FE944F370700F07D17758F1E
:1006900098CF833784FE944F370700F87D17758F06
:1006A00098CF833784FE984F1377F7E798CF833737
:1006B00084FE984F1377F79F98CF833784FE944F2B
:1006C00071771307F77F758F98CF833784FE944F28
:1006D00011777D17758F98CF833784FE944F0177FC
:1006E0007D17758F98CF833784FE944F3707FCFFB3
:1006F0007D17758F98CF833784FE944F370790FF0F
:100700007D17758F98CF833784FE944F370780FE0F
:100710007D17758F98CF833784FE944F370700FA83
:100720007D17758F98CF833784FED44F7D77758F73
:1007300013675700D8CF833784FED44F0567558F92
:10074000D8CF833784FEB8431377F7F1B8C3833724
:1007500084FEB8431377F7EFB8C3833784FEB843FA
:100760001377F7BFB8C3833784FEB4437D7713078D
:10077000F77F758FB8C3833784FEB4433707FCFF18
:100780007D17758FB8C3833784FEB4433707F8FFEE
:100790007D17758FB8C3833784FEB443370700C015
:1007A0007D17758FB8C3833784FEB4433707008045
:1007B0001347F7FF758FB8C3833784FEF843799BDF
:1007C000F8C3833784FEF843759BF8C3833784FEF0
:1007D000F8431377F7FDF8C3833784FEF8431377A4
:1007E000F7FBF8C3833784FEF8431377F787136763
:1007F0000720F8C3833784FEF44361771307F77F3C
:10080000758FBA860967558FF8C3833784FE37071B
:10081000036198C3833784FE3707036113070750CA
:1008200098C781473E85626405618280797106F4CC
:1008300022F00018233CA4FCAE87232AF4FC854751
:100840002326F4FE8327C4FE1B8707008547631B0E
:10085000F716832744FD1B870700A54763E9E718C0
:10086000836744FD1397270097470000938707CAC3
:10087000BA979C431B87070097470000938707C9D7
:10088000BA9782878327C4FE1B8707008547631DAD
:10089000F7128945033584FDEF00701A35A28327CE
:1008A000C4FE1B87070085476312F7128145033595
:1008B00084FDEF00D0188545033584FDEF00500D11
:1008C00031A28327C4FE1B87070085476312F710F8
:1008D0008545033584FDEF0090168145033584FD81
:1008E000EF00100BF5A08327C4FE1B870700854788
:1008F0006312F70E8945033584FDEF007009D9A80E
:100900008327C4FE1B87070085476317F70C8945BB
:10091000033584FDEF00B012C1A08327C4FE1B87FE
:1009200007008547631CF70A8145033584FDEF0006
:1009300030018545033584FDEF00501B45A083271A
:10094000C4FE1B8707008547631CF70881450335F4
:1009500084FDEF00F0038545033584FDEF00101999
:1009600041A08327C4FE1B8707008547631CF70649
:100970008545033584FDEF00A07C8145033584FD6A
:10098000EF00D01685A08327C4FE1B87070085478C
:10099000631CF7048545033584FDEF00607F8145C6
:1009A000033584FDEF00901481A08327C4FE1B87CC
:1009B00007008547631CF7028945033584FDEF0076
:1009C000F0122DA0010025A0010015A0010005A036
:1009D000010031A8010021A8010011A8010001A80F
:1009E000010031A0010021A0010011A00100832716
:1009F000C4FE3E85A270027445618280797122F442
:100A00000018233CA4FCAE87232AF4FC8547232648
:100A1000F4FE833784FD9C4F9BD747019D8B93F752
:100A2000F70F1B870700832744FD8127638CE708A6
:100A3000832744FD1B8707008947630BF70483273F
:100A400044FD1B870700894763E1E706832744FDD0
:100A5000812789CB832744FD1B8707008547630CCB
:100A6000F700A1A0833784FD944F370790FF7D17CF
:100A7000758F98CF89A8833784FD944F370790FFEF
:100A80007D17758FBA8637071000558F98CF25A828
:100A9000833784FD944F370790FF7D17758FBA8693
:100AA00037072000558F98CF39A8833784FD944F9E
:100AB000370790FF7D17758FBA8637073000558F3F
:100AC00098CF11A001008327C4FE3E8522744561A2
:100AD0008280797122F40018233CA4FCAE8732870F
:100AE000232AF4FCBA872328F4FC85472326F4FE46
:100AF0008327C4FE1B87070085476314F71E232442
:100B000004FE832744FD812781CB832744FD1B8777
:100B1000070089476310F70E833784FD9C4F9BD7EE
:100B200047009D8B93F7F70F1B870700832704FD72
:100B300081276381E70C832704FD1B87070091470A
:100B400063EEE708836704FD1397270097470000CB
:100B50009387479EBA979C431B87070097470000DF
:100B60009387479DBA978287833784FD984F137781
:100B7000F7F898CF85472324F4FEB5A8833784FD82
:100B8000984F1377F7F81367070198CF8547232409
:100B9000F4FE95A0833784FD984F1377F7F8136719
:100BA000070298CF85472324F4FEB1A0833784FD44
:100BB000984F1377F7F81367070398CF85472324D7
:100BC000F4FE15A8833784FD984F1377F7F8136761
:100BD000070498CF85472324F4FE31A8833784FD8A
:100BE000984F1377F7F81367070598CF85472324A5
:100BF000F4FE11A00100832744FD1B8707008547F1
:100C00006309F700832744FD1B8707008947631AA0
:100C1000F70C833784FD9C4F9BD717009D8B93F770
:100C2000F70F1B870700832704FD8127638BE70AE3
:100C3000832704FD1B870700914763E9E708836763
:100C400004FD13972700974700009387E78FBA9713
:100C50009C431B870700974700009387E78EBA974E
:100C60008287833784FD984F459B98CF85472324FF
:100C7000F4FE8DA8833784FD984F459B13672700AA
:100C800098CF85472324F4FEB1A8833784FD984F7D
:100C9000459B1367470098CF85472324F4FE99A00E
:100CA000833784FD984F459B1367670098CF85472E
:100CB0002324F4FE05A8833784FD984F459B1367D2
:100CC000870098CF85472324F4FE29A8833784FD25
:100CD000984F459B1367A70098CF85472324F4FEC0
:100CE00011A001008327C4FE3E85227445618280E5
:100CF000797122F40018233CA4FCAE87231BF4FC7A
:100D000085472326F4FE833784FDDC4F3E878567C5
:100D1000FD17F98FC217C1931B870700835764FD26
:100D200081276308F702035764FD8567FD17F98F74
:100D3000139707034193833784FDBA8605677D17B0
:100D400033F6E600D44F7D77758FBA863287558F9C
:100D5000D8CF8327C4FE3E85227445618280797195
:100D600022F40018233CA4FCAE873287232AF4FC2B
:100D7000BA872328F4FC85472326F4FE8327C4FE84
:100D80001B87070085476314F724232404FE832769
:100D900044FD812781CB832744FD1B8707008947BA
:100DA000631EF70E833784FD9C4F9BD7E7009D8B16
:100DB00093F7F70F1B870700832704FD8127638FB5
:100DC000E70C832704FD1B870700994763EEE70ABA
:100DD000836704FD139727009737000093870778F0
:100DE000BA979C431B8707009737000093870777C4
:100DF000BA978287833784FD944F11777D17758F5B
:100E000098CF51A8833784FD944F11777D17758F44
:100E1000BA861167558F98CFBDA8833784FD944F4C
:100E200011777D17758FBA862167558F98CFA5A04A
:100E3000833784FD944F11777D17758FBA8631679C
:100E4000558F98CF89A8833784FD944F11777D17EC
:100E5000758FBA864167558F98CF35A8833784FD43
:100E6000944F11777D17758FBA865167558F98CF3C
:100E70001DA0833784FD944F11777D17758FBA8637
:100E80006167558F98CF01A8833784FD944F7167B0
:100E9000558F98CF010085472324F4FE832744FD16
:100EA0001B87070085476309F700832744FD1B87DD
:100EB00007008947631DF710833784FD9C4F9BD73C
:100EC000B7009D8B93F7F70F1B870700832704FD5F
:100ED0008127638EE70E832704FD1B870700994750
:100EE00063EBE70C836704FD139727009737000037
:100EF00093878768BA979C431B8707009737000042
:100F000093878767BA978287833784FD944F717779
:100F10001307F77F758F98CF45A8833784FD944FCB
:100F200071771307F77F758FBA86056713070780F8
:100F3000558F98CF51A8833784FD944F717713074D
:100F4000F77F758FBA860567558F98CFB5A8833719
:100F500084FD944F71771307F77F758FBA86096701
:100F600013070780558F98CF85A0833784FD944F52
:100F700071771307F77F758FBA860967558F98CFFA
:100F8000A1A0833784FD944F71771307F77F758F86
:100F9000BA860D6713070780558F98CF35A0833722
:100FA00084FD944F71771307F77F758FBA860D67AD
:100FB000558F98CF11A8833784FD944F116713077D
:100FC0000780558F98CF010085472324F4FE83279F
:100FD000C4FE3E85227445618280797122F4001836
:100FE000233CA4FCAE873287232AF4FCBA8723284B
:100FF000F4FC85472326F4FE8327C4FE1B870700E5
:1010000085476318F712232404FE832744FD8127B4
:1010100081CB832744FD1B8707008947631FF706A1
:10102000833784FD9C4F9BD797008D8B93F7F70FE9
:101030001B870700832704FD81276380E70683273A
:1010400004FD812789CB832704FD1B870700854783
:10105000630DF7003DA0833784FD984F1377F79F0A
:1010600098CF85472324F4FE15A8833784FD984F35
:101070001377F79F1367072098CF85472324F4FE43
:1010800031A8833784FD984F1377F79F1367074084
:1010900098CF85472324F4FE11A00100832744FD47
:1010A0001B87070085476309F700832744FD1B87DB
:1010B00007008947631FF706833784FD9C4F9BD742
:1010C00077008D8B93F7F70F1B870700832704FDAD
:1010D00081276380E706832704FD812789CB832747
:1010E00004FD1B8707008547630DF7003DA083378C
:1010F00084FD984F1377F7E798CF85472324F4FEB4
:1011000015A8833784FD984F1377F7E7136707080F
:1011100098CF85472324F4FE31A8833784FD984F68
:101120001377F7E71367071098CF85472324F4FE5A
:1011300011A001008327C4FE3E8522744561828090
:10114000011122EC00102334A4FEAE872322F4FE0A
:10115000832744FE812789EB833784FE944F37072A
:1011600000F07D17758F98CF832744FE1B870700FB
:101170008547631AF700833784FE944F370700F0E2
:101180007D17758F98CF01003E856264056182806E
:10119000797122F40018233CA4FCAE87232AF4FCC6
:1011A00085472326F4FE8327C4FE1B870700854757
:1011B0006311F708232404FE832744FD812781CB94
:1011C000832744FD1B87070089476314F702833791
:1011D00084FD944F370700F07D17758F98CF8337C4
:1011E00084FDB44337070040558FB8C38547232497
:1011F000F4FE832744FD1B87070085476309F7003A
:10120000832744FD1B87070089476314F702833750
:1012100084FD944F370700F07D17758F98CF833783
:1012200084FDB44337070080558FB8C38547232416
:10123000F4FE8327C4FE3E85227445618280797165
:1012400022F40018233CA4FCAE87232AF4FC854733
:101250002324F4FE832784FE1B8707008547631140
:10126000F708232604FE85A8232204FE832744FDD5
:10127000812781CB832744FD1B8707008947631D96
:10128000F700833784FDB443370700C07D17758F9F
:10129000B8C385472322F4FE832744FD1B8707003C
:1012A00085476309F700832744FD1B8707008947AB
:1012B000631EF700833784FDB4433707008013476C
:1012C000F7FF758FB8C385472322F4FE8327C4FE3A
:1012D00085272326F4FE8327C4FE8127E356F0F8F2
:1012E000832784FE3E85227445618280797122F4D1
:1012F0000018233CA4FCAE87232AF4FC8547232452
:10130000F4FE832784FE1B8707008547631EF708CA
:10131000232604FE69A0232204FE832744FD81279F
:1013200081CB832744FD1B87070089476314F7029D
:10133000833784FDB443370700C07D17758FB8C36A
:10134000833784FD944F37070010558F98CF85471A
:101350002322F4FE832744FD1B870700854763098A
:10136000F700832744FD1B87070089476314F702B2
:10137000833784FDB443370700C07D17758FB8C32A
:10138000833784FD944F37070008558F98CF8547E2
:101390002322F4FE8327C4FE85272326F4FE832719
:1013A000C4FE8127E359F0F6832784FE3E8522742C
:1013B00045618280797122F40018233CA4FCA307C4
:1013C00004FE833784FD83A7070E8127A307F4FE5D
:1013D0008347F4FE93F7F70F99E3814711A0854700
:1013E0003E85227445618280011122EC0010233475
:1013F000A4FEAE872322F4FE832744FEBD8B13F7A1
:10140000F70F833784FE3D8B1B177700F44393F669
:10141000F687558FF8C3832744FEBD8B13F7F70F6C
:10142000833784FE3D8B1B17B700F043E17693862C
:10143000F67FF18E558FF8C301003E856264056129
:101440008280397122FC8000233CA4FCAE872334C7
:10145000C4FC232AF4FC832744FD8127B9C3232637
:1014600004FE35A0033784FD93074700233CF4FCBA
:10147000833784FC938647002334D4FC184398C3F5
:101480008327C4FE8127852781272326F4FE83270F
:10149000C4FE1B870700832744FD8127E364F7FC14
:1014A00011A00100627421618280011122EC001000
:1014B0002334A4FEAE873287A303F4FEBA87230346
:1014C000F4FE834774FE1B870700833784FEB8CB86
:1014D000834764FE1B870700833784FEF8CB010037
:1014E000626405618280011122EC00102334A4FEA5
:1014F000833784FEFC47812793E727001B8707007B
:10150000833784FEF8C7010062640561828001119F
:1015100022EC00102334A4FE833784FEFC4781278D
:1015200093E717001B870700833784FEF8C7010085
:10153000626405618280797106F422F00018233418
:10154000A4FE2E85B2853686BA863E87AA872322D8
:10155000F4FEAE87A301F4FEB2872301F4FEB68742
:10156000232EF4FCBA872310F4FE033584FEEFF03B
:101570008F8E832744FE8127A9E3B7E704F81386FB
:1015800007068545033584FEEFF0EF85B145033549
:1015900084FEEFF07FE5B777027C13951700EFF03C
:1015A0009FF48545033584FEEFF04FC50946854518
:1015B000033584FEEFF07FA281A0B7E704F813861D
:1015C00007068145033584FEEFF0EF81B54503350D
:1015D00084FEEFF07FE1B777027C13951700EFF000
:1015E0001FF38945033584FEEFF04FC1094681455D
:1015F000033584FEEFF07F9E8327C4FDBE8503354F
:1016000084FEEFF0AFA209468945033584FEEFF072
:101610004FCC835704FEBE85033584FEEFF04FEDBB
:1016200001468945033584FEEFF06FF3034724FE3E
:10163000834734FE3A86BE85B777027C1395170040
:10164000EFF0BFE60100A2700274456182800111D3
:1016500022EC00102334A4FE833784FE93B71700D6
:1016600093F7F70F99C3FD5731A0833784FE23A466
:10167000070081473E85626405618280011122EC8A
:1016800000102334A4FE833784FE93B7170093F72A
:10169000F70F99C3FD5731A0833784FE054798C7DC
:1016A00081473E85626405618280011122EC001051
:1016B0002334A4FE833784FE93B7170093F7F70F04
:1016C00099C3FD5711A8833784FE9443370740FF21
:1016D0007D17758F98C381473E856264056182805E
:1016E000011122EC00102334A4FE833784FE93B74B
:1016F000170093F7F70F99C3FD5731A8833784FE7E
:101700009443370740FF7D17758FBA8637078000EF
:10171000558F98C381473E856264056182800111BF
:1017200022EC00102334A4FE833784FE93B7170005
:1017300093F7F70F99C3FD5721A8833784FE94438D
:101740007D771307F73F758F1367074098C381476D
:101750003E85626405618280011122EC0010233411
:10176000A4FE833784FE93B7170093F7F70F99C34E
:10177000FD5739A8833784FE94437D771307F73FDD
:10178000758FBA86056713070780558F98C3814701
:101790003E85626405618280011122EC00102334D1
:1017A000A4FE833784FE93B7170093F7F70F99C30E
:1017B000FD5711A8833784FE94430567130707C0BC
:1017C000558F98C381473E8562640561828001110F
:1017D00022EC00102334A4FEAE872322F4FE8337CC
:1017E00084FE93B7170093F7F70F99C3FD570DA029
:1017F000832744FEFD8B13F7F70F833784FE1376A0
:10180000F7019843019BBA863287558F98C3814769
:101810003E85626405618280011122EC0010233450
:10182000A4FEAE872322F4FE833784FE93B717000D
:1018300093F7F70F99C3FD5739A0833784FE032729
:1018400044FE98CB81473E85626405618280011128
:1018500022EC00102334A4FEAE872322F4FE83374B
:1018600084FE93B7170093F7F70F99C3FD5719A894
:10187000832744FE9B9717001B870700833784FE4E
:10188000D8CB81473E85626405618280011122ECDC
:1018900000102334A4FEAE872322F4FE833784FE97
:1018A00093B7170093F7F70F99C3FD5739A88337FC
:1018B00084FE9C4F1B870700832744FED98F1B871C
:1018C0000700833784FE98CF81473E8562640561B7
:1018D0008280011122EC00102334A4FEAE87232263
:1018E000F4FE833784FE93B7170093F7F70F99C37D
:1018F000FD57A9A0833784FE9C4F81273E87B707F9
:1019000001FFFD17F98F1B870700833784FE98CFEF
:10191000833784FE9C4F1B870700832744FE9B97D9
:1019200007018127BE86B707FF00F58F8127D98F72
:101930001B870700833784FE98CF81473E8562640A
:1019400005618280011122EC00102334A4FEAE87D1
:101950002322F4FE833784FE93B7170093F7F70F23
:1019600099C3FD5739A0833784FE032744FEB8D3BB
:1019700081473E85626405618280011122EC00107E
:101980002334A4FE833784FEBC5381273E856264E2
:1019900005618280011122EC00102334A4FE8337FC
:1019A00084FE9C578127918B812799C3854711A07D
:1019B00081473E85626405618280011122EC00103E
:1019C0002334A4FE833784FE9C578127858B81278F
:1019D00099C3854711A081473E8562640561828075
:1019E000011122EC00102334A4FEAE872322F4FE62
:1019F000833784FE032744FED8C301006264056177
:101A00008280011122EC00102334A4FEAE87232231
:101A1000F4FE832744FE8D8B13F7F70F833784FE84
:101A20001376370003A7470F719BBA863287558F0D
:101A300023AAE70E0100626405618280011122EC95
:101A400000102334A4FEAE872322F4FE832744FE35
:101A5000BD8B13F7F70F833784FE3D8B1B172700D1
:101A600083A6470F93F636FC558F23AAE70E010095
:101A7000626405618280011122EC00102334A4FE0F
:101A8000AE872322F4FE832744FE858B13F7F70FDE
:101A9000833784FE058B1B17770083A6470F93F6C9
:101AA000F6F7558F23AAE70E010062640561828074
:101AB000011122EC00102334A4FEAE872322F4FE91
:101AC000832744FE8D8B13F7F70F833784FE0D8B2E
:101AD0001B17870083A6470F93F6F6CF558F23AACF
:101AE000E70E0100626405618280011122EC0010A2
:101AF0002334A4FEAE872322F4FE832744FEFD8B0D
:101B000013F7F70F833784FE7D8B1B17B70003A6EF
:101B1000470FC1769386F67FF18E558F23AAE70E85
:101B20000100626405618280011122EC00102334FF
:101B3000A4FEAE872322F4FE832744FE858B13F791
:101B4000F70F833784FE058B1B17370103A6470F5A
:101B5000B706F8FFFD16F18E558F23AAE70E010098
:101B6000626405618280011122EC00102334A4FE1E
:101B7000AE872322F4FE832744FE858B13F7F70FED
:101B8000833784FE058B1B17470103A6470FB70653
:101B9000F0FFFD16F18E558F23AAE70E0100626457
:101BA00005618280011122EC00102334A4FEAE876F
:101BB0002322F4FE832744FE858B13F7F70F833728
:101BC00084FE058B1B17570103A6470FB706E0FFDE
:101BD000FD16F18E558F23AAE70E010062640561A0
:101BE0008280011122EC00102334A4FEAE87232250
:101BF000F4FE832744FE8D8B13F7F70F833784FEA3
:101C00000D8B1B17A70103A6470FB70600F4FD169F
:101C1000F18E558F23AAE70E010062640561828070
:101C2000011122EC00102334A4FEAE872322F4FE1F
:101C3000832744FE858B13F7F70F833784FE058BCC
:101C40001B17D70103A6470FB70600E0FD16F18E5C
:101C5000558F23AAE70E010062640561828001119D
:101C600022EC00102334A4FEAE872322F4FE832747
:101C700044FE858B13F7F70F833784FE058B1B1704
:101C8000E70103A6470FB70600C0FD16F18E558F7A
:101C900023AAE70E0100626405618280797106F46F
:101CA00022F000182334A4FEAE8736872322F4FEE8
:101CB000B2872320F4FEBA87232EF4FC833784FEF8
:101CC00093B7170093F7F70F99C3FD57A9A0938710
:101CD00001819C639C6B8146094681453E85EF10DE
:101CE000204B832744FEBE85033584FEEF0040036E
:101CF000832704FEBE85033584FEEF00C00E8327D4
:101D0000C4FDBE85033584FEEF006018033584FEF4
:101D1000EF00402181473E85A270027445618280B8
:101D2000011122EC00102334A4FEAE872322F4FE1E
:101D3000833784FEDC47812793E707081B8707006A
:101D4000833784FED8C7832744FE9B9747008127AB
:101D5000376762021B0707A0BB57F7028127C2172C
:101D6000C1939BD78700C217C1931B870700833796
:101D700084FED8C3832744FE9B974700812737679B
:101D800062021B0707A0BB57F702812793F7F70FE3
:101D90001B870700833784FE98C3833784FE9C4BE0
:101DA000812793E717001B870700833784FE98CBB2
:101DB000833784FE9C4B812793E727001B8707000E
:101DC000833784FE98CB833784FEDC47812793F7E3
:101DD000F7071B870700833784FED8C781473E85F6
:101DE000626405618280011122EC00102334A4FE9C
:101DF000AE872322F4FE832744FE1B870700894712
:101E0000630AF704832744FE1B870700894763EFB3
:101E1000E704832744FE812789CB832744FE1B8761
:101E200007008547630CF70091A0833784FEDC47E9
:101E30001B870700833784FED8C7A9A0833784FE99
:101E4000DC47812793E717001B870700833784FE51
:101E5000D8C70DA8833784FEDC47812793E7270086
:101E60001B870700833784FED8C729A8833784FEE1
:101E7000DC47812793E737001B870700833784FE01
:101E8000D8C7010081473E856264056182800111E7
:101E900022EC00102334A4FEAE872322F4FE833705
:101EA00084FE93B7170093F7F70F99C3FD57BDA0B2
:101EB000832744FE812789CB832744FE1B870700A5
:101EC0008547630CF70035A8833784FEDC471B8702
:101ED0000700833784FED8C789A0833784FEDC4798
:101EE0001B870700833784FED8C7833784FEDC470F
:101EF000812793E747001B870700833784FED8C7F5
:101F000029A8833784FEDC47812793E747001B8796
:101F10000700833784FED8C7010081473E8562648D
:101F200005618280011122EC00102334A4FE833766
:101F300084FE93B7170093F7F70F81C79307F00F4D
:101F400031A0833784FE054798C781473E85626488
:101F500005618280011122EC00102334A4FEAE87BB
:101F6000A303F4FE833784FE93B7170093F7F70FAC
:101F700099C3FD5725A00100833784FEDC4B8127E0
:101F800093F707028127EDDB834774FE93F7F70F82
:101F90001B870700833784FE98C381473E856264B0
:101FA00005618280797122F40018233CA4FC8337F8
:101FB00084FD93B7170093F7F70F81C79307F00FCE
:101FC00015A00100833784FDDC4B8127858B812799
:101FD000F5DB833784FD9C432326F4FE8327C4FE70
:101FE00093F7F70F3E85227445618280011122EC40
:101FF0000010AA872326F4FE97E700009387870D39
:10200000254798C3FD573E856264056182800111B2
:1020100022EC0010AA872330B4FE2326F4FE832787
:10202000C4FE1B87070085476309F7008327C4FEAA
:102030001B87070089476318F700833704FE096789
:10204000D8C3814701A897E700009387A7082547D1
:1020500098C3FD573E85626405618280011122ECC0
:102060000010AA872326F4FE85473E856264056139
:102070008280011122EC0010AA87AE8632872326C7
:10208000F4FEB6872324F4FEBA872322F4FE8147A8
:102090003E85626405618280397106FC22F8800009
:1020A000AA872338B4FC2334C4FC232EF4FC8327F2
:1020B000C4FD812799C3FD5715A0833704FD233440
:1020C000F4FE9307103E13956701EFF0BFEDAA876A
:1020D0003E87833784FE2380E70085473E85E27094
:1020E000427421618280011122EC00102334A4FE8D
:1020F00097E70000938707FC9863833784FE3E9739
:102100009387019C6360F70297E70000938787FA43
:102110009863833784FE3E9797D701009387876E35
:1021200063F4E700FD5705A897E70000938787F859
:102130009863833784FE3E9797E70000938787F77D
:1021400098E397E700009387E7F69863833784FE68
:10215000B307F040BA973E856264056182803971A9
:1021600006FC22F88000AA872338B4FC2334C4FC80
:10217000232EF4FC8327C4FD3E85EF10601AAA8746
:1021800099E3FD57ADA0833704FD2330F4FE2334DB
:1021900004FEB1A0033704FE833784FEBA9783C7D9
:1021A00007003E87A9476319F700B5459307103E1E
:1021B00013956701EFF01FDA033704FE833784FEBF
:1021C000BA9783C70700BE859307103E1395670132
:1021D000EFF05FD8833784FE85072334F4FE03379E
:1021E00084FE833784FCE367F7FA833784FC3E85FB
:1021F000E270427421618280411122E4000897E775
:1022000000009387A7EB37F7FA021307070898C374
:102210000100226441018280011106EC22E80010D5
:102220002334A4FE2330B4FE833584FE172500003A
:102230001305C538EF001063F327907CBE808687B6
:10224000BE85172500001305E538EF00B061F327C0
:102250001034BE808687BE8517250000130505391A
:10226000EF005060F3273034BE808687BE85172587
:10227000000013052539EF00F05E01A0011122ECEA
:102280000010232604FE1DA017070000130707F9FE
:1022900097E60000938606E68327C4FE8E07B6976E
:1022A00098E38327C4FE85272326F4FE8327C4FEF4
:1022B0001B870700B147E3D9E7FC01000100626416
:1022C00005618280797106F422F00018233CA4FC99
:1022D0002338B4FC833784FD81273E878567FD174B
:1022E000F98F2322F4FE832744FE1B870700AD47A6
:1022F00063EEE70017E700001307C7DF836744FEBC
:102300008E07BA979C632334F4FE3DA0832744FED6
:102310001B8707008567FD17631AF70097E7000022
:10232000938747DDBC732334F4FE39A09707000080
:102330009387C7EE2334F4FE833784FE81CB833743
:1023400084FE833504FD033584FD829781473E85F5
:10235000A270027445618280797106F422F000183F
:10236000972700009387873290639467986B9C6FE0
:102370002338C4FC233CD4FC2330E4FE2334F4FE95
:102380001726000013068629972500009385052A45
:10239000172500001305852AEF00D04C833704FE73
:1023A000BE85172500001305652BEF00B04B97E79E
:1023B00000009387A7D09C43BE8517250000130516
:1023C000652BEF00304A0100A270027445618280E3
:1023D000011122EC0010A30504FEB70700680347B3
:1023E000B4FEA385E7000100B7070068DC4381273E
:1023F00082178193D5838127BD8B812781278127F0
:102400002326F4FEB707006883C7070013F7F70F0A
:10241000B7070068059B1377F70F2380E700B7071E
:10242000006883C7070093F7F70F1B9787011B57B7
:1024300087418327C4FE93F7F70F9B97170093F705
:10244000F70F9B9787019BD78741F98B9B97870154
:102450009BD78741D98F1B9787011B578741B707A8
:1024600000681377F70F2380E70001000100626422
:1024700005618280411106E422E0000881460D4694
:10248000F167938507209307103E13956701EFF0DE
:10249000FF80A14073B0007DEFF01FECEFF01FDE76
:1024A000EFF01FF30100A26002644101828001117C
:1024B00022EC0010AA872326F4FE01006264056165
:1024C0008280411122E400080100226441018280DF
:1024D000411122E4000801002264410182800111BF
:1024E00006EC22E80010232604FE9305F009B777D6
:1024F000027C13951700EFF0EFC40100B777027C60
:1025000013951700EFF00FC9AA878127E5DB0100BB
:10251000B777027C13951700EFF02FCAAA8781279F
:10252000E5FBB777027C13951700EFF00FC5AA877C
:1025300081273E878327C4FED98F2326F4FEB777F1
:10254000027C13951700EFF04FC3AA8781279B9752
:10255000870081273E878327C4FED98F2326F4FE78
:10256000B777027C13951700EFF02FC1AA87812758
:102570009B97070181273E878327C4FED98F232697
:10258000F4FE8327C4FE3E85E260426405618280DA
:10259000411106E422E00008B777027C139517008A
:1025A000EFF0EF8A9D45B777027C13951700EFF0A7
:1025B0000FA2B777027C13951700EFF00F8FB77754
:1025C000027C13951700EFF08F958145B777027C59
:1025D00013951700EFF08FAB8145B777027C139509
:1025E0001700EFF00FAFB777027C13951700EFF0ED
:1025F000EF889945B777027C13951700EFF08FB4F9
:102600000100B777027C13951700EFF0AFB8AA87E7
:102610008127E5DB0100B777027C13951700EFF007
:10262000CFB9AA878127E5FB01000100A2600264FF
:1026300041018280011106EC22E80010232604FEED
:10264000B777027C13951700EFF06F809D45B77741
:10265000027C13951700EFF08F97B777027C1395E4
:102660001700EFF08F84B777027C13951700EFF017
:10267000AF928145B777027C13951700EFF04FB604
:102680008145B777027C13951700EFF02FA08145A5
:10269000B777027C13951700EFF0AFA3B777027CF2
:1026A00013951700EFE09FFD9545B777027C1395D2
:1026B0001700EFF02FA90100B777027C13951700E0
:1026C000EFF04FADAA878127E5DB0100B777027CE9
:1026D00013951700EFF06FAEAA878127E5FBB77758
:1026E000027C13951700EFF04FA9AA872326F4FE6A
:1026F0008327C4FE858B8127C5FB8327C4FE3E85C7
:10270000E260426405618280797106F422F000186B
:10271000AA87232EF4FC232604FE172500001305A8
:10272000E5F8EF007026232604FEE1A88327C4FE07
:102730001B870700B7C74018B99F81279B972700C1
:1027400081279C43BE85172500001305A5F7EF00E0
:102750007011172500001305E5F7EF00F02283271D
:10276000C4FE1B870700B7C740189B870714B99F93
:1027700081279B97270081279C43BE851725000052
:102780001305C5F5EF00100E17250000130585F49D
:10279000EF00901F8327C4FE1B870700B7C74018B0
:1027A000B99F81279B972700812794438327C4FEE5
:1027B0001B870700B7C740189B870714B99F81275D
:1027C0009B97270081279C4336876319F7001725BD
:1027D00000001305A5F1EF00301B39A017250000FC
:1027E000130545F2EF00501A17250000130585EE7A
:1027F000EF0090198327C4FE812785278127232690
:10280000F4FE8327C4FE81271B8707008327C4FDAE
:102810008127E36DF7F001000100A27002744561A9
:102820008280797106F422F00018AA87232EF4FC26
:10283000232604FE17250000130545E7EF00D014FA
:10284000232604FE1DA88327C4FE1B870700B7C7E5
:102850004018B99F81279B97270081279C43BE85FD
:1028600017250000130585EDEF00C07F8327C4FE08
:102870008127852781272326F4FE8327C4FE81270D
:102880001B8707008327C4FD8127E36EF7FA17250E
:102890000000130525E4EF00300F0100A270027460
:1028A000456182801301019D2334116223308162CE
:1028B00013040163232A049C35A08327449D8127A8
:1028C0000327449D0127821781938A07930604FFFB
:1028D000B69723A4E7BE8327449D812785278127B8
:1028E000232AF49C8327449D81273E879307F00F7A
:1028F000E3F5E7FC930784BD3706036193050010F9
:102900003E85EFE01FB413050010EFF09FF117258F
:102910000000130525E3EF003007231704FE2316FC
:1029200004FE231504FE233C04AC930704AE1307F6
:10293000800F3A8681453E85EF002068233C049C49
:102940009307049E1307800F3A8681453E85EF006A
:10295000C066232204FE232004FE231704FE15A0D4
:102960008357E4FE81270357E4FE1377F70F93069E
:1029700004FFB6972384E7AE8357E4FE8527231729
:10298000F4FE8357E4FE1B8707009307F00FE3F97B
:10299000E7FC232E04FCB777027C13951700EFE0C9
:1029A0001FCB9D45B777027C13951700EFE03FE200
:1029B000B777027C13951700EFE03FCFB777027C23
:1029C00013951700EFE05FDD8945B777027C13951B
:1029D0001700EFF0EF808545B777027C139517005D
:1029E000EFE09FE38945B777027C13951700EFE08E
:1029F0001FE6B777027C13951700EFE03FC8EFF0B2
:102A00001FAEAA87232EF4FC8327C4FDBE8517259D
:102A10000000130525D4EF00E0648327C4FD1B8765
:102A20000700B707190093871720630AF7001725D7
:102A300000001305A5D3EF002075FD57C1A9172588
:102A400000001305A5D4EF0020741725000013051E
:102A5000E5D5EF006073EFF0BFB393050006B777DD
:102A6000027C13951700EFE0FFED0100B777027CC1
:102A700013951700EFE01FF2AA878127E5DB01001D
:102A8000B777027C13951700EFE03FF3AA87812701
:102A9000E5FBEFF03FBA172500001305A5D2EF00C4
:102AA000A06EB777027C13951700EFE05FBAB717F7
:102AB000E0039387B73413956700EFD09F92814569
:102AC000B717E0039387B73413956700EFD0FFACD7
:102AD0009D45B777027C13951700EFE05FCF8145E6
:102AE000B777027C13951700EFE05FDA8945B77777
:102AF000027C13951700EFE0DFDDB777027C1395BA
:102B00001700EFE0BFB78545B777027C1395170034
:102B1000EFE05FE38945B777027C13951700EFE09C
:102B20007FE28945B777027C13951700EFE09FE1BC
:102B30000100B777027C13951700EFE0BFE5AA8785
:102B40008127E5DB0100B777027C13951700EFE0E2
:102B5000DFE6AA878127E5FBEFF0DFADEFF05FA3AB
:102B6000B777027C13951700EFE07FAEFD45B7778E
:102B7000027C13951700EFE09FC5B777027C139591
:102B80001700EFE0FFB5B777027C13951700EFE071
:102B90001FB9930700042315F4FE8357A4FE812771
:102BA000FD3781278127BE85B777027C13951700F3
:102BB000EFE01FE38945B777027C13951700EFE03C
:102BC0005FD18145B777027C13951700EFE07FE373
:102BD0009945B777027C13951700EFE03FE68145F2
:102BE000B777027C13951700EFE0FFE88945B777C8
:102BF000027C13951700EFE0BFEB8145B777027CAD
:102C000013951700EFE07FEE8145B777027C1395AF
:102C10001700EFE07FF18145B777027C139517002D
:102C2000EFE07FF48145B777027C13951700EFE062
:102C30007FF78545B777027C13951700EFE07FFAA1
:102C40008145B777027C13951700EFE07FFD85453E
:102C5000B777027C13951700EFF06F80930700049D
:102C60000147A94613060002814537850F00130569
:102C7000D5043205EFE03F8CB777027C139517003F
:102C8000EFE0DF9FB7050032B777027C139517009E
:102C9000EFE05FCB8145B777027C13951700EFE03B
:102CA0007FCAB717E0039387B73413956700EFD057
:102CB0008FF08145B717E0039387B734139567000A
:102CC000EFD06FF50100B777027C13951700EFE0A6
:102CD0007FCCAA878127E5DB0100B777027C1395BB
:102CE0001700EFE09FCDAA878127E5FB13050004BD
:102CF000EFF03FB317250000130545AEEF00C048C5
:102D00000100B717E0039387B73413956700EFE02E
:102D10006FEAAA87FDF717250000130525AEEF001F
:102D2000A046B777027C13951700EFE05F92B717C4
:102D3000E0039387B73413956700EFD08FEA81459E
:102D4000B717E0039387B73413956700EFD0FF847C
:102D5000FD45B777027C13951700EFE05FA7B777C3
:102D6000027C13951700EFE0BF97B777027C1395AD
:102D70001700EFE07F9E930700042315F4FE8357AE
:102D8000A4FE8127FD3781278127BE85B777027C86
:102D900013951700EFE0DFC48545B777027C1395E4
:102DA0001700EFE01FB38145B777027C139517003A
:102DB000EFE03FC59945B777027C13951700EFE028
:102DC000FFC78145B777027C13951700EFE0BFCAB4
:102DD0008945B777027C13951700EFE07FCDA145B9
:102DE000B777027C13951700EFE03FD08145B777A6
:102DF000027C13951700EFE03FD38145B777027C43
:102E000013951700EFE03FD68145B777027C139505
:102E10001700EFE03FD98545B777027C139517007F
:102E2000EFE03FDC8145B777027C13951700EFE0B8
:102E30003FDF8545B777027C13951700EFE03FE24F
:102E4000930700020147A94613060002854537553E
:102E5000800F130515D21205EFE0EFEDB777027C76
:102E600013951700EFE09F81B705006BB777027CE1
:102E700013951700EFE01FAD8145B777027C1395DE
:102E80001700EFE03FAC0100B777027C1395170005
:102E9000EFE05FB0AA878127E5DBB717E0039387F0
:102EA000B73413956700EFD00FD19945B717E003FA
:102EB0009387B73413956700EFD0EFD5172500003F
:102EC00013054597EF00402C0100B717E0039387E7
:102ED000B73413956700EFE0EFCDAA87FDF717250C
:102EE00000001305A596EF00202A17250000130502
:102EF000E599EF00602913050004EFF0FF80172526
:102F000000001305A599EF00E01501A03E85833070
:102F1000816203340162130101638280AA858146C4
:102F200001460145C9AB011122E826E4172400003F
:102F3000130484AE97240000938404AE058C06EC41
:102F40000D8411E4E2604264A264056182807D1414
:102F500093173400A6979C638297E5B7011122E886
:102F600026E417240000130424AB97240000938464
:102F7000A4AA818C4AE006EC8D840149631599026C
:102F800017240000130444A9972400009384C4A8C4
:102F9000818C8D840149631D9900E2604264A264C2
:102FA0000269056182801C60050921048297F9B7D6
:102FB0001C60050921048297F9BF3D432A8763718C
:102FC000C3029377F700C1E3BDE1937606FF3D8A24
:102FD000BA960CE30CE74107E36DD7FE11E282805D
:102FE000B306C3408A069702000096966780A60043
:102FF0002307B700A306B7002306B700A305B70051
:103000002305B700A304B7002304B700A303B70048
:103010002303B700A302B7002302B700A301B70040
:103020002301B700A300B7002300B700828093F507
:10303000F50F93968500D58D93960501D58D9396C2
:103040000502D58D59B793962700970200009696F2
:103050008682E78026FA9680C1171D8F3E96E3711F
:10306000C3F89DB7597122F006F42A842EFCB2E011
:10307000B6E4BAE8BEECC2F0C6F403B5018119C5E6
:103080001C5989E72AE4EF00207422650C69341882
:10309000228636ECEF00703BA2700274656182807C
:1030A000797126EC4AE806F422F04EE452E0AA8454
:1030B0002E8909C51C5999E3EF0000719C5880685E
:1030C00081E72685EF0040709727000093870784EB
:1030D000631FF402806483570401A18BA9CB1C6C8D
:1030E000B9C7FD59294A5844834509009B07F7FF92
:1030F0003E87A1ED5CC463D107082286A9452685D9
:10310000EF004022FD576309F50229453DA09727AE
:103110000000938727836314F40080686DBF9717BE
:1031200000009387277BE318F4FA806C6DB7A285C3
:103130002685EF00802B55D57D55A2700274E26480
:103140004269A269026A4561828058C4050963D751
:103150000700185463CBE700638945011C6013879F
:10316000170018E02380B700BDBF22862685EF0038
:10317000601BE31A35F7C9B71C601387170018E006
:1031800029472380E70051B7AA8503B5018109BF0C
:103190005D71A2E026FC4AF84EF452F086E456EC4B
:1031A00083B901812A842E89328AB6846388090012
:1031B00083A7090381E74E85EF00006197170000A0
:1031C0009387C7746313F40C03B489008947630AB7
:1031D000FA0085477D5563E1470B9B87040063CD6B
:1031E0000708A2854E85EF00404C2C7091C99307CB
:1031F000C4076385F5004E85EF00F0042330040614
:1032000083570401232404022324040093F70708AE
:1032100089C70C6C4E85EF001003835704017D773E
:103220001307C735F98F2318F40089476303FA0E93
:1032300054003000A2854E85EF0080708357040152
:103240005D8D2318A400A5E4A2642685EF00207FED
:103250002A894DE9A26A63919A0A7D558357040130
:103260002326040093E727002318F4009307F407AC
:103270001CE01CEC85471CD0A6600664E274427911
:10328000A279027AE26A61618280971700009387CF
:10329000676B6315F40003B409010DBF97170000B5
:1032A00093874763E314F4F203B4890105B7E30E8F
:1032B00009F883A7090381E74E85EF00E0508547B1
:1032C0006318FA008357040193E717002318F400EA
:1032D00083570401812423302401233C240104D09A
:1032E00013F787001DCB858B9DC7BB049040232619
:1032F000040004D4014549B75685EF0040742A897B
:10330000D68421DD8357040193E707082318F400CE
:103310004DB70145A1B744C4F1BF23260400D9BF6E
:103320006FE0DFD3797122F026EC4AE806F44EE430
:10333000AA842E89328409C51C5999E3EF00C0483C
:10334000971700009387875C631AF40680641C5407
:103350005CC483570401A18BD1C31C6CC1C31C6C1A
:1033600008609379F90F4E891D9D1C506347F50045
:10337000A2852685EF0060333DE55C440525FD37D9
:103380005CC41C601387170018E0238037011C50B1
:103390006389A70083570401858B89CBA9476317ED
:1033A000F900A2852685EF00403015EDA270027469
:1033B000E264A2694A8542694561828097170000EC
:1033C000938747586314F400806851B7971700003B
:1033D00093874750E31DF4F6806C95BFA285268540
:1033E000EF00A0002DDD7D59D1B7011122E826E4C0
:1033F0004AE006EC83B401812A892E8491C49C584A
:1034000081E72685EF00403C97170000938707501F
:103410006317F4028064831704011397070393F67C
:1034200087004193B5EA9376070195EA2547232063
:10343000E90093E707042318F4007D5545A097178A
:103440000000938727506314F4008068E9B797174A
:10345000000093872748E310F4FC806C6DBF118B4C
:1034600015C72C7091C99307C4076385F5004A8579
:10347000EF00605D23300406835704012324040019
:1034800093F7B7FD2318F4001C6C1CE0835704016C
:1034900093E787002318F4001C6C89EF835704011D
:1034A0001307002093F707286386E700A2854A8563
:1034B000EF00C04E831704011397070393F617001C
:1034C00041939DC2145023260400BB06D04014D45F
:1034D000146C014581E61377070821FFE26042641E
:1034E000A26402690561828093762700014691E219
:1034F000105050C4F1BFAA8817D50000130505BEAF
:103500001C6181EF1387818A18E113050000BA87D7
:1035100009C51C612338F710BA8798477D487D5547
:103520006347E804638D080203B8071163010804C8
:1035300013153700429510E10323082005463B167A
:10354000E6003363C300232068202330D51089466A
:103550006397D80083264820558E2322C8209B06D7
:10356000170009070E0794C7BA978CE301458280BC
:1035700083D70501797122F026EC06F44AE84EE47F
:1035800013F78700AA842E8469EF9845634DE00005
:10359000B85D634AE0000145A2700274E2644269CA
:1035A000A2694561828038687DD7856603A90400D9
:1035B000F58F23A00400A5CF506C83570401918B95
:1035C00099C71C441D8E3C7099C33C5C1D8E3C68A1
:1035D0000C7C814626858297FD5703570401631DA5
:1035E000F5009440F54763E8D706B7074020850704
:1035F000B3D7D700858BA5C31C6C232404001CE023
:1036000085677D8F19C7FD576314F5009C4091E3D2
:1036100048EC2C7023A02401BDDD9307C40763850B
:10362000F5002685EF00204223300406ADB70C7C60
:103630000146854626850297FD572A86E31FF5F643
:103640009C40A5DF75476385E70059476394E7040D
:1036500023A0240189B7136707042318E4007D55CC
:1036600025BF83B98501E38809F203B905008D8B75
:1036700023B035013B093941014791E3985158C4C2
:10368000E35B20F13C640C7CCA864E8626858297DB
:103690006349A0008357040193E707042318F4004B
:1036A0007DBFAA993B09A940E1BF9C6DA5C301114B
:1036B00022E806EC2A8419C51C5989E72EE4EF009C
:1036C000A010A2659717000093874724639BF5001D
:1036D0000C648397050195C722854264E260056109
:1036E00041BD971700009387E7256394F5000C68A8
:1036F000CDB7971700009387E71DE39CF5FC0C6C92
:10370000C9BFE26042640145056182800145828053
:10371000411122E006E42A842318B5002319C500CC
:1037200023300500233405002326050A233C050029
:103730002320050223240502214681451305450A5D
:10374000EFF0BF8797170000938787B93CE0971782
:103750000000938707BC3CE497170000938767C07D
:103760003CE897170000938747C3A26000FC3CEC3D
:1037700002644101828097050000938545F399AA70
:10378000011126E41306000B9B84F5FFB384C402E9
:103790004AE02E8922E806EC9385840CEF00003580
:1037A0002A8401CD2330050023242501610508E882
:1037B0001386040B8145EFF05F80E260228542644E
:1037C000A2640269056182801C59BDE7411122E0B3
:1037D00006E497070000938747FA3CE52330050885
:1037E000232405082338050883B781812A846314BC
:1037F000F50085471CD92285EF00200408E42285C6
:10380000EF00A00308E82285EF00200308EC08641D
:1038100001469145EFF0DFEF08680546A545EFF05A
:103820003FEF086C0946C945EFF09FEE8547A2605F
:103830001CD80264410182808280011126E483B495
:1038400081819C584AE006EC22E82A8981E7268596
:10385000EFF09FF79384040880689C44FD3763D69B
:1038600007009C60A9CF8460C5BF0317040129E746
:10387000C17785072326040A23300400233404007B
:103880001CC8233C040023200402232404022146F4
:1038900081451305440AEFF04FF223300406232438
:1038A00004062330040823240408E26022854264CD
:1038B000A2640269056182801304040B45B7914537
:1038C0004A85EFF0FFEB88E02A8451FDB1472320C1
:1038D000F900E1BF5D71A2E026FC4EF452F05AE817
:1038E0005EE486E44AF856ECAA892E8A9304050819
:1038F0000144054BFD5B03B9040183AA8400FD3A32
:1039000063D00A028460E5F8A66022850664E2744A
:103910004279A279027AE26A426BA26B616182808B
:1039200083570901637BFB008317290163877701B4
:10393000CA854E85029A498C01241309090BC1B727
:103940007571CAF82E898395250122E1A6FC06E54A
:103950003284B68463DC05008317090123A00400C8
:1039600093F7070895E3930700400DA03000EF00A0
:103970003029E34305FEB2473D67F98F0967998F08
:1039800093B717009CC0C5B793070004AA601CE05A
:103990000A64E674467901454961828083D705014E
:1039A000797122F006F426EC4AE8898B2E8489CFBF
:1039B0009307F4071CE01CEC85471CD0A27002742E
:1039C000E264426945618280540030002A89EFF048
:1039D0003FF7A265AA844A85EF00401101ED8317E5
:1039E000040113F7072079FBF19B93E727002318C5
:1039F000F4007DBF97070000938727D82334F9048C
:103A00008357040108E008EC93E707082318F40043
:103A1000A2671CD0924791CF831524014A85EF00FD
:103A2000502101C983570401F19B93E71700231824
:103A3000F40003550401C98C2318940041B7AA85EA
:103A400003B5018165A0D5C183B785FF011122E8C7
:103A500006EC138485FF63D307003E942AE4EF004D
:103A6000302517C700001307E7671C63226589EB41
:103A70002334040000E34264E26005616F007023B8
:103A8000637DF4001060B306C4006396D7009463AE
:103A90009C67B29614E01CE4F1BF3E879C6799C313
:103AA000E37DF4FE14633306D700631F86001060C5
:103AB000B29614E33306D700E39FC7FA90639C677E
:103AC000B29614E31CE745BF6375C400B1471CC13F
:103AD0005DB71060B306C4006396D70094639C671B
:103AE000B29614E01CE400E779B7828093877500F2
:103AF0007971E19B26EC4AE806F422F04EE4A10736
:103B00004147AA84414963E3E7003E8937070080C3
:103B10001347F7FF6364F700637CB900B1479CC0AB
:103B20000145A2700274E2644269A2694561828023
:103B30002685EF00F01797C600009386A65A986274
:103B40003A840DE817C400001304445A1C6091E73E
:103B500081452685EF00807508E0CA852685EF003F
:103B6000E074FD59631E3505B1479CC02685EF0002
:103B700050147DB71C60BB87274163C007043D46D6
:103B80006357F6001CE03E942330240129A01C64F6
:103B9000631387029CE22685EF00B0111305F40041
:103BA000930784006199BB07F540A5DF3E94BB07EE
:103BB000F0401CE0BDB71CE7F9BF2287006451B795
:103BC000130475006198E30185FCB305A4402685C4
:103BD000EF00C06DE31A35FB41BF5C461B87F7FF62
:103BE00058C6635A07001C566345F700A9476394FB
:103BF000F5006FF02FF31C622E851387170018E273
:103C00002380B7008280797122F026EC4AE84EE4E6
:103C100052E006F42A89AE893284B304D6007D5A74
:103C200063149400014511A8834504004E864A851B
:103C3000EFF0BFFA0504E31545FFA2700274E264D9
:103C40004269A269026A456182805571A2E126FD3E
:103C50004AF94EF552F186E556ED5AE95EE562E124
:103C6000E6FCEAF8AA89AE8432893684014A09C59D
:103C70001C5999E3EFF05FB597170000938707C9C8
:103C8000639EF40C83B4890083D70401A18BEDCB30
:103C90009C6CFDC793070002A304F102FD5A930731
:103CA000000302D22305F10222E4930B5002139C7D
:103CB0000A02171B0000130B6BCC854C4A84834708
:103CC000040099C36392770F3B0D2441630E0D00EE
:103CD000EA864A86A6854E85EFF0FFF2630B551FF4
:103CE0009257BB87A7013ED2834704006383071E18
:103CF0001309140062E802ECA309010482D483458D
:103D0000090015465A85EF0000791304190059ED92
:103D1000C24713F7070109C713070002A309E1040B
:103D200013F7870009C71307B002A309E10483460C
:103D300009001307A0026384E608F2474A8481461B
:103D40002546294803470400130514009B0507FD79
:103D50002E87637BB60AA5CE3ECE95A897170000A6
:103D6000938747BE6395F40083B4090131BF971769
:103D70000000938727B6E399F4F083B4890129B74B
:103D8000A6854E85EFF06FE611D57D55AE600E64C9
:103D9000EA744A79AA790A7AEA6A4A6BAA6B0A6CC7
:103DA000E67C467D69618280050411BFC247330508
:103DB00065413B95AC005D8D2AC8228989B7226791
:103DC00093068700184336E4634907023ACE034757
:103DD00004009307E0026310F704034714009307FD
:103DE000A0026310F70AA2670904138787009C43A7
:103DF0003AE463C107023ECA39A83B07E04093E7B3
:103E000027003ACE3EC8E1B7BB07F8022A848546B0
:103E1000B99F0DBF56CA834504000D461715000013
:103E2000130545B6EF00206711CD97170000938763
:103E300067B51D8D930700043B95A700C247050495
:103E40005D8D2AC883450400194617150000130527
:103E5000E5B3130914002304B102EF00C06351C19C
:103E600093070000A1EB4247A2671377071029C30D
:103E7000BD07C19BC1073EE49257BB8747013ED2B5
:103E800035BD050402CA81468147254629480347B6
:103E90000400130514009B0507FD2E876374B6000C
:103EA000B9FA95BFBB07F8022A848546B99FC5B702
:103EB000A107D1B7380097060000938606D526865D
:103EC0000C084E8597000000E70000002A8AE315E1
:103ED00055FB83D7040193F70704E39807EA1255CB
:103EE00075B5380097060000938626D226860C0802
:103EF0004E85EF00A012D9BF5D719C4952F03A8AFD
:103F00009845A2E04AF84EF456EC3289B68A86E427
:103F100026FC5AE85EE41B8607009B060700AA8978
:103F20002E846353D600BA872320F9000347340454
:103F300001C785272320F9001C4093F7070291C78A
:103F40008327090089272320F9000440998891E8F4
:103F5000130B9401FD5B5C4403270900999F63C028
:103F6000F406834734043336F000B336F0001C40C7
:103F700093F70702B5EB13063404D6854E85029AF3
:103F8000FD576305F5041C4011465444998B0327E3
:103F9000090081446398C700BB87E640BE8463D3B1
:103FA000070081441C4418486354F700999FBD9C46
:103FB000014969047D5B639A2405014509A885468A
:103FC0005A86D6854E85029A631E75017D55A66078
:103FD0000664E2744279A279027AE26A426BA26BC9
:103FE00061618280852485BFB307D40093060003F6
:103FF000A381D7041B0716009B0626000346540422
:10400000B307E400A381C704BDB785462286D685E1
:104010004E85029AE30C65FB052971BF5D71A2E034
:104020004AF84EF452F086E426FC56EC5AE803C8EF
:104030008501930780072A892E84B289368A63EE28
:104040000701930720069386350463ED0701630794
:10405000081C93078005630FF812930424042301BE
:10406000040515A89B07D8F993F7F70F5546E366A3
:10407000F6FE171600001306A6948A07B2979C4313
:10408000B29782871C6393842504938687009C43A0
:1040900014E32381F504854775AA90411C631375C9
:1040A0000608938587000DC19C630CE363D8070065
:1040B0001307D002B307F040A301E4041716000071
:1040C0001306468D294835A8137606040CE301C66D
:1040D00083970700E1BF9C43D1BF90411C631375D8
:1040E00006089385870041CD9C630CE31307F00617
:1040F000171600001306068A6304E8102948A30176
:104100000404584018C4634507000C40ED990CC0E6
:1041100099E3B68419CFB68433F70703FD143297B9
:10412000034707002380E4003E87B3D70703E37506
:1041300007FFA147631EF8001C40858B91CB5840B8
:104140001C4863C7E70093070003A38FF4FEFD1428
:10415000858E14C85287CE867000A2854A85EFF0FE
:10416000BFD9FD5A631C550F7D55A6600664E274E5
:104170004279A279027AE26A426B616182809C4351
:10418000137606040CE301C6C217C19385B78217E4
:104190008193A9BFA3820505170600001306867F39
:1041A0000C401C6313F8050813858700630E080292
:1041B0009C6308E313F7150001C793E505020CC0E3
:1041C000414895FF18401377F7FD18C00DBF9C417B
:1041D00093E7070A9CC193078007A302F40417061C
:1041E00000001306A67C6DBF9C4313F8050408E38A
:1041F00063050800C217C19375BF821781935DBF25
:104200002148F5BD90411C63CC49137806081385FD
:1042100087006309080008E39C638CE323280400FB
:10422000B6840DBF08E3137606049C6301C6239091
:10423000B700EDB78CC3DDB71C63D04181459386D1
:10424000870014E384632685EF00E02419C1058DFF
:1042500048C05C401CC8A3010404EDBD1448268678
:10426000CE854A85029AE30155F11C40898B95EB76
:10427000B24748441B8707009B06050063D3E6004E
:104280003E850125DDB585465686CE854A85029A4E
:10429000E30C65ED85245C443247999FE3C5F4FE49
:1042A000C1BF8144930A94017D5BF5B7411122E0BF
:1042B0002A842E8597C7000023AE07E006E4EFD0DE
:1042C0009FE2FD576318F50097C7000083A787E0BA
:1042D00091C31CC0A260026441018280411122E0AE
:1042E0002E848395250106E4EF00C01C6349050078
:1042F0005C6CAA975CECA2600264410182808357E7
:1043000004017D777D17F98F2318F400EDB783D76B
:104310000501797122F026EC4AE84EE406F493F7A1
:104320000710AA842E843289B68999C783952501FE
:1043300089460146EF00E012835704017D777D171F
:10434000F98F831524012318F4000274A270CE861D
:104350004A86A26942692685E264456181A04111CD
:1043600022E02E848395250106E4EF00800FFD579F
:1043700003570401631BF500FD77FD17F98F231820
:10438000F400A2600264410182808567D98F2318FE
:10439000F40048ECFDB7839525011DA8411122E0EA
:1043A0002A842E85B285368697C7000023A407D2BB
:1043B00006E4EFD0DFDAFD576318F50097C7000079
:1043C00083A747D191C31CC0A260026441018280CF
:1043D000411122E02A842E8597C7000023AC07CE26
:1043E00006E4EFD0BFC0FD576318F50097C7000083
:1043F00083A747CE91C31CC0A260026441018280A2
:10440000411122E02A842E85B28597C7000023A39C
:1044100007CC06E4EFD0BFBFFD576318F50097C780
:10442000000083A727CB91C31CC0A2600264410196
:104430008280411122E02A842E8597C7000023AB99
:1044400007C806E4EFD09FC1FD576318F50097C772
:10445000000083A727C891C31CC0A2600264410169
:104460008280411122E02A842E85B285368697C744
:10447000000023A107C606E4EFD0BFBFFD576318B5
:10448000F50097C7000083A7E7C491C31CC0A260D2
:1044900002644101828093F5F50F2A966314C500EA
:1044A0000145828083470500E38DB7FE0505FDB712
:1044B00082808280411122E02A842E85B285368650
:1044C00097C7000023A807C006E4EFD0FFBCFD5744
:1044D0006318F50097C7000083A7C7BF91C31CC02E
:0844E000A26002644101828028
:1044E8008CBFFFFFA8BFFFFFC4BFFFFFE0BFFFFFF8
:1044F80002C0FFFF22C0FFFF44C0FFFF66C0FFFFEE
:104508007CC3FFFF96C3FFFFBAC3FFFFDEC3FFFFF5
:10451800F8C3FFFF12C4FFFF36C4FFFF5AC4FFFFF2
:104528007EC4FFFFA2C4FFFF38C6FFFF4CC6FFFFD3
:1045380064C6FFFF7CC6FFFF94C6FFFF1EC7FFFFD0
:1045480030C7FFFF46C7FFFF5CC7FFFF72C7FFFF0B
:104558009CC8FFFFACC8FFFFC2C8FFFFD8C8FFFF59
:10456800EEC8FFFF04C9FFFF1AC9FFFF94C9FFFF88
:10457800A6C9FFFFC2C9FFFFDAC9FFFFF6C9FFFFDF
:104588000ECAFFFF2ACAFFFF464C415348584950FC
:104598000000000000000000464C415348000000A5
:1045A800494C4D0000000000444452000000000047
:1045B8004D4341555345203A203078256C780D0AF3
:1045C80000000000000000004D4443415553453AA7
:1045D800203078256C780D0A0000000000000000EB
:1045E8004D4550432020203A203078256C780D0A1C
:1045F80000000000000000004D5456414C20203AB5
:10460800203078256C780D0A0000000000000000BA
:1046180031373A32303A32380000000000000000EA
:104628004170722020322032303232000000000007
:104638004E75636C65692053444B204275696C6400
:104648002054696D653A2025732C2025730D0A00C6
:10465800446F776E6C6F6164204D6F64653A2025F6
:10466800730D0A0000000000435055204672657122
:1046780075656E637920256C7520487A0D0A0000EF
:104688009045006100000000A045006100000000A6
:10469800A845006100000000B0450061000000006E
:1046A8004F434D2077726974652064617461206995
:1046B80073203A0D000000004D454D315F444154D0
:1046C80041203D20253364000D000000000000005B
:1046D8004D454D325F44415441203D20253364000F
:1046E800636865636B206461746120697320726913
:1046F8006768740D00000000636865636B2064617F
:104708007461206973206661696C20706C656173DF
:104718006520636865636B20796F7520646D61201F
:1047280073657420646174610D000000000000006E
:10473800253364000000000074657374207374618D
:1047480072740D0000000000666C6173685F696434
:104758003D203078253038780D0A00000000000030
:104768004641494C3A20666C61736820494420638D
:104778006865636B206E6F74206F6B210D000000FD
:10478800504153533A20666C617368204944206352
:104798006865636B206F6B210D000000000000004E
:1047A800666C6173682065726173652073746172E9
:1047B800742E2E2E0D000000666C617368206572E1
:1047C8006173652066696E6973682E0D00000000CC
:1047D800444D41207374617274207472616E736900
:1047E8006D61746520646174610D00000000000053
:1047F800444D4120515350492058345F4D4F444552
:10480800207472616E73696D61746520646174618E
:1048180020686173206265656E20636F6D706C65DA
:104828007465640D00000000444D4120737461728A
:1048380074207265636569766520646174610D0032
:10484800444D4120515350492058345F5245565FDA
:104858004D4F4445207472616E73696D61746520B3
:104868006461746120686173206265656E20636F9E
:104878006D706C657465640D000000000000000038
:10488800717370695F646D615F746573740D0000A6
:10489800646D612074657374207173706920583475
:1048A800206D6F6465207472616E73666572206333
:1048B80061736520686173206265656E20636F6D42
:1048C800706C657465640000000000000000000062
:1048D80000000000000000000000000000000000D0
:1048E80000000000000000000000000000000000C0
:1048F80000000000000000000000000000000000B0
:10490800000000000000000000000000000000009F
:10491800000000000000000000000000000000008F
:10492800000000000000000000000000000000007F
:10493800000000000000000000000000000000006F
:10494800000000000000000000000000000000005F
:10495800000000000000000000000000000000004F
:10496800000000000000000000000000000000003F
:10497800232D302B20000000686C4C000000000044
:10498800656667454647000030313233343536377F
:104998003839414243444546000000000000000009
:1049A800303132333435363738396162636465669D
:1049B80000000000C8F6FFFFDEF6FFFF9EF6FFFFCF
:1049C8009EF6FFFF9EF6FFFF9EF6FFFFDEF6FFFF57
:1049D8009EF6FFFF9EF6FFFF9EF6FFFF9EF6FFFF87
:1049E80048F8FFFF1EF7FFFF12F8FFFF9EF6FFFFD4
:1049F8009EF6FFFF7CF8FFFF9EF6FFFF1EF7FFFF06
:0C4A08009EF6FFFF9EF6FFFF1AF8FFFF6E
:104A140000000000000000000849006100000000E0
:104A24004049006100000000D0480061000000001F
:104A34000000000000000000000000000000000072
:104A44000000000000000000000000000000000062
:104A54000000000000000000000000000000000052
:104A64000000000000000000000000000000000042
:104A74000000000000000000000000000000000032
:104A84000000000000000000000000000000000022
:104A94000000000000000000000000000000000012
:104AA4000000000000000000000000000000000002
:104AB40000000000000000000000000000000000F2
:104AC400700201610000000080F0FA0200000000A2
:104AD400000001610000000000000161000000000E
:04000005610001B0E5
:00000001FF
