:02000004610099
:100000006F00001B00000000B20300610000000050
:10001000B2030061000000000000000000000000CA
:10002000B203006100000000B203006100000000A4
:10003000B2030061000000000000000000000000AA
:10004000B203006100000000B20300610000000084
:10005000B203006100000000B20300610000000074
:10006000B203006100000000B20300610000000064
:10007000B203006100000000B20300610000000054
:10008000B203006100000000B20300610000000044
:10009000B20300610000000000000000000000004A
:1000A0000000000000000000000000000000000050
:1000B0000000000000000000000000000000000040
:1000C0000000000000000000000000000000000030
:1000D0000000000000000000000000000000000020
:1000E0000000000000000000000000000000000010
:1000F0000000000000000000000000000000000000
:1001000000000000000000000000000000000000EF
:1001100000000000000000000000000000000000DF
:1001200000000000000000000000000000000000CF
:1001300000000000000000000000000000000000BF
:1001400000000000000000000000000000000000AF
:10015000000000000000000000000000000000009F
:10016000000000000000000000000000000000008F
:10017000000000000000000000000000000000007F
:10018000000000000000000000000000000000006F
:10019000000000000000000000000000000000005F
:1001A000000000000000000000000000000000004F
:1001B00073700430970101009381C16F1701020031
:1001C000130141E49302002073A0027D9702000016
:1001D000938242E3739072309702000093828216FA
:1001E0007390C27E73E0C07E970200009382820DFE
:1001F000739052309302F00373B0523073E0513079
:10020000996273A002307310300073F00232170548
:1002100000001305E5099705000093856509630053
:10022000B502174600001306E67E63FAC500832276
:10023000050023A0550011059105E3EAC5FE174509
:1002400000001305257D970501009385A5DB1706A2
:100250000100130626E863FAC5008322050023A0E7
:10026000550011059105E3EAC5FE170501001305C8
:1002700065E69385019C6377B50023200500110591
:10028000E36DB5FEEF10906517350000130585AEE0
:10029000EF20502DEF207031EF20E05601458145D1
:0A02A000EF202074EF20605901A048
:1002C000357106E012E416E81AEC1EF02AF42EF856
:1002D00032FCB6E0BAE4BEE8C2F8C6FC72E176E5EC
:1002E0007AE97EED73D0E57E7350F67E73D0B67EEC
:1002F000732520348A85EF10306BA6727390427C90
:10030000867273901234E6627390223482602262A5
:10031000C262626382732275C275627686662667E0
:10032000C6674678E6780A6EAA6E4A6FEA6F0D6174
:1003300073002030000000000000000000000000FA
:10034000357106E012E416E81AEC1EF02AF42EF8D5
:1003500032FCB6E0BAE4BEE8C2F8C6FC72E176E56B
:100360007AE97EED73D0E57E7350F67E73D0B67E6B
:10037000F390D07E73700430A6727390427C8672C4
:1003800073901234E6627390223482602262C262F9
:10039000626382732275C275627686662667C66757
:1003A0004678E6780A6EAA6E4A6FEA6F0D617300AE
:1003B000203001A00000011122EC00102334A4FE23
:1003C000833784FE83A7870D812793E717001B8758
:1003D0000700833784FE23ACE70C010062640561EB
:1003E0008280797122F40018233CA4FCAE87232A72
:1003F000F4FC85472326F4FE8327C4FE1B870700F1
:1004000085476313F702832744FD2324F4FE8337D3
:1004100084FD83A7070E812793E717101B8707002A
:10042000833784FD23A0E70E8327C4FE3E85227414
:1004300045618280797122F40018233CA4FCAE87C8
:10044000232AF4FC85472324F4FE832784FE1B879C
:10045000070085476310F70485472326F4FE35A07F
:10046000833784FD9C4F858B93F7F70F3E87854735
:100470006308F700833784FD984F1367170098CF00
:100480008327C4FE85272326F4FE8327C4FE812705
:10049000E358F0FC832784FE3E8522744561828008
:1004A000797122F40018233CA4FCAE873287232AFA
:1004B000F4FCBA872328F4FC85472324F4FE832721
:1004C00084FE1B8707008547631FF70C032744FD45
:1004D000A167F98F2322F4FE232604FE75A8832743
:1004E00004FD1B87070091476307F708832704FD76
:1004F0001B870700914763ECE708832704FD1B87F0
:1005000007008D47630DF704832704FD1B87070051
:100510008D4763EEE706832704FD812789CB832778
:1005200004FD1B8707008547630FF7008DA0833705
:1005300084FDBC4B812793E717101B870700833787
:1005400084FDB8CBA9A0833784FDBC4F812793E7F6
:1005500017101B870700833784FDB8CF0DA883379A
:1005600084FDBC57812793E717101B87070083374B
:1005700084FDB8D729A8833784FDBC5B812793E726
:1005800017001B870700833784FDB8DB0100832732
:10059000C4FE85272326F4FE8327C4FE1B8707009D
:1005A0009147E3DEE7F2832784FE3E8522744561AE
:1005B0008280397122FC8000233CA4FCAE87368700
:1005C000232AF4FCB2872328F4FCBA872326F4FC00
:1005D00085472324F4FE232604FE89A8832704FDEF
:1005E000812781CB832704FD1B8707008947631779
:1005F000F700833784FD0327C4FC98C3832704FDD9
:100600001B87070085476309F700832704FD1B87C5
:10061000070089476317F700833784FD0327C4FC6D
:1006200098C78327C4FE85272326F4FE8327C4FEAC
:100630008127E355F0FA832784FE3E8562742161A9
:100640008280797122F40018233CA4FC854723267C
:10065000F4FE833784FD984F1367170098CF8337D4
:1006600084FD984F459B98CF833784FD984F13772F
:10067000F7F898CF833784FD944F370700F07D1744
:10068000758F98CF833784FD944F370700F87D1717
:10069000758F98CF833784FD984F1377F7E798CFFE
:1006A000833784FD984F1377F79F98CF833784FD66
:1006B000944F71771307F77F758F98CF833784FD39
:1006C000944F11777D17758F98CF833784FD944FA2
:1006D00001777D17758F98CF833784FD944F370747
:1006E000FCFF7D17758F98CF833784FD944F3707B4
:1006F00090FF7D17758F98CF833784FD944F370710
:1007000080FE7D17758F98CF833784FD944F370710
:1007100000FA7D17758F98CF833784FDD44F7D778E
:10072000758F13675700D8CF833784FDD44F056783
:10073000558FD8CF833784FDB8431377F7F1B8C30B
:10074000833784FDB8431377F7EFB8C3833784FD4D
:10075000B8431377F7BFB8C3833784FDB4437D77BD
:100760001307F77F758FB8C3833784FDB44337070A
:10077000FCFF7D17758FB8C3833784FDB4433707FB
:10078000F8FF7D17758FB8C3833784FDB4433707EF
:1007900000C07D17758FB8C3833784FDB443370716
:1007A00000801347F7FF758FB8C3833784FDF84384
:1007B000799BF8C3833784FDF843759BF8C383376F
:1007C00084FDF8431377F7FDF8C3833784FDF843BE
:1007D0001377F7FBF8C3833784FDF8431377F78764
:1007E00013670708F8C3833784FDF4436177130761
:1007F000F77F758FBA86056713070780558FF8C393
:10080000833784FD3707036198C3833784FD370737
:1008100003611B07071098C78327C4FE3E85227417
:1008200045618280397106FC22F88000233CA4FCDB
:10083000AE873687232AF4FCB2872328F4FCBA87D4
:100840002326F4FC85472326F4FE8327C4FE1B875A
:10085000070085476313F71E832704FD1B870700E6
:10086000A54763E1E720836704FD139727009747B7
:1008700000009387A7ACBA979C431B870700974754
:1008800000009387A7ABBA9782878327C4FE1B8794
:10089000070085476315F71A832744FD0946BE857F
:1008A000033584FDEF00907259AA8327C4FE1B878D
:1008B000070085476317F7180327C4FC832744FD07
:1008C0003A86BE85033584FDEF0050639DAA8327D9
:1008D000C4FE1B87070085476317F7160327C4FC70
:1008E000832744FD3A86BE85033584FDEF00106101
:1008F00099AA8327C4FE1B87070085476317F7144F
:100900000327C4FC832744FD3A86BE85033584FD56
:10091000EF00D05E1DAA8327C4FE1B870700854712
:100920006317F7120327C4FC832744FD3A86BE856C
:10093000033584FDEF00906919AA8327C4FE1B8745
:10094000070085476317F710832744FD0146BE85DE
:10095000033584FDEF00905A0327C4FC832744FD30
:100960003A86BE85033584FDEF00B071DDA0832794
:10097000C4FE1B8707008547631FF70C0327C4FCD1
:10098000832744FD3A86BE85033584FDEF0010576A
:100990000327C4FC832744FD3A86BE85033584FDC6
:1009A000EF00306E4DA88327C4FE1B8707008547E4
:1009B0006315F70A0327C4FC832744FD3A86BE85E6
:1009C000033584FDEF0090530327C4FC832744FDC7
:1009D0003A86BE85033584FDEF00B06ABDA8832743
:1009E000C4FE1B8707008547631BF7060327C4FC6B
:1009F000832744FD3A86BE85033584FDEF00105001
:100A00000327C4FC832744FD3A86BE85033584FD55
:100A1000EF003067A9A08327C4FE1B870700854726
:100A20006311F7040327C4FC832744FD3A86BE857F
:100A3000033584FDEF00F0642DA0010025A0010026
:100A400015A0010005A0010031A8010021A80100A6
:100A500011A8010001A8010031A0010021A001009E
:100A600011A001008327C4FE3E85E270427421611B
:100A70008280797122F40018233CA4FCAE8732876F
:100A8000232AF4FCBA872328F4FC85472324F4FEA8
:100A9000832784FE1B87070085476319F70C2326ED
:100AA00004FEC1A0833784FD9C4F9BD747019D8BDB
:100AB00093F7F70F1B870700832704FD8127638CBB
:100AC000E708832704FD1B8707008947630BF704AA
:100AD000832704FD1B870700894763E1E706832717
:100AE00004FD812789CB832704FD1B8707008547E9
:100AF000630CF700A1A0833784FD944F370790FF64
:100B00007D17758F98CF89A8833784FD944F370759
:100B100090FF7D17758FBA8637071000558F98CFD5
:100B200025A8833784FD944F370790FF7D17758F75
:100B3000BA8637072000558F98CF39A8833784FDB0
:100B4000944F370790FF7D17758FBA8637073000AF
:100B5000558F98CF11A001008327C4FE8527232637
:100B6000F4FE8327C4FE8127E35EF0F2832784FE30
:100B70003E85227445618280397122FC8000233CCD
:100B8000A4FCAE873687232AF4FCB2872328F4FC22
:100B9000BA872326F4FC85472324F4FE832784FEAA
:100BA0001B87070085476312F720232604FECDAA82
:100BB000232204FE832704FD812781CB832704FDA4
:100BC0001B87070089476310F70E833784FD9C4F0E
:100BD0009BD747009D8B93F7F70F1B870700832751
:100BE000C4FC81276381E70C8327C4FC1B870700B3
:100BF000914763EEE7088367C4FC13972700973794
:100C0000000093872776BA979C431B870700973786
:100C1000000093872775BA978287833784FD984FA2
:100C20001377F7F898CF85472322F4FEB5A88337CA
:100C300084FD984F1377F7F81367070198CF85471E
:100C40002322F4FE95A0833784FD984F1377F7F89D
:100C50001367070298CF85472322F4FEB1A083379C
:100C600084FD984F1377F7F81367070398CF8547EC
:100C70002322F4FE15A8833784FD984F1377F7F8E5
:100C80001367070498CF85472322F4FE31A88337E2
:100C900084FD984F1377F7F81367070598CF8547BA
:100CA0002322F4FE11A00100832704FD1B87070007
:100CB00085476309F700832704FD1B8707008947E1
:100CC000631AF70C833784FD9C4F9BD717009D8BCD
:100CD00093F7F70F1B8707008327C4FC8127638BDB
:100CE000E70A8327C4FC1B870700914763E9E708ED
:100CF0008367C4FC13972700973700009387C76763
:100D0000BA979C431B870700973700009387C766F5
:100D1000BA978287833784FD984F459B98CF854744
:100D20002322F4FE8DA8833784FD984F459B1367DB
:100D3000270098CF85472322F4FEB1A8833784FD8E
:100D4000984F459B1367470098CF85472322F4FEB1
:100D500099A0833784FD984F459B1367670098CF10
:100D600085472322F4FE05A8833784FD984F459BD1
:100D70001367870098CF85472322F4FE29A883377D
:100D800084FD984F459B1367A70098CF8547232282
:100D9000F4FE11A001008327C4FE85272326F4FE5C
:100DA0008327C4FE8127E355F0E0832784FE3E8538
:100DB000627421618280797122F40018233CA4FCC2
:100DC000AE873287232AF4FCBA872319F4FC8547BF
:100DD0002324F4FE832784FE1B87070085476315C1
:100DE000F706232604FEA1A8833784FDDC4F3E8747
:100DF0008567FD17F98FC217C1931B8707008357BB
:100E000024FD81276308F702035724FD8567FD173A
:100E1000F98F139707034193833784FDBA860567DB
:100E20007D1733F6E600D44F7D77758FBA8632870B
:100E3000558FD8CF8327C4FE85272326F4FE83272A
:100E4000C4FE8127E352F0FA832784FE3E85227494
:100E500045618280397122FC8000233CA4FCAE876E
:100E60003687232AF4FCB2872328F4FCBA8723268A
:100E7000F4FC85472324F4FE832784FE1B870700A8
:100E800085476311F726232604FE81AC232204FE46
:100E9000832704FD812781CB832704FD1B8707005F
:100EA0008947631EF70E833784FD9C4F9BD7E7006D
:100EB0009D8B93F7F70F1B8707008327C4FC8127BF
:100EC000638FE70C8327C4FC1B870700994763EEF9
:100ED000E70A8367C4FC13972700973700009387BE
:100EE000E74ABA979C431B87070097370000938710
:100EF000E749BA978287833784FD944F11777D172E
:100F0000758F98CF51A8833784FD944F11777D1743
:100F1000758FBA861167558F98CFBDA8833784FD2A
:100F2000944F11777D17758FBA862167558F98CFAB
:100F3000A5A0833784FD944F11777D17758FBA86EE
:100F40003167558F98CF89A8833784FD944F1177E7
:100F50007D17758FBA864167558F98CF35A883372F
:100F600084FD944F11777D17758FBA865167558F21
:100F700098CF1DA0833784FD944F11777D17758F0F
:100F8000BA866167558F98CF01A8833784FD944F47
:100F90007167558F98CF010085472322F4FE832780
:100FA00004FD1B87070085476309F700832704FDBD
:100FB0001B8707008947631DF710833784FD9C4F0B
:100FC0009BD7B7009D8B93F7F70F1B8707008327ED
:100FD000C4FC8127638EE70E8327C4FC1B870700B0
:100FE000994763EBE70C8367C4FC13972700973797
:100FF00000009387673BBA979C431B87070097378E
:1010000000009387673ABA978287833784FD944FAD
:1010100071771307F77F758F98CF45A8833784FDC5
:10102000944F71771307F77F758FBA86056713079B
:101030000780558F98CF51A8833784FD944F7177DF
:101040001307F77F758FBA860567558F98CFB5A8B8
:10105000833784FD944F71771307F77F758FBA86B6
:10106000096713070780558F98CF85A0833784FDC4
:10107000944F71771307F77F758FBA860967558F7D
:1010800098CFA1A0833784FD944F71771307F77F22
:10109000758FBA860D6713070780558F98CF35A0D7
:1010A000833784FD944F71771307F77F758FBA8666
:1010B0000D67558F98CF11A8833784FD944F116722
:1010C00013070780558F98CF010085472322F4FE30
:1010D0008327C4FE85272326F4FE8327C4FE8127A9
:1010E000E356F0DA832784FE3E85627421618280B4
:1010F000397122FC8000233CA4FCAE87232AF4FC37
:10110000B2872328F4FCB6872326F4FCBA8723246D
:10111000F4FC85472324F4FE832784FE1B87070005
:101120008547631FF714232604FEB1A2232204FE81
:10113000832704FD812781CB832704FD1B870700BC
:1011400089476310F706833784FD9C4F9BD797012F
:101150008D8B93F7F70F1B8707008327C4FC81272C
:101160006381E7048327C4FC1B8707008547631F4F
:10117000F700833784FD944F370700FA7D17758F8A
:10118000BA8637070002558F98CF09A8833784FDA8
:10119000944F370700FA7D17758F98CF8547232224
:1011A000F4FE832704FD1B87070085476309F700CA
:1011B000832704FD1B87070089476319F70A8337D4
:1011C00084FD9C4F9BD777018D8B93F7F70F1B877F
:1011D0000700832784FC8127638AE708832784FC30
:1011E0001B8707008947630BF704832784FC1B8751
:1011F0000700894763E1E706832784FC812789CBC1
:10120000832784FC1B8707008547630CF700A1A098
:10121000833784FD944F370780FE7D17758F98CFF5
:1012200099A0833784FD944F370780FE7D17758F13
:10123000BA8637078000558F98CF35A0833784FD55
:10124000944F370780FE7D17758FBA8637070001E8
:10125000558F98CF09A8833784FD944F37078001B5
:10126000558F98CF010085472322F4FE8327C4FEC3
:1012700085272326F4FE8327C4FE8127E358F0EA5E
:10128000832784FE3E85627421618280397122FC4D
:101290008000233CA4FCAE873687232AF4FCB28767
:1012A0002328F4FCBA872326F4FC85472324F4FE84
:1012B000832784FE1B87070085476316F7142326C0
:1012C00004FE2DAA232204FE832704FD812781CB5F
:1012D000832704FD1B8707008947631FF7068337B1
:1012E00084FD9C4F9BD797008D8B93F7F70F1B873F
:1012F00007008327C4FC81276380E7068327C4FC9B
:10130000812789CB8327C4FC1B8707008547630D92
:10131000F7003DA0833784FD984F1377F79F98CF50
:1013200085472322F4FE15A8833784FD984F137751
:10133000F79F1367072098CF85472322F4FE31A833
:10134000833784FD984F1377F79F1367074098CF33
:1013500085472322F4FE11A00100832704FD1B878B
:10136000070085476309F700832704FD1B870700F3
:101370008947631FF706833784FD9C4F9BD777000F
:101380008D8B93F7F70F1B8707008327C4FC8127FA
:101390006380E7068327C4FC812789CB8327C4FCAD
:1013A0001B8707008547630DF7003DA0833784FD49
:1013B000984F1377F7E798CF85472322F4FE15A8B7
:1013C000833784FD984F1377F7E71367070898CFA3
:1013D00085472322F4FE31A8833784FD984F137785
:1013E000F7E71367071098CF85472322F4FE11A073
:1013F00001008327C4FE85272326F4FE8327C4FE2D
:101400008127E351F0EC832784FE3E8562742161DD
:101410008280397122FC8000233CA4FCAE87368791
:10142000232AF4FCB2872328F4FCBA872326F4FC91
:1014300085472324F4FE832784FE1B870700854706
:10144000631EF70A232604FE6DA0232204FE8327D1
:1014500004FD812781CB832704FD1B870700894773
:10146000631CF702833784FDBC439BD73701858B10
:1014700093F7F70F1B8707008327C4FC8127638D31
:10148000E700833784FDB4433707F8FF7D17758F76
:10149000B8C385472322F4FE832704FD1B8707007A
:1014A00085476309F700832704FD1B8707008947E9
:1014B000631CF702833784FDBC439BD72701858BD0
:1014C00093F7F70F1B8707008327C4FC8127638DE1
:1014D000E700833784FDB4433707FCFF7D17758F22
:1014E000B8C385472322F4FE8327C4FE852723261D
:1014F000F4FE8327C4FE8127E359F0F4832784FE9A
:101500003E85627421618280797122F40018233C47
:10151000A4FCAE873287232AF4FCBA872328F4FC84
:1015200085472324F4FE832784FE1B870700854715
:101530006311F706232604FE81A8833784FDFC434C
:101540009BD71700858B93F7F70F1B87070083271F
:1015500004FD81276385E702832704FD1B870700BD
:1015600085476318F700833784FDF843759BF8C3FC
:1015700039A0833784FDF84313672700F8C3832716
:10158000C4FE85272326F4FE8327C4FE8127E35665
:10159000F0FA832784FE3E8522744561828079714A
:1015A00022F40018233CA4FCAE873287232AF4FCE3
:1015B000BA872328F4FC85472324F4FE832784FE7E
:1015C0001B8707008547631CF702232604FE1DA026
:1015D000833784FDFC43858B93F7F70F99C78337D7
:1015E00084FDF84313671700F8C38327C4FE8527DB
:1015F0002326F4FE8327C4FE8127E35BF0FC8327C8
:1016000084FE3E85227445618280397122FC80000F
:10161000233CA4FCAE873687232AF4FCB287232818
:10162000F4FCBA872326F4FC85472324F4FE8327A1
:1016300084FE1B8707008547631CF70A232604FEE8
:101640005DA0232204FE832704FD812781CB83270D
:1016500004FD1B8707008947631CF702833784FD5D
:10166000BC439BD7B700858B93F7F70F1B87070009
:101670008327C4FC8127638DE700833784FDB4434F
:101680007D771307F77F758FB8C385472322F4FE54
:10169000832704FD1B87070085476309F70083271D
:1016A00004FD1B8707008947631AF702833784FD0F
:1016B000BC439BD7A700858B93F7F70F1B870700C9
:1016C0008327C4FC8127638BE700833784FDB843FD
:1016D0001377F7BFB8C385472322F4FE8327C4FEE0
:1016E00085272326F4FE8327C4FE8127E35BF0F4DD
:1016F000832784FE3E85627421618280797122F4A1
:101700000018233CA4FCAE873287232AF4FCBA8756
:101710002328F4FC85472324F4FE832784FE1B87BB
:1017200007008547631EF708232604FE69A02322CD
:1017300004FE832704FD812781CB832704FD1B87BB
:10174000070089476314F702833784FD944F3707F6
:1017500000F07D17758F98CF833784FDB44337072A
:101760000040558FB8C385472322F4FE832704FD2C
:101770001B87070085476309F700832704FD1B8744
:10178000070089476314F702833784FD944F3707B6
:1017900000F07D17758F98CF833784FDB4433707EA
:1017A0000080558FB8C385472322F4FE8327C4FEEB
:1017B00085272326F4FE8327C4FE8127E359F0F60C
:1017C000832784FE3E85227445618280797122F4EC
:1017D0000018233CA4FCAE873287232AF4FCBA8786
:1017E0002328F4FC85472324F4FE832784FE1B87EB
:1017F000070085476311F708232604FE85A82322E6
:1018000004FE832704FD812781CB832704FD1B87EA
:1018100007008947631DF700833784FDB44337070A
:1018200000C07D17758FB8C385472322F4FE832738
:1018300004FD1B87070085476309F700832704FD24
:101840001B8707008947631EF700833784FDB44375
:10185000370700801347F7FF758FB8C385472322EA
:10186000F4FE8327C4FE85272326F4FE8327C4FEC7
:101870008127E356F0F8832784FE3E852274456174
:101880008280797122F40018233CA4FCAE87328751
:10189000232AF4FCBA872328F4FC85472324F4FE8A
:1018A000832784FE1B8707008547631EF7082326CE
:1018B00004FE69A0232204FE832704FD812781CB37
:1018C000832704FD1B87070089476314F7028337CA
:1018D00084FDB443370700C07D17758FB8C38337C5
:1018E00084FD944F37070010558F98CF85472322EA
:1018F000F4FE832704FD1B87070085476309F70073
:10190000832704FD1B87070089476314F702833789
:1019100084FDB443370700C07D17758FB8C3833784
:1019200084FD944F37070008558F98CF85472322B1
:10193000F4FE8327C4FE85272326F4FE8327C4FEF6
:101940008127E359F0F6832784FE3E8522744561A2
:101950008280397122FC8000233CA4FCAE8736874C
:10196000232AF4FCB2872328F4FCBA872326F4FC4C
:1019700085472324F4FE232604FE832784FE1B8749
:1019800007008547631FF704833784FD9C4B8D8BCD
:1019900093F7F70FB9C7832704FD1B870700894713
:1019A000630DF702832704FD1B870700894763EB5C
:1019B000E702832704FD812789CB832704FD1B874A
:1019C000070085476307F70031A8833784FD9C4BE8
:1019D00011A8833784FD9C4B31A0833784FD9C4B39
:1019E00011A00100832784FE1B870700854763162B
:1019F000F708232604FE9DA8833784FD9C4B9BD7C4
:101A0000270081273E878327C4FC81276387E7025D
:101A10008327C4FC9BD727001B870700B70700401C
:101A2000FD17F98F1B870700833784FD1B172700DD
:101A3000944B8D8A558F98CB2DA08327C4FC9BD7C0
:101A400027001B870700B7070040FD17F98F1B878A
:101A50000700833784FD1B172700944B8D8A558F11
:101A600098CB8327C4FE85272326F4FE0327C4FED4
:101A7000832744FD8127E361F7F8832784FE3E85B1
:101A8000627421618280797122F40018233CA4FCE5
:101A9000AE87232AF4FC85472326F4FE833784FD92
:101AA00083A7070E812793E717101B87070083374B
:101AB00084FD23A0E70E8327C4FE3E852274456182
:101AC0008280397122FC8000233CA4FCAE87233441
:101AD000C4FC232AF4FC832744FD8127B9C32326B1
:101AE00004FE35A0033784FD93074700233CF4FC34
:101AF000833784FC938647002334D4FC184398C36F
:101B00008327C4FE8127852781272326F4FE832788
:101B1000C4FE1B870700832744FD8127E364F7FC8D
:101B200011A00100627421618280797106F422F0B3
:101B300000182334A4FEAE8736872322F4FEB28732
:101B40002320F4FEBA87232EF4FC833784FE93B758
:101B5000170093F7F70F99C3FD5789A89387018161
:101B60009C639C6B8146094681453E85EF10A03DF4
:101B7000033584FEEF008032832744FEBE850335A3
:101B800084FEEF004003832704FEBE85033584FEF8
:101B9000EF00000F8327C4FDBE85033584FEEF00F0
:101BA000A018033584FEEF00802181473E85A27096
:101BB000027445618280011122EC00102334A4FEDE
:101BC000AE872322F4FE833784FEDC47812793E728
:101BD00007081B870700833784FED8C797E70000F4
:101BE0009387C74D9843832744FE9B9747008127DF
:101BF000BB57F7028127C217C1939BD78700C21733
:101C0000C1931B870700833784FED8C397E7000082
:101C10009387C74A9843832744FE9B9747008127B1
:101C2000BB57F702812793F7F70F1B87070083370E
:101C300084FE98C3833784FE9C4B812793E717006B
:101C40001B870700833784FE98CB833784FE9C4B29
:101C5000812793E727001B870700833784FE98CBF3
:101C6000833784FEDC47812793F7F7071B8707003C
:101C7000833784FED8C781473E85626405618280D0
:101C8000011122EC00102334A4FEAE872322F4FEBF
:101C9000832744FE1B8707008947630AF7048327CD
:101CA00044FE1B870700894763EFE704832744FE50
:101CB000812789CB832744FE1B8707008547630C58
:101CC000F70091A0833784FEDC471B87070083372A
:101CD00084FED8C7A9A0833784FEDC47812793E719
:101CE00017001B870700833784FED8C70DA88337EA
:101CF00084FEDC47812793E727001B870700833793
:101D000084FED8C729A8833784FEDC47812793E760
:101D100037001B870700833784FED8C7010081473F
:101D20003E85626405618280011122EC001023343B
:101D3000A4FEAE872322F4FE833784FE93B71700F8
:101D400093F7F70F99C3FD57BDA0832744FE812762
:101D500089CB832744FE1B8707008547630CF70068
:101D600035A8833784FEDC471B870700833784FE52
:101D7000D8C789A0833784FEDC471B8707008337D9
:101D800084FED8C7833784FEDC47812793E747006A
:101D90001B870700833784FED8C729A8833784FEB2
:101DA000DC47812793E747001B870700833784FEC2
:101DB000D8C7010081473E856264056182800111B8
:101DC00022EC00102334A4FE833784FE93B717005F
:101DD00093F7F70F81C79307F00F31A0833784FE85
:101DE000054798C781473E8562640561828001117D
:101DF00022EC00102334A4FEAE87A303F4FE833745
:101E000084FE93B7170093F7F70F99C3FD5725A0EA
:101E10000100833784FEDC4B812793F7070281277B
:101E2000EDFB834774FE93F7F70F1B87070083379B
:101E300084FE98C381473E85626405618280797122
:101E400006F422F00018233CA4FC833784FD93B7EA
:101E5000170093F7F70F81C79307F00F1DA8010034
:101E6000833784FDDC4B8127858B8127F5DB833726
:101E700084FD9C432326F4FE8327C4FEBE851725DC
:101E8000000013052554EF0030798327C4FE93F733
:101E9000F70F3E85A270027445618280011122EC29
:101EA00000102334A4FE833784FE93B7170093F702
:101EB000F70F99C3FD5729A8833784FEDC43812798
:101EC00093E707081B870700833784FED8C3814741
:101ED0003E85626405618280011122EC0010AA87B0
:101EE0002326F4FE9387819B254798C3FD573E85A3
:101EF000626405618280011122EC0010AA87233000
:101F0000B4FE2326F4FE8327C4FE1B870700854703
:101F10006309F7008327C4FE1B87070089476318FE
:101F2000F700833704FE0967D8C3814731A0938740
:101F3000819B254798C3FD573E8562640561828079
:101F4000011122EC0010AA872326F4FE85473E8566
:101F5000626405618280011122EC0010AA87AE86BE
:101F600032872326F4FEB6872324F4FEBA87232281
:101F7000F4FE81473E85626405618280397106FC0A
:101F800022F88000AA872338B4FC2334C4FC232E13
:101F9000F4FC8327C4FD812799C3FD5715A083371F
:101FA00004FD2334F4FE9307103E13956701EFF010
:101FB0001FE9AA873E87833784FE2380E700854791
:101FC0003E85E270427421618280011122EC001092
:101FD0002334A4FE97E700009387C70D98638337E7
:101FE00084FE3E979387019C6360F70297E70000A9
:101FF0009387470C9863833784FE3E9797E70100E9
:102000009387478063F4E700FD5705A897E7000032
:102010009387470A9863833784FE3E9797E70000CB
:102020009387470998E397E700009387A708986389
:10203000833784FEB307F040BA973E85626405613A
:102040008280397106FC22F88000AA872338B4FC0C
:102050002334C4FC232EF4FC8327C4FD3E85EF10FB
:102060008007AA8799E3FD57ADA0833704FD23308D
:10207000F4FE233404FEB1A0033704FE833784FE4C
:10208000BA9783C707003E87A9476319F700B5458C
:102090009307103E13956701EFF07FD5033704FED9
:1020A000833784FEBA9783C70700BE859307103E27
:1020B00013956701EFF0BFD3833784FE8507233480
:1020C000F4FE033784FE833784FCE367F7FA833733
:1020D00084FC3E85E270427421618280411122E4D9
:1020E000000897E70000938767FD376762021B07C8
:1020F00007A098C30100226441018280011106EC0F
:1021000022E800102334A4FE2330B4FE833584FE7D
:102110001725000013050552EF001050F327907C9F
:10212000BE808687BE851725000013052552EF0067
:10213000B04EF3271034BE808687BE851725000079
:1021400013054552EF00504DF3273034BE8086878B
:10215000BE851725000013056552EF00F04B01A066
:10216000011122EC0010232604FE1DA01707000019
:10217000130707F997E60000938646F78327C4FE06
:102180008E07B69798E38327C4FE85272326F4FE9F
:102190008327C4FE1B870700B147E3D9E7FC010092
:1021A0000100626405618280797106F422F00018F2
:1021B000233CA4FC2338B4FC833784FD81273E876D
:1021C0008567FD17F98F2322F4FE832744FE1B87C2
:1021D0000700AD4763EEE70017E70000130707F1BC
:1021E000836744FE8E07BA979C632334F4FE3DA0B8
:1021F000832744FE1B8707008567FD17631AF700D6
:1022000097E70000938787EEBC732334F4FE39A070
:10221000970700009387C7EE2334F4FE833784FECC
:1022200081CB833784FE833504FD033584FD82979B
:1022300081473E85A270027445618280797106F4FF
:1022400022F00018972700009387C74B906394678C
:10225000986B9C6F2338C4FC233CD4FC2330E4FEF1
:102260002334F4FE172600001306C642972500000B
:1022700093854543172500001305C543EF00D0396A
:10228000833704FEBE85172500001305A544EF0023
:10229000B03897E70000938767E29C43BE85172517
:1022A00000001305A544EF0030370100A27002744E
:1022B00045618280011122EC0010A30504FEB707DE
:1022C00000680347B4FEA385E7000100B707006874
:1022D000DC43812782178193D5838127BD8B81279A
:1022E000812781272326F4FEB707006883C70700EC
:1022F00013F7F70FB7070068059B1377F70F2380D5
:10230000E700B707006883C7070093F7F70F1B972D
:1023100087011B5787418327C4FE93F7F70F9B97CD
:10232000170093F7F70F9B9787019BD78741F98B8E
:102330009B9787019BD78741D98F1B9787011B5795
:102340008741B70700681377F70F2380E700010084
:102350000100626405618280357122ED26E9001179
:102360002334F4F6AA87232EF4F6AE87A30DF4F6F1
:10237000B287232AF4F6B687230DF4F6BA87A30CA6
:10238000F4F68327C4F71B8707009307E00563E093
:10239000E7028347B4F713F7F70F854763E9E700D0
:1023A000832744F71B8707008D4763F4E700FD5739
:1023B000B1A18347B4F781270327C4F72326E4FAA2
:1023C0002324F4FA370700688367C4FA9387074029
:1023D0008A07BA9783C7270093F7F70FB7060068F5
:1023E000F99B13F7F70F8367C4FA938707408A07AF
:1023F000B6972381E700370700688367C4FA93879D
:1024000007408A07BA9783C7270013F7F70F832778
:1024100084FA93F7F70FB7060068D98F13F7F70F11
:102420008367C4FA938707408A07B6972381E7003A
:1024300001008327C4F7232AF4FA832744F72328CB
:10244000F4FA37070068836744FB938707408A07DD
:10245000BA9783C7270093F7F70FB7060068E59B85
:1024600013F7F70F836744FB938707408A07B697F4
:102470002381E70037070068836744FB93870740A1
:102480008A07BA9783C7270013F7F70F832704FB40
:1024900093F7F70F9B97170093F7F70FB7060068AE
:1024A000D98F13F7F70F836744FB938707408A0799
:1024B000B6972381E70001008327C4F72328F4FCA3
:1024C0008347A4F7A307F4FCB707006883C7070096
:1024D00093F7F70F85838127BD8B8127812781277C
:1024E0002307F4FCB7070068DC4381278217819338
:1024F000D5838127BD8B812781278127A306F4FC03
:102500008347E4FC93F7F70FEDCF0347E4FC8347E1
:10251000D4FC1377F70F93F7F70F63F6E7008347C1
:10252000D4FC2307F4FC8347E4FC81270547BB1751
:10253000F700812793F7F70FFD372306F4FC0347D5
:10254000F4FC8347C4FC1377F70F93F7F70F63F698
:10255000E7008347C4FCA307F4FC8347F4FC1B8714
:1025600007008347E4FC8127A146BB87F64081270B
:10257000BB17F7008127A305F4FC832704FD232262
:10258000F4FC37070068836744FC938707408A0799
:10259000BA9783C7370093F7F70FA301F4FC83477B
:1025A00034FC1B8707008347E4FC8127BB17F70037
:1025B0008127A301F4FC834734FC1B870700834772
:1025C000E4FC8127BB57F7408127A301F4FC0347B4
:1025D000B4FC834734FCD98F93F7F70F032704FD2E
:1025E000232EE4FAA30DF4FA370700688367C4FBCF
:1025F000938707408A07BA970347B4FBA381E70094
:1026000011A001008327C4F72326F4FE834794F723
:10261000A305F4FEB707006883C7070093F7F70F19
:1026200085838127BD8B8127812781272305F4FEA0
:10263000B7070068DC43812782178193D583812700
:10264000BD8B812781278127A304F4FE0347A4FEC5
:10265000834794FE1377F70F93F7F70F6370F71222
:10266000834794FE1B8707008347A4FE8127BB078F
:10267000F74081270547BB17F700812793F7F70F2E
:10268000FD372304F4FE0347B4FE834784FE13772B
:10269000F70F93F7F70F63F6E700834784FEA30570
:1026A000F4FE8347B4FE1B870700834794FE81270F
:1026B000A146BB87F6408127BB17F7008127A305FA
:1026C000F4FE834794FE81271307F00FBB57F740B2
:1026D0008127A303F4FE0347B4FE834774FED98F1A
:1026E000A305F4FE8327C4FE2320F4FE3707006809
:1026F000836704FE938707408A07BA9783C737002A
:1027000093F7F70FA30FF4FC8347F4FD1B87070033
:102710008347A4FE8127A146BB87F6408127BB578C
:10272000F7408127A30FF4FC8347F4FD1B870700C4
:102730008347A4FE8127A146BB87F6408127BB17AC
:10274000F7008127A30FF4FC0347B4FE8347F4FD91
:10275000D98F93F7F70F0327C4FE232CE4FCA30BB8
:10276000F4FC37070068836784FD938707408A0776
:10277000BA97034774FDA381E70001000100833786
:1027800084F68DCF833784F60327C4F72322E4FA37
:10279000233CF4F8F3277030BE84A6872334F4F882
:1027A000832744FA9B97370081273E87833784F835
:1027B000BA973E87833784F91CE301008327C4F767
:1027C000232AF4F837070068836744F993870740A2
:1027D0008A07BA9783C7170093F7F70FB706006801
:1027E00093E7170013F7F70F836744F993870740C0
:1027F0008A07B697A380E700010081473E856A6497
:10280000CA640D618280411106E422E0000881461D
:102810000D46F167938507209307103E13956701D6
:10282000EFF0AFB0EFF09FA1EFF09F93EFF09FA814
:102830000100A260026441018280011122EC0010BB
:10284000AA872326F4FE010062640561828041119B
:1028500022E400080100226441018280411122E447
:1028600000080100226441018280011106EC22E887
:102870000010172500001305E5EAEF00E0591725C1
:1028800000001305A5EBEF002059232604FE91A2BA
:102890000327C4FEB7C740189B870708B99F812745
:1028A0009B97270081279C43BE85172500001305B1
:1028B000E5EBEF0060560327C4FEB7C740189B87BF
:1028C000070CB99F81279B97270081279C43BE85D2
:1028D00017250000130585EBEF0000540327C4FE05
:1028E000B7C740189B870710B99F81279B97270080
:1028F00081279C43BE8517250000130525EBEF00BB
:10290000A0510327C4FEB7C740189B870714B99F7F
:1029100081279B97270081279C43BE8517250000B0
:102920001305C5EAEF00404F0327C4FEB7C74018A0
:10293000B99F81279B97270081279C43BE85172538
:1029400000001305A5EAEF00204D0327C4FEB7C71A
:1029500040189B870704B99F81279B9727008127F1
:102960009C43BE85172500001305C5EAEF00C04A49
:102970000327C4FEB7C74018B99F81279B9727003C
:10298000812794430327C4FEB7C740189B870704D9
:10299000B99F81279B97270081279C43368763191E
:1029A000F70017250000130565E9EF00205939A04D
:1029B00017250000130505EAEF0040581725000011
:1029C0001305C5EAEF0040458327C4FE852723266B
:1029D000F4FE8327C4FE1B8707009147E3DAE7EA8A
:1029E00001A0357106ED22E90011A14073B0007D10
:1029F000970700009387A7E705478546014681456D
:102A000013051004EFF05F95A14073A000300100A2
:102A10008545B7870F009387D7041395C700EFD07C
:102A20007FA101468545B717E0039387B734139517
:102A30006700EFD0FFA6B706036101468545B7875B
:102A40000F009387D7041395C700EFD09FB6B70741
:102A500003619386071005468545B7870F00938766
:102A6000D7041395C700EFD0DFB4B7870F00938763
:102A7000D7041395C700EFD0DFBC894625468545AE
:102A8000B7870F009387D7041395C700EFD09FD95E
:102A900001468545B7870F009387D7041395C70074
:102AA000EFD03FFD894609468545B7870F009387DC
:102AB000D7041395C700EFE02F8C29468545B787CB
:102AC0000F009387D7041395C700EFE0CFAE894678
:102AD00009468545B7870F009387D7041395C7002C
:102AE000EFE04FB70147814609468545B7870F009C
:102AF0009387D7041395C700EFE08FDF814609461F
:102B00008545B7870F009387D7041395C700EFE07B
:102B1000EFF7814609468545B7870F009387D704AD
:102B20001395C700EFE07FAE814609468545B7871C
:102B30000F009387D7041395C700EFE09F8D0146E0
:102B40008545B7870F009387D7041395C700EFE03B
:102B5000BF9B01468545B7870F009387D704139520
:102B6000C700EFE0DFA38545B717E0039387B734CD
:102B700013956700EFE03FF1B707036193860720E5
:102B800001468545B7870F009387D7041395C70083
:102B9000EFE03FDC97270000938747CE03BE070096
:102BA00003B3870083B8070103B8870188738C7764
:102BB000907B947FB863BC67233CC4F7233064F8F0
:102BC000233414F9233804F9233CA4F82330B4FA4D
:102BD0002334C4FA2338D4FA233CE4FA2330F4FC37
:102BE000232A04F635A0832744F78127032744F7D7
:102BF0000127821781938A07930604FFB69723ACB7
:102C0000E7FC832744F7812785278127232AF4F6C9
:102C1000832744F781273E87A547E3F6E7FC930720
:102C200084FC37060361A9453E85EFE09FE9232830
:102C300004F6DDA8232604F6A9A8832704F7812734
:102C40000327C4F601278326C4F61B8606009316C5
:102C500007028192139707020193BA878A07BA97EE
:102C6000B6978A07130704FFBA9783A787F81B87CD
:102C700007009317060281938A07930604FFB6970D
:102C800023ACE7FC8327C4F68127852781272326E9
:102C9000F4F68327C4F681273E879147E3FFE7F8E0
:102CA000832704F78127BE8609476382E604BE8630
:102CB00009476369D70491C73E878547630EF700CC
:102CC00091A0130784FCB70703611386072095457D
:102CD0003A85EFE01FDF91A0130784FCB70703617B
:102CE0001386073095453A85EFE0BFDD3DA0130719
:102CF00084FCB70703611386074095453A85EFE0EA
:102D00005FDC21A8130784FCB70703611386075013
:102D100095453A85EFE0FFDA0100832704F7812724
:102D2000852781272328F4F6832704F781273E8708
:102D30008D47E3F1E7F0B717E0039387B7341395B6
:102D40006700EFD04FE78545B717E0039387B734A7
:102D500013956700EFD0EFE881473E85EA604A644B
:102D60000D618280AA858146014601456F000054AD
:102D70000111972700009387E7C922E81724000074
:102D8000130444C91D8C26E406EC0D84BE8419E4AA
:102D90004264E260A26405616FF05FAC7D1493173A
:102DA0003400A6979C638297DDB701119727000036
:102DB000938747C622E8172400001304A4C51D8C7E
:102DC00026E44AE006EC0D8481443E89639884023F
:102DD000EFF0FFA7972700009387C7C317240000D1
:102DE000130444C31D8C0D8481443E89639F840079
:102DF000E2604264A26402690561828093973400B4
:102E0000CA979C6385048297D1B793973400CA9779
:102E10009C6385048297D9BF597122F006F42A84F5
:102E20002EFCB2E0B6E4BAE8BEECC2F0C6F403B5DC
:102E3000018119C51C5989E72AE4EF000075226554
:102E40000C693418228636ECEF00D047A270027469
:102E500065618280797126EC4AE806F422F04EE43E
:102E600052E0AA842E8909C51C5999E3EF00E0714C
:102E70009C58806881E72685EF0020719727000025
:102E8000938747A8631FF402806483570401A18BD2
:102E9000A9CB1C6CB9C7FD59294A58448345090080
:102EA0009B07F7FF3E87A1ED5CC463D1070822862C
:102EB000A9452685EF006022FD576309F5022945E3
:102EC0003DA097270000938767A76314F4008068EC
:102ED0006DBF972700009387679FE318F4FA806C13
:102EE0006DB7A2852685EF00A02B55D57D55A27024
:102EF0000274E2644269A269026A4561828058C430
:102F0000050963D70700185463CBE70063894501BF
:102F10001C601387170018E02380B700BDBF22860E
:102F20002685EF00801BE31A35F7C9B71C601387AD
:102F3000170018E029472380E70051B7AA8503B599
:102F400001816FF03FF15D71A2E026FC4AF84EF47A
:102F500052F086E456EC83B901812A842E89328AA4
:102F6000B6846388090083A7090381E74E85EF00D3
:102F7000C061972700009387E7986313F40C03B4AC
:102F800089008947630AFA0085477D5563E1470B4D
:102F90009397040263CD0708A2854E85EF00C04CCD
:102FA0002C7091C99307C4076385F5004E85EF0027
:102FB00070102330040683570401232404022324C1
:102FC000040093F7070889C70C6C4E85EF00900E3C
:102FD000835704017D771307C735F98F2318F40051
:102FE00089476303FA0E54003000A2854E85EF0036
:102FF0004071835704015D8D2318A400A5E4A264E9
:103000002685EF00E07F2A894DE9A26A63919A0A3A
:103010007D55835704012326040093E727002318D6
:10302000F4009307F4071CE01CEC85471CD0A66055
:103030000664E2744279A279027AE26A616182806E
:10304000972700009387878F6315F40003B4090165
:103050000DBF9727000093876787E314F4F203B44A
:10306000890105B7E30E09F883A7090381E74E85B7
:10307000EF00A05185476318FA008357040193E7D6
:1030800017002318F40083570401812423302401FE
:10309000233C240104D013F787001DCB858B9DC7EB
:1030A000BB0490402326040004D4014549B756854B
:1030B000EF0000752A89D68421DD8357040193E748
:1030C00007082318F4004DB70145A1B744C4F1BF68
:1030D00023260400D9BF6FE0BFE6797122F026EC09
:1030E0004AE806F44EE4AA842E89328409C51C59A4
:1030F00099E3EF008049972700009387A780631A20
:10310000F40680641C545CC483570401A18BD1C3B2
:103110001C6CC1C31C6C08609379F90F4E891D9D0E
:103120001C506347F500A2852685EF00E0333DE59E
:103130005C440525FD375CC41C601387170018E04C
:10314000238037011C506389A70083570401858BB6
:1031500089CBA9476317F900A2852685EF00C03007
:1031600015EDA2700274E264A2694A854269456164
:103170008280971700009387677C6314F40080684F
:1031800051B79717000093876774E31DF4F6806CBE
:1031900095BFA2852685EF00A0002DDD7D59D1B712
:1031A000011122E826E44AE006EC83B401812A8971
:1031B0002E8491C49C5881E72685EF00003D971727
:1031C0000000938727746317F40280648317040157
:1031D0001397070393F687004193B5EA93760701A7
:1031E00095EA25472320E90093E707042318F40014
:1031F0007D5545A097170000938747746314F4002A
:103200008068E9B7971700009387476CE310F4FCD8
:10321000806C6DBF118B15C72C7091C99307C407C3
:103220006385F5004A85EF00E06823300406835784
:1032300004012324040093F7B7FD2318F4001C6C49
:103240001CE08357040193E787002318F4001C6CEB
:1032500089EF835704011307002093F7072863863B
:10326000E700A2854A85EF00804F8317040113977A
:10327000070393F6170041939DC2145023260400C0
:10328000BB06D04014D4146C014581E613770708BF
:1032900021FFE2604264A264026905618280937644
:1032A0002700014691E2105050C4F1BFAA8817D5FB
:1032B0000000130525E21C6191EF1387018A18E1D4
:1032C00017D5FF9E130505D4BA8709C51C6123389D
:1032D000F710BA8798477D487D556347E804638DAA
:1032E000080203B80711630108041315370042955B
:1032F00010E10323082005463B16E6003363C300B4
:10330000232068202330D51089466397D800832670
:103310004820558E2322C8209B06170009070E0758
:1033200094C7BA978CE30145828083D705017971F0
:1033300022F026EC06F44AE84EE413F78700AA844C
:103340002E8479EF9845634DE000B85D634AE00054
:103350000145A2700274E2644269A26945618280FB
:1033600038687DD703A904009396370323A004008F
:1033700063DE0606506C83570401918B99C71C4489
:103380001D8E3C7099C33C5C1D8E3C680C7C814654
:1033900026858297FD5703570401631DF50094406D
:1033A000F54763E9D706B70740208507B3D7D700AD
:1033B000858BADC31C6C232404001CE093173703DA
:1033C00063D80700FD576314F5009C4091E348EC77
:1033D0002C7023A02401ADDD9307C4076385F5009D
:1033E0002685EF00204D233004069DB70C7C014656
:1033F000854626850297FD572A86E31EF5F69C40F2
:10340000BDDB75476385E70059476394E70423A054
:1034100024013DBF136707042318E4007D5515BF41
:1034200083B98501E38609F203B905008D8B23B0CA
:1034300035013B093941014791E3985158C4E3599B
:1034400020F13C640C7CCA864E86268582976349AF
:10345000A0008357040193E707042318F4007DBFFD
:10346000AA993B09A940E1BF9C6DADC3011122E8B7
:1034700006EC2A8419C51C5989E72EE4EF00E010F8
:10348000A265971700009387E747639CF5000C64DB
:10349000839705019DC722854264E26005616FF054
:1034A000DFE897170000938767496394F5000C687D
:1034B000C5B79717000093876741E39BF5FC0C6C39
:1034C000C1BFE2604264014505618280014582809E
:1034D000411122E006E42A842318B5002319C5000F
:1034E00023300500233405002326050A233C05006C
:1034F0002320050223240502214681451305450AA0
:10350000EF00A030971700009387A7893CE097173A
:1035100000009387278C3CE4971700009387A790BF
:103520003CE89717000093878793A26000FC3CEC6F
:1035300002644101828097050000938525F36F00A6
:103540008015011126E41306000B9B84F5FFB3845C
:10355000C4024AE02E8922E806EC9385840CEF0031
:1035600000402A8401CD2330050023242501610574
:1035700008E81386040B8145EF002029E2602285CC
:103580004264A2640269056182801C59BDE7411151
:1035900022E006E497070000938727FA3CE52330F2
:1035A0000508232405082338050883B781812A8468
:1035B0006314F50085471CD92285EF00200408E438
:1035C0002285EF00A00308E82285EF00200308EC25
:1035D000086401469145EFF0BFEF08680546A54530
:1035E000EFF01FEF086C0946C945EFF07FEE854705
:1035F000A2601CD80264410182808280011126E40D
:1036000083B481819C584AE006EC22E82A8981E74C
:103610002685EFF09FF79384040880689C44FD376B
:1036200063D607009C60A9CF8460C5BF031704015F
:1036300029E7C17785272326040A23300400233491
:1036400004001CC8233C0400232004022324040299
:10365000214681451305440AEF00201B2330040650
:10366000232404062330040823240408E26022856E
:103670004264A2640269056182801304040B45B7A9
:1036800091454A85EFF0FFEB88E02A8451FDB14770
:103690002320F900E1BF5D71A2E026FC4EF452F058
:1036A0005AE85EE486E44AF856ECAA892E8A930426
:1036B00005080144054BFD5B03B9040183AA84009E
:1036C000FD3A63D00A028460E5F8A66022850664AC
:1036D000E2744279A279027AE26A426BA26B61617A
:1036E000828083570901637BFB008317290163876D
:1036F0007701CA854E85029A498C01241309090B6A
:10370000C1B77571CAF82E898395250122E1A6FCFF
:1037100006E53284B68463DC05008357090123A0E3
:10372000040093F7070895E3930700400DA03000CD
:10373000EF006078E34305FEB2473D67F98F096704
:10374000998F93B717009CC0C5B793070004AA6070
:103750001CE00A64E674467901454961828083D79A
:103760000501797122F006F426EC4AE8898B2E8453
:1037700089CF9307F4071CE01CEC85471CD0A2708E
:103780000274E264426945618280540030002A89F3
:10379000EFF03FF7A265AA844A85EF00401C01EDD7
:1037A0008317040113F7072079FBF19B93E72700A8
:1037B0002318F4007DBF97070000938707D82334B0
:1037C000F9048357040108E008EC93E7070823187D
:1037D000F400A2671CD0924791CF831524014A853B
:1037E000EF00007001C983570401F19B93E71700B4
:1037F0002318F40003550401C98C2318940041B721
:10380000AA8503B501816F0080153D432A87637146
:10381000C3029377F700C1E3BDE1937606FF3D8ACB
:10382000BA960CE30CE74107E36DD7FE11E2828004
:10383000B306C3408A069702000096966780A600EA
:103840002307B700A306B7002306B700A305B700F8
:103850002305B700A304B7002304B700A303B700F0
:103860002303B700A302B7002302B700A301B700E8
:103870002301B700A300B7002300B700828093F5AF
:10388000F50F93968500D58D93960501D58D93966A
:103890000502D58D59B7939627009702000096969A
:1038A0008682E78026FA9680C1171D8F3E96E371C7
:1038B000C3F89DB7C5C583B785FF011122E806ECA3
:1038C000138485FF63D307003E942AE4EF00206849
:1038D00017D70000130787801C6322653A8689EB9F
:1038E0002334040000E34264E26005616F00406637
:1038F000637EF40014603307D4006396E700986396
:103900009C67369718E01CE400E2F1BF3E879C6795
:1039100099C3E37DF4FE14633306D700631F86006A
:103920001060B29614E33306D700E39EC7FA9063A3
:103930009C67B29614E31CE77DB76375C400B1477A
:103940001CC155B71060B306C4006396D7009463DA
:103950009C67B29614E01CE400E771B782809387FD
:1039600075007971E19B26EC4AE806F422F04EE4FA
:10397000A1074147AA84414963E3E7003E8937072D
:1039800000801347F7FF6364F700637CB900B14719
:103990009CC00145A2700274E2644269A26945615B
:1039A00082802685EF00A05A97C70000938707738F
:1039B0009863BE863A840DE817C40000130484722D
:1039C0001C6091E781452685EF00E03A08E0CA8552
:1039D0002685EF00403AFD59631E3505B1479CC06E
:1039E0002685EF00E05675B71C60BB87274163C092
:1039F00007043D466357F6001CE03E942330240143
:103A000029A01C64631387029CE22685EF004054C2
:103A10001305F400930784006199BB07F540BDDBF3
:103A20003E94BB07F0401CE0B5B71CE7F9BF228706
:103A3000006451B7130475006198E30185FCB30578
:103A4000A4402685EF002033E31A35FB41BF5C46D6
:103A5000FD375CC6939607021B87070063DA0600F2
:103A60001C566345F700A9476394F5006FF0EFE635
:103A70001C622E851387170018E22380B70082800E
:103A8000797122F026EC4AE84EE452E006F42A89E5
:103A9000AE893284B304D6007D5A63149400014584
:103AA00011A8834504004E864A85EFF05FFA0504AD
:103AB000E31545FFA2700274E2644269A269026ADA
:103AC000456182805571A2E126FD4AF94EF552F119
:103AD00086E556ED5AE95EE562E1E6FCEAF8AA8978
:103AE000AE8432893684014A09C51C5999E3EFF046
:103AF000DFA9971700009387E7E0639EF40C83B477
:103B0000890083D70401A18BEDCB9C6CFDC7930783
:103B10000002A304F102FD5A9307000302D2230519
:103B2000F10222E4930B5002139C0A02171B0000BF
:103B3000130B4BE4854C4A848347040099C363927A
:103B4000770F3B0D2441630E0D00EA864A86A68559
:103B50004E85EFF0FFF2630D551F9257BB87A7010B
:103B60003ED2834704006385071E1309140062E8F0
:103B700002ECA309010482D48345090015465A8545
:103B8000EF00403B1304190059EDC24713F707013A
:103B900009C713070002A309E10413F7870009C747
:103BA0001307B002A309E104834609001307A0022A
:103BB0006384E608F2474A8481462546294803473C
:103BC0000400130514009B0507FD2E87637BB60ACE
:103BD000A5CE3ECE95A897170000938727D663956C
:103BE000F40083B4090131BF97170000938707CE13
:103BF000E399F4F083B4890129B7A6854E85EFF0E7
:103C00002FDA11D57D55AE600E64EA744A79AA792F
:103C10000A7AEA6A4A6BAA6B0A6CE67C467D69619D
:103C20008280050411BFC247330565413B95AC0056
:103C30005D8D2AC8228989B72267930687001843B9
:103C400036E4634907023ACE034704009307E002D3
:103C50006311F706034714009307A002631BF702E2
:103C6000A2670904138787009C433AE463C10702F3
:103C70003ECA81A03B07E04093E727003ACE3EC80A
:103C8000E1B7BB07F8022A848546B99F0DBFFD57EF
:103C9000C5B7050402CA814681472546294803471E
:103CA0000400130514009B0507FD2E87637BB606F1
:103CB000E1F2834504000D4617150000130505CCFD
:103CC000EF00402711CD97170000938727CB1D8D5C
:103CD000930700043B95A700C24705045D8D2AC8E1
:103CE000834504001946171500001305A5C91309DB
:103CF00014002304B102EF00E0233DC197C7FF9EEB
:103D0000938747309DE74247A2671377071005C3A3
:103D1000BD07C19BC1073EE49257BB8747013ED216
:103D200019BDBB07F8022A848546B99F8DBFA1073C
:103D3000DDB73800970600009386C6D426860C08A7
:103D40004E8597000000E70000002A8AE31655FD23
:103D500083D7040193F70704E39607EA125565B584
:103D60003800970600009386E6D126860C084E851B
:103D7000EF008030D9BF411122E02A842E8523AC88
:103D8000019A06E4EFE06FA4FD576316F50083A7E0
:103D9000819B91C31CC0A2600264410182804111D9
:103DA00022E02E848395250106E4EF000056634946
:103DB00005005C6CAA975CECA26002644101828001
:103DC000835704017D777D17F98F2318F400EDB731
:103DD00083D70501797122F026EC4AE84EE406F417
:103DE00093F70710AA842E843289B68999C78395E0
:103DF000250189460146EF002011835704017D7794
:103E00007D17F98F831524012318F4000274A27022
:103E1000CE864A86A26942692685E26445616F00C2
:103E20004004411122E02E848395250106E4EF0031
:103E3000A00DFD5703570401631BF500FD77FD1727
:103E4000F98F2318F400A260026441018280856723
:103E5000D98F2318F40048ECFDB7839525016F0036
:103E60000003411122E02A842E85B285368623ACD8
:103E7000019A06E4EFE0EF9CFD576316F50083A777
:103E8000819B91C31CC0A2600264410182804111E8
:103E900022E02A842E8523AC019A06E4EFE0CF834A
:103EA000FD576316F50083A7819B91C31CC0A260D8
:103EB000026441018280411122E02A842E85B2856C
:103EC00023AC019A06E4EFE00F83FD576316F5007B
:103ED00083A7819B91C31CC0A260026441018280C0
:103EE000411122E02A842E8523AC019A06E4EFE0FA
:103EF0002F85FD576316F50083A7819B91C31CC0D6
:103F0000A260026441018280411122E02A842E8550
:103F1000B285368623AC019A06E4EFE0CF83FD57E5
:103F20006316F50083A7819B91C31CC0A260026445
:103F30004101828093F5F50F2A966314C50001456F
:103F4000828083470500E38DB7FE0505FDB78280BB
:103F500082805D719C4952F03A8A9845A2E04AF805
:103F60004EF456EC3289B68A86E426FC5AE85EE4C2
:103F70001B8607009B060700AA892E846353D60080
:103F8000BA872320F9000347340401C7852723207B
:103F9000F9001C4093F7070291C78327090089277E
:103FA0002320F9000440998891E8130B9401FD5BEC
:103FB0005C4403270900999F63C1F40683473404D6
:103FC0003337F000B336F0001C4093F70702BDEB27
:103FD00013063404D6854E85029AFD576306F50410
:103FE0001C4011465444998B03270900814463996E
:103FF000C700BB84E6409397040263D30700814463
:104000001C4418486354F700999FBD9C01496904FA
:104010007D5B639A2405014509A885465A86D685A5
:104020004E85029A631E75017D55A6600664E27492
:104030004279A279027AE26A426BA26B6161828064
:104040008524BDB7B307D40093060003A381D7042A
:104050001B0617009B06270003475404B307C40040
:10406000A381E704B5B785462286D6854E85029A98
:10407000E30C65FB052971BF5D71A2E04AF84EF4BF
:1040800052F086E426FC56EC5AE82E84368A938653
:10409000350483C58501930780072A89B28963ECBB
:1040A000B7009307200663EDB7006388051C9307EC
:1040B00080056380F514930424042301B40415A837
:1040C0009B87D5F993F7F70F5546E366F6FE17166B
:1040D00000001306A68E8A07B2979C43B297828788
:1040E0001C6393042404938687009C4314E32301F8
:1040F000F40485477DAA10401C6313750608938558
:1041000087000DC19C630CE363D807001307D0023E
:10411000B307F040A301E404171600001306068756
:1041200029473DA8137606040CE301C683970700D0
:10413000E1BF9C43D1BF10401C6313780608138570
:104140008700630D08089C6308E31307F006171641
:1041500000001306A6836384E5102947A301040425
:104160004C400CC463C5050008406D9908C099E334
:10417000B68499CDB684B3F5E702FD14B29583C534
:1041800005002380B400BE85B3D7E702E3F5E5FE62
:10419000A147631EF7001C40858B91CB58401C48FB
:1041A00063C7E70093070003A38FF4FEFD14858E19
:1041B00014C85287CE867000A2854A85EFF07FD959
:1041C000FD5A631C550F7D55A6600664E274427962
:1041D000A279027AE26A426B616182809C43137623
:1041E000060408E301C6C217C19385B782178193FD
:1041F000A9BFA302B40417060000130626790C40D9
:104200001C6313F8050813858700630E08029C637E
:1042100008E313F7150001C793E505020CC04147F9
:1042200095FF0C4093F5F5FD0CC00DBF1C4093E7C6
:10423000070A1CC093078007A302F40417060000B6
:10424000130646766DBF9C4313F8050408E3630527
:104250000800C217C19375BF821781935DBF2147C4
:10426000F5BD10401C634C48137806081385870081
:104270006309080008E39C638CE323280400B684E8
:104280000DBF08E3137606049C6301C62390B700B4
:10429000EDB78CC3DDB71C63504081459386870022
:1042A00014E384632685EFF0FFC819C1058D48C06B
:1042B0005C401CC8A3010404EDBD14482686CE85CD
:1042C0004A85029AE30155F11C40898B95EBB24770
:1042D00048441B8707009B06050063D3E6003E8524
:1042E0000125DDB585465686CE854A85029AE30CC2
:1042F00065ED85245C443247999FE3C5F4FEC1BF58
:104300008144930A94017D5BF5B7411122E02A8430
:104310002E85B285368623AC019A06E4EFD01FC6FF
:10432000FD576316F50083A7819B91C31CC0A26053
:06433000026441018280DD
:1043380052C5FFFF72C5FFFF96C5FFFFBAC5FFFF55
:10434800DEC5FFFF02C6FFFF36C6FFFF6EC6FFFFD2
:10435800A6C6FFFFDEC6FFFFBAC8FFFFCEC8FFFF35
:10436800E6C8FFFFFEC8FFFF16C9FFFFA0C9FFFF91
:10437800B2C9FFFFC8C9FFFFDEC9FFFFF4C9FFFFCD
:104388006ECBFFFF7ECBFFFF94CBFFFFAACBFFFFD7
:10439800C0CBFFFFD6CBFFFFECCBFFFF66CCFFFF08
:1043A80078CCFFFF94CCFFFFACCCFFFFC8CCFFFF5D
:1043B800E0CCFFFFFCCCFFFF7265675F696E746538
:1043C800727275707420252E32780D0A0000000074
:1043D80074687265206D6F64652069732064697301
:1043E80061626C6500000000796F7520646D612062
:1043F80068616E647368616B65206572726F7200C4
:1044080054585F444D415F4D4F4445000000000043
:1044180052585F444D415F4D4F4445000000000035
:10442800436C65617220746F2073656E64206F72CF
:1044380020646174612073657420726561647920F9
:104448006F722072696E6720696E64696361746F48
:1044580072206F7220646174612063617272696591
:104468007220646574656374000000000000000039
:104478005472616E736D697474657220686F6C64D0
:10448800696E6720726567697374657220656D70FF
:104498007479206F7220584D4954204649464F2060
:1044A8006174206F722062656C6F77207468726522
:1044B80073686F6C640000004E6F206368617261FE
:1044C800637465727320696E206F72206F75742033
:1044D8006F66207468652052435652204649464FFD
:1044E80020647572696E6720746865206C617374E6
:1044F8002034206368617261637465722074696D29
:10450800657320616E642074686572652069732024
:104518006174206C65617374203120636861726115
:104528006374657220696E20697420647572696E9F
:104538006720746869732074696D65000000000065
:10454800526563656976657220646174612061767D
:1045580061696C61626C6520286E6F6E4649464FD2
:10456800206D6F6465206F72204649464F73206442
:10457800697361626C656429206F722052435652D8
:10458800204649464F2074726967676572206C65DA
:1045980076656C20726561636865640000000000E0
:1045A8004F76657272756E2F7061726974792F20FB
:1045B8006672616D696E67206572726F7273206FC3
:1045C8007220627265616B20696E746572727570B3
:1045D80074000000000000006669666F2065727252
:1045E8006F72206F72206669666F206E6F7420622A
:1045F8006520656E61626C650000000000000000C7
:10460800464C415348584950000000000000000043
:10461800464C415348000000494C4D000000000042
:1046280044445200000000004D4341555345203A90
:10463800203078256C780D0A00000000000000008A
:104648004D4443415553453A203078256C780D0A3E
:1046580000000000000000004D4550432020203A93
:10466800203078256C780D0A00000000000000005A
:104678004D5456414C20203A203078256C780D0A4C
:10468800000000000000000031363A33383A313279
:104698000000000000000000466562203231203230
:1046A80030323200000000004E75636C656920539B
:1046B800444B204275696C642054696D653A202525
:1046C800732C2025730D0A00446F776E6C6F61643C
:1046D800204D6F64653A2025730D0A000000000024
:1046E800435055204672657175656E637920256C57
:1046F8007520487A0D0A0000084600610000000095
:10470800184600610000000020460061000000001B
:104718002846006100000000656E7465725F69726A
:10472800715F7375636573730A0D00000000000004
:10473800444D41435F4D454D324D454D5F4C4C50C6
:104748005F4D4F444520686173206265656E206344
:104758006F6D706C657465640A0D000000000000E0
:104768006F636D5F64617461204C4C505F315F41D1
:10477800444452203D20252E32780D0A00000000C6
:104788006F636D5F64617461204C4C505F325F41B0
:10479800444452203D20252E32780D0A00000000A6
:1047A8006F636D5F64617461204C4C505F335F418F
:1047B800444452203D20252E32780D0A0000000086
:1047C8006F636D5F64617461204C4C505F345F416E
:1047D800444452203D20252E32780D0A0000000066
:1047E8006F636D5F64617461204D454D5F42415355
:1047F80045315F41444452203D20252E32780D0A30
:1048080000000000000000006F636D5F6461746168
:10481800204D454D5F42415345325F41444452204B
:104828003D20252E32780D0A00000000000000000F
:10483800646D61635F7472616E736D697373696FC0
:104848006D5F706173730D00646D61635F74726195
:104858006E736D697373696F6D5F6661696C0D0066
:104868007665727920676F6F6400000000000000B1
:10487800000003610001036100030361254800187B
:1048880008000000000003610001036100040361E7
:1048980025480018080000000000036100010361BA
:1048A80000050361254800000800000000000361BE
:1048B80000010361000603612548000008000000AC
:1048C80000000000000000000000000000000000E0
:1048D80000000000000000000000000000000000D0
:1048E80000000000000000000000000000000000C0
:1048F80000000000000000000000000000000000B0
:10490800000000000000000000000000000000009F
:10491800000000000000000000000000000000008F
:10492800000000000000000000000000000000007F
:10493800000000000000000000000000000000006F
:10494800000000000000000000000000000000005F
:10495800000000000000000000000000000000004F
:104968000000000000000000232D302B2000000074
:10497800686C4C000000000065666745464700000B
:10498800303132333435363738394142434445467D
:104998000000000000000000303132333435363773
:1049A8003839616263646566000000000000000039
:1049B80028F7FFFF3EF7FFFFFEF6FFFFFEF6FFFFBB
:1049C800FEF6FFFFFEF6FFFF3EF7FFFFFEF6FFFFD6
:1049D800FEF6FFFFFEF6FFFFFEF6FFFFAAF8FFFF59
:1049E8007EF7FFFF74F8FFFFFEF6FFFFFEF6FFFFFE
:1049F800DEF8FFFFFEF6FFFF7EF7FFFFFEF6FFFF84
:084A0800FEF6FFFF7CF8FFFF42
:104A100000000000000000000049006100000000EC
:104A20003849006100000000C84800610000000033
:104A30000000000000000000000000000000000076
:104A40000000000000000000000000000000000066
:104A50000000000000000000000000000000000056
:104A60000000000000000000000000000000000046
:104A70000000000000000000000000000000000036
:104A80000000000000000000000000000000000026
:104A90000000000000000000000000000000000016
:104AA0000000000000000000000000000000000006
:104AB00000000000000000000000000000000000F6
:104AC0007002016100000000005A62020000000054
:104AD0000000016100000000000001610000000012
:04000005610001B0E5
:00000001FF
