:02000004610099
:100000006F00001B00000000B20300610000000050
:10001000B2030061000000000000000000000000CA
:10002000B203006100000000B203006100000000A4
:10003000B2030061000000000000000000000000AA
:10004000B203006100000000B20300610000000084
:10005000B203006100000000B20300610000000074
:10006000B203006100000000B20300610000000064
:10007000B203006100000000B20300610000000054
:10008000B203006100000000B20300610000000044
:10009000B20300610000000000000000000000004A
:1000A0000000000000000000000000000000000050
:1000B0000000000000000000000000000000000040
:1000C0000000000000000000000000000000000030
:1000D0000000000000000000000000000000000020
:1000E0000000000000000000000000000000000010
:1000F0000000000000000000000000000000000000
:1001000000000000000000000000000000000000EF
:1001100000000000000000000000000000000000DF
:1001200000000000000000000000000000000000CF
:1001300000000000000000000000000000000000BF
:1001400000000000000000000000000000000000AF
:10015000000000000000000000000000000000009F
:10016000000000000000000000000000000000008F
:10017000000000000000000000000000000000007F
:10018000000000000000000000000000000000006F
:10019000000000000000000000000000000000005F
:1001A000000000000000000000000000000000004F
:1001B00073700430970101009381C16F1701020031
:1001C000130141E49302002073A0027D9702000016
:1001D000938242E3739072309702000093828216FA
:1001E0007390C27E73E0C07E970200009382820DFE
:1001F000739052309302F00373B0523073E0513079
:10020000996273A002307310300073F00232170548
:1002100000001305E5099705000093856509630053
:10022000B502174600001306A65163FAC5008322E3
:10023000050023A0550011059105E3EAC5FE174509
:1002400000001305E54F970501009385A5DB170610
:100250000100130626E863FAC5008322050023A0E7
:10026000550011059105E3EAC5FE170501001305C8
:1002700065E6938581A06377B5002320050011050D
:10028000E36DB5FEEF20201417350000130505AE11
:10029000EF20F02CEF20B030EF20A03A014581454F
:0A02A000EF20901AEF20803D01A02E
:1002C000357106E012E416E81AEC1EF02AF42EF856
:1002D00032FCB6E0BAE4BEE8C2F8C6FC72E176E5EC
:1002E0007AE97EED73D0E57E7350F67E73D0B67EEC
:1002F000732520348A85EF20C019A6727390427C42
:10030000867273901234E6627390223482602262A5
:10031000C262626382732275C275627686662667E0
:10032000C6674678E6780A6EAA6E4A6FEA6F0D6174
:1003300073002030000000000000000000000000FA
:10034000357106E012E416E81AEC1EF02AF42EF8D5
:1003500032FCB6E0BAE4BEE8C2F8C6FC72E176E56B
:100360007AE97EED73D0E57E7350F67E73D0B67E6B
:10037000F390D07E73700430A6727390427C8672C4
:1003800073901234E6627390223482602262C262F9
:10039000626382732275C275627686662667C66757
:1003A0004678E6780A6EAA6E4A6FEA6F0D617300AE
:1003B000203001A00000011122EC00102334A4FE23
:1003C000833784FE83A7870D812793E717001B8758
:1003D0000700833784FE23ACE70C010062640561EB
:1003E0008280797122F40018233CA4FC85472326DF
:1003F000F4FE833784FD83A7870D8127F99B1B8734
:100400000700833784FD23ACE70C8327C4FE3E85B9
:10041000227445618280797122F40018233CA4FC87
:10042000AE87232AF4FC85472326F4FE8327C4FEE7
:100430001B8707008547631BF714832744FD23248C
:10044000F4FE832784FE1B8707009D4763E2E712C3
:10045000836784FE1397270097470000938707ED73
:10046000BA979C431B87070097470000938707ECC8
:10047000BA978287833784FD83A7070E812793E786
:1004800017101B870700833784FD23A0E70E01A206
:10049000833784FD83A7070E812793E727201B87D7
:1004A0000700833784FD23A0E70ED5A0833784FDA2
:1004B00083A7070E812793E747401B8707008337F1
:1004C00084FD23A0E70EE1A0833784FD83A7070EF8
:1004D00081273E87856793878780D98F1B87070091
:1004E000833784FD23A0E70E5DA0833784FD83A7B7
:1004F000070E81273E878567C107D98F1B870700B5
:10050000833784FD23A0E70E59A0833784FD83A79A
:10051000070E81273E87896793870702D98F1B873C
:100520000700833784FD23A0E70E95A0833784FD61
:1005300083A7070E81273E87916793870704D98F8A
:100540001B870700833784FD23A0E70E89A083372C
:1005500084FD83A7070E81273E87A167938707083D
:10056000D98F1B870700833784FD23A0E70E05A0E2
:10057000833784FD83A7070E812793E717101B8716
:100580000700833784FD23A0E70E11A00100832715
:10059000C4FE3E85227445618280797122F4001880
:1005A000233CA4FCAE87232AF4FC231704FE8337E4
:1005B00084FD83A7070E81272317F4FE833784FD6C
:1005C00083A7070E81273E87C177F98F1B87070016
:1005D000833784FD23A0E70E8357E4FE81273E8501
:1005E000227445618280797122F40018233CA4FCB6
:1005F000AE873287232AF4FCBA872328F4FC854788
:100600002326F4FE832744FD812781CB832744FDE5
:100610001B87070089476317F700833784FD03278B
:1006200004FD98C3832744FD1B87070085476309A2
:10063000F700832744FD1B87070089476317F700EE
:10064000833784FD032704FD98C78327C4FE3E85B6
:10065000227445618280011122EC00102334A4FE33
:10066000833784FE984F1367170098CF833784FE33
:10067000984F459B98CF833784FE984F1377F7F8B0
:1006800098CF833784FE944F370700F07D17758F1E
:1006900098CF833784FE944F370700F87D17758F06
:1006A00098CF833784FE984F1377F7E798CF833737
:1006B00084FE984F1377F79F98CF833784FE944F2B
:1006C00071771307F77F758F98CF833784FE944F28
:1006D00011777D17758F98CF833784FE944F0177FC
:1006E0007D17758F98CF833784FE944F3707FCFFB3
:1006F0007D17758F98CF833784FE944F370790FF0F
:100700007D17758F98CF833784FE944F370780FE0F
:100710007D17758F98CF833784FE944F370700FA83
:100720007D17758F98CF833784FED44F7D77758F73
:1007300013675700D8CF833784FED44F0567558F92
:10074000D8CF833784FEB8431377F7F1B8C3833724
:1007500084FEB8431377F7EFB8C3833784FEB843FA
:100760001377F7BFB8C3833784FEB4437D7713078D
:10077000F77F758FB8C3833784FEB4433707FCFF18
:100780007D17758FB8C3833784FEB4433707F8FFEE
:100790007D17758FB8C3833784FEB443370700C015
:1007A0007D17758FB8C3833784FEB4433707008045
:1007B0001347F7FF758FB8C3833784FEF843799BDF
:1007C000F8C3833784FEF843759BF8C3833784FEF0
:1007D000F8431377F7FDF8C3833784FEF8431377A4
:1007E000F7FBF8C3833784FEF8431377F787136763
:1007F0000720F8C3833784FEF44361771307F77F3C
:10080000758FBA860967558FF8C3833784FE37071B
:10081000036198C3833784FE3707036113070750CA
:1008200098C781473E85626405618280797106F4CC
:1008300022F00018233CA4FCAE87232AF4FC854751
:100840002326F4FE8327C4FE1B8707008547631B0E
:10085000F716832744FD1B870700A54763E9E718C0
:10086000836744FD1397270097470000938707AEDF
:10087000BA979C431B87070097470000938707ADF3
:10088000BA9782878327C4FE1B8707008547631DAD
:10089000F7128945033584FDEF00701A35A28327CE
:1008A000C4FE1B87070085476312F7128145033595
:1008B00084FDEF00D0188545033584FDEF00500D11
:1008C00031A28327C4FE1B87070085476312F710F8
:1008D0008545033584FDEF0090168145033584FD81
:1008E000EF00100BF5A08327C4FE1B870700854788
:1008F0006312F70E8945033584FDEF007009D9A80E
:100900008327C4FE1B87070085476317F70C8945BB
:10091000033584FDEF00B012C1A08327C4FE1B87FE
:1009200007008547631CF70A8145033584FDEF0006
:1009300030018545033584FDEF00501B45A083271A
:10094000C4FE1B8707008547631CF70881450335F4
:1009500084FDEF00F0038545033584FDEF00101999
:1009600041A08327C4FE1B8707008547631CF70649
:100970008545033584FDEF00A07C8145033584FD6A
:10098000EF00D01685A08327C4FE1B87070085478C
:10099000631CF7048545033584FDEF00607F8145C6
:1009A000033584FDEF00901481A08327C4FE1B87CC
:1009B00007008547631CF7028945033584FDEF0076
:1009C000F0122DA0010025A0010015A0010005A036
:1009D000010031A8010021A8010011A8010001A80F
:1009E000010031A0010021A0010011A00100832716
:1009F000C4FE3E85A270027445618280797122F442
:100A00000018233CA4FCAE87232AF4FC8547232648
:100A1000F4FE833784FD9C4F9BD747019D8B93F752
:100A2000F70F1B870700832744FD8127638CE708A6
:100A3000832744FD1B8707008947630BF70483273F
:100A400044FD1B870700894763E1E706832744FDD0
:100A5000812789CB832744FD1B8707008547630CCB
:100A6000F700A1A0833784FD944F370790FF7D17CF
:100A7000758F98CF89A8833784FD944F370790FFEF
:100A80007D17758FBA8637071000558F98CF25A828
:100A9000833784FD944F370790FF7D17758FBA8693
:100AA00037072000558F98CF39A8833784FD944F9E
:100AB000370790FF7D17758FBA8637073000558F3F
:100AC00098CF11A001008327C4FE3E8522744561A2
:100AD0008280797122F40018233CA4FCAE8732870F
:100AE000232AF4FCBA872328F4FC85472326F4FE46
:100AF0008327C4FE1B87070085476314F71E232442
:100B000004FE832744FD812781CB832744FD1B8777
:100B1000070089476310F70E833784FD9C4F9BD7EE
:100B200047009D8B93F7F70F1B870700832704FD72
:100B300081276381E70C832704FD1B87070091470A
:100B400063EEE708836704FD1397270097470000CB
:100B500093874782BA979C431B87070097470000FB
:100B600093874781BA978287833784FD984F13779D
:100B7000F7F898CF85472324F4FEB5A8833784FD82
:100B8000984F1377F7F81367070198CF8547232409
:100B9000F4FE95A0833784FD984F1377F7F8136719
:100BA000070298CF85472324F4FEB1A0833784FD44
:100BB000984F1377F7F81367070398CF85472324D7
:100BC000F4FE15A8833784FD984F1377F7F8136761
:100BD000070498CF85472324F4FE31A8833784FD8A
:100BE000984F1377F7F81367070598CF85472324A5
:100BF000F4FE11A00100832744FD1B8707008547F1
:100C00006309F700832744FD1B8707008947631AA0
:100C1000F70C833784FD9C4F9BD717009D8B93F770
:100C2000F70F1B870700832704FD8127638BE70AE3
:100C3000832704FD1B870700914763E9E708836763
:100C400004FD13972700973700009387E773BA973F
:100C50009C431B870700973700009387E772BA977A
:100C60008287833784FD984F459B98CF85472324FF
:100C7000F4FE8DA8833784FD984F459B13672700AA
:100C800098CF85472324F4FEB1A8833784FD984F7D
:100C9000459B1367470098CF85472324F4FE99A00E
:100CA000833784FD984F459B1367670098CF85472E
:100CB0002324F4FE05A8833784FD984F459B1367D2
:100CC000870098CF85472324F4FE29A8833784FD25
:100CD000984F459B1367A70098CF85472324F4FEC0
:100CE00011A001008327C4FE3E85227445618280E5
:100CF000797122F40018233CA4FCAE87231BF4FC7A
:100D000085472326F4FE833784FDDC4F3E878567C5
:100D1000FD17F98FC217C1931B870700835764FD26
:100D200081276308F702035764FD8567FD17F98F74
:100D3000139707034193833784FDBA8605677D17B0
:100D400033F6E600D44F7D77758FBA863287558F9C
:100D5000D8CF8327C4FE3E85227445618280797195
:100D600022F40018233CA4FCAE873287232AF4FC2B
:100D7000BA872328F4FC85472326F4FE8327C4FE84
:100D80001B87070085476314F724232404FE832769
:100D900044FD812781CB832744FD1B8707008947BA
:100DA000631EF70E833784FD9C4F9BD7E7009D8B16
:100DB00093F7F70F1B870700832704FD8127638FB5
:100DC000E70C832704FD1B870700994763EEE70ABA
:100DD000836704FD13972700973700009387075C0C
:100DE000BA979C431B870700973700009387075BE0
:100DF000BA978287833784FD944F11777D17758F5B
:100E000098CF51A8833784FD944F11777D17758F44
:100E1000BA861167558F98CFBDA8833784FD944F4C
:100E200011777D17758FBA862167558F98CFA5A04A
:100E3000833784FD944F11777D17758FBA8631679C
:100E4000558F98CF89A8833784FD944F11777D17EC
:100E5000758FBA864167558F98CF35A8833784FD43
:100E6000944F11777D17758FBA865167558F98CF3C
:100E70001DA0833784FD944F11777D17758FBA8637
:100E80006167558F98CF01A8833784FD944F7167B0
:100E9000558F98CF010085472324F4FE832744FD16
:100EA0001B87070085476309F700832744FD1B87DD
:100EB00007008947631DF710833784FD9C4F9BD73C
:100EC000B7009D8B93F7F70F1B870700832704FD5F
:100ED0008127638EE70E832704FD1B870700994750
:100EE00063EBE70C836704FD139727009737000037
:100EF0009387874CBA979C431B870700973700005E
:100F00009387874BBA978287833784FD944F717795
:100F10001307F77F758F98CF45A8833784FD944FCB
:100F200071771307F77F758FBA86056713070780F8
:100F3000558F98CF51A8833784FD944F717713074D
:100F4000F77F758FBA860567558F98CFB5A8833719
:100F500084FD944F71771307F77F758FBA86096701
:100F600013070780558F98CF85A0833784FD944F52
:100F700071771307F77F758FBA860967558F98CFFA
:100F8000A1A0833784FD944F71771307F77F758F86
:100F9000BA860D6713070780558F98CF35A0833722
:100FA00084FD944F71771307F77F758FBA860D67AD
:100FB000558F98CF11A8833784FD944F116713077D
:100FC0000780558F98CF010085472324F4FE83279F
:100FD000C4FE3E85227445618280797122F4001836
:100FE000233CA4FCAE873287232AF4FCBA8723284B
:100FF000F4FC85472326F4FE8327C4FE1B870700E5
:1010000085476318F712232404FE832744FD8127B4
:1010100081CB832744FD1B8707008947631FF706A1
:10102000833784FD9C4F9BD797008D8B93F7F70FE9
:101030001B870700832704FD81276380E70683273A
:1010400004FD812789CB832704FD1B870700854783
:10105000630DF7003DA0833784FD984F1377F79F0A
:1010600098CF85472324F4FE15A8833784FD984F35
:101070001377F79F1367072098CF85472324F4FE43
:1010800031A8833784FD984F1377F79F1367074084
:1010900098CF85472324F4FE11A00100832744FD47
:1010A0001B87070085476309F700832744FD1B87DB
:1010B00007008947631FF706833784FD9C4F9BD742
:1010C00077008D8B93F7F70F1B870700832704FDAD
:1010D00081276380E706832704FD812789CB832747
:1010E00004FD1B8707008547630DF7003DA083378C
:1010F00084FD984F1377F7E798CF85472324F4FEB4
:1011000015A8833784FD984F1377F7E7136707080F
:1011100098CF85472324F4FE31A8833784FD984F68
:101120001377F7E71367071098CF85472324F4FE5A
:1011300011A001008327C4FE3E8522744561828090
:10114000011122EC00102334A4FEAE872322F4FE0A
:10115000832744FE812789EB833784FE944F37072A
:1011600000F07D17758F98CF832744FE1B870700FB
:101170008547631AF700833784FE944F370700F0E2
:101180007D17758F98CF01003E856264056182806E
:10119000797122F40018233CA4FCAE87232AF4FCC6
:1011A00085472326F4FE8327C4FE1B870700854757
:1011B0006311F708232404FE832744FD812781CB94
:1011C000832744FD1B87070089476314F702833791
:1011D00084FD944F370700F07D17758F98CF8337C4
:1011E00084FDB44337070040558FB8C38547232497
:1011F000F4FE832744FD1B87070085476309F7003A
:10120000832744FD1B87070089476314F702833750
:1012100084FD944F370700F07D17758F98CF833783
:1012200084FDB44337070080558FB8C38547232416
:10123000F4FE8327C4FE3E85227445618280797165
:1012400022F40018233CA4FCAE87232AF4FC854733
:101250002324F4FE832784FE1B8707008547631140
:10126000F708232604FE85A8232204FE832744FDD5
:10127000812781CB832744FD1B8707008947631D96
:10128000F700833784FDB443370700C07D17758F9F
:10129000B8C385472322F4FE832744FD1B8707003C
:1012A00085476309F700832744FD1B8707008947AB
:1012B000631EF700833784FDB4433707008013476C
:1012C000F7FF758FB8C385472322F4FE8327C4FE3A
:1012D00085272326F4FE8327C4FE8127E356F0F8F2
:1012E000832784FE3E85227445618280797122F4D1
:1012F0000018233CA4FCAE87232AF4FC8547232452
:10130000F4FE832784FE1B8707008547631EF708CA
:10131000232604FE69A0232204FE832744FD81279F
:1013200081CB832744FD1B87070089476314F7029D
:10133000833784FDB443370700C07D17758FB8C36A
:10134000833784FD944F37070010558F98CF85471A
:101350002322F4FE832744FD1B870700854763098A
:10136000F700832744FD1B87070089476314F702B2
:10137000833784FDB443370700C07D17758FB8C32A
:10138000833784FD944F37070008558F98CF8547E2
:101390002322F4FE8327C4FE85272326F4FE832719
:1013A000C4FE8127E359F0F6832784FE3E8522742C
:1013B00045618280797122F40018233CA4FCA307C4
:1013C00004FE833784FD83A7070E8127A307F4FE5D
:1013D0008347F4FE93F7F70F99E3814711A0854700
:1013E0003E85227445618280011122EC0010233475
:1013F000A4FEAE872322F4FE832744FEBD8B13F7A1
:10140000F70F833784FE3D8B1B177700F44393F669
:10141000F687558FF8C3832744FEBD8B13F7F70F6C
:10142000833784FE3D8B1B17B700F043E17693862C
:10143000F67FF18E558FF8C301003E856264056129
:101440008280397122FC8000233CA4FCAE872334C7
:10145000C4FC232AF4FC832744FD8127B9C3232637
:1014600004FE35A0033784FD93074700233CF4FCBA
:10147000833784FC938647002334D4FC184398C3F5
:101480008327C4FE8127852781272326F4FE83270F
:10149000C4FE1B870700832744FD8127E364F7FC14
:1014A00011A001006274216182805D7186E4A2E076
:1014B00026FC80082A8E2E85F285232EB4FAAA8572
:1014C000232CB4FA8A85AE84232604FC232404FC4E
:1014D000832584FB1395050201917D15233CA4FC13
:1014E0001395050201912A8381431355B303939603
:1014F0005300C98E131653009396050281923688C5
:1015000081489356B80393975800D58F1317580006
:101510009397050281938A07BD0791839207330150
:10152000F1408A878D0789838A072338F4FC832753
:10153000C4FB8127C9EF232604FC85A88327C4FCAC
:1015400081270327C4FC0127833604FD821781937A
:101550008A07B69798C3832784FBFD371B8707004C
:101560008327C4FC8127631BF7028327C4FC8127E0
:10157000033704FD821781938A07BA979C431B8720
:1015800007008327C4FC81271367072001278336C0
:1015900004FD821781938A07B69798C38327C4FCFA
:1015A0008127852781272326F4FC8327C4FC1B87FA
:1015B0000700832784FB8127E362F7F8832784FBF6
:1015C00037060361BE85033504FDEFF09FE78327EF
:1015D000C4FB1B87070089476314F708232604FC14
:1015E0002DA08327C4FC81270327C4FC0127833651
:1015F00004FD821781938A07B69798C38327C4FC9A
:101600008127852781272326F4FC8327C4FC1B8799
:101610000700832784FB8127E365F7FC8327C4FC4D
:101620008127033704FD821781938A07BA979C4369
:101630001B8707008327C4FC812713670720012726
:10164000833604FD821781938A07B69798C3832750
:1016500084FB37060361BE85033504FDEFF07FDEB2
:1016600026810100130104FBA6600664E274616137
:101670008280011122EC00102334A4FEAE87328751
:10168000A303F4FEBA872303F4FE834774FE1B878B
:101690000700833784FE23A6E708834764FE1B8781
:1016A0000700833784FE23A8E70801006264056110
:1016B0008280011122EC00102334A4FE833784FEC3
:1016C00003A787081367270023A4E70801006264C3
:1016D00005618280011122EC00102334A4FE8337BF
:1016E00084FE03A787081367170023A4E7080100F7
:1016F000626405618280797106F422F00018233457
:10170000A4FEAE883285B6853A86BE864287C687F5
:101710002322F4FEAA872320F4FEAE87A30FF4FC55
:10172000B287230FF4FCB687232CF4FCBA87231E60
:10173000F4FC033584FEEFE01FF2832744FE81278B
:10174000CDEF832704FE8127A9EFB74741F8138621
:1017500007018545033584FEEFE0FFE88145033549
:1017600084FEEFF07FC88545033584FEEFF00FA9B6
:1017700009468545033584FEEFF03F86B757103E96
:1017800013952700EFF0FFF20347E4FD8347F4FDD4
:101790003A86BE85B757103E13952700EFF07FEDD0
:1017A0003DA2B74741F8138607018145033584FE02
:1017B000EFE07FE38545033584FEEFF0FFC2894506
:1017C000033584FEEFF08FA309468145033584FE7F
:1017D000EFF0BF80B757103E13952700EFF09FEF53
:1017E0000347E4FD8347F4FD3A86BE85B757103EB4
:1017F00013952700EFF0FFE7D9A8832744FE1B8746
:10180000070085476315F70C832704FE8127ADE3A6
:10181000B75741F8138607018545033584FEEFE08D
:101820009FDC8945033584FEEFF01FBC85450335F9
:1018300084FEEFF0AF9C09468545033584FEEFF04A
:10184000CFF9B7870F00938757411395C700EFF083
:101850005FE60347E4FD8347F4FD3A86BE85B7871C
:101860000F00938757411395C700EFF09FE085A0C5
:10187000B75741F8138607018145033584FEEFE031
:101880009FD68D45033584FEEFF01FB6894503359D
:1018900084FEEFF0AF9609468145033584FEEFF0F4
:1018A000CFF3B7870F00938757411395C700EFF029
:1018B0007FE20347E4FD8347F4FD3A86BE85B787A0
:1018C0000F00938757411395C700EFF09FDA094641
:1018D0008945033584FEEFF0CF9F8357C4FDBE8555
:1018E000033584FEEFF0CFC0832784FDBE8503352A
:1018F00084FEEFE0BFF301468945033584FEEFF037
:101900000FC60100A270027445618280011122ECB1
:1019100000102334A4FE833784FEF857799BF8D750
:101920000100626405618280011122EC0010233401
:10193000A4FE833784FEF85713671700F8D7010019
:10194000626405618280797122F400182334A4FE58
:10195000AE8736872322F4FEB2872320F4FEBA87AF
:10196000231FF4FC832744FE1B8707008D47631663
:10197000F702832704FE812789EB8357E4FD1B8749
:101980000700833784FE98D7B5A88357E4FD1B87EB
:101990000700833784FED8D3B5A0832744FE1B8776
:1019A000070089476316F702832704FE812789EB26
:1019B0008357E4FD1B870700833784FE98D399A0E3
:1019C0008357E4FD1B870700833784FED8CF1DA80B
:1019D000832744FE1B87070085476315F70283278B
:1019E00004FE812789EB8357E4FD1B8707008337BB
:1019F00084FE98CF01A88357E4FD1B870700833737
:101A000084FED8CB0100227445618280011122EC52
:101A100000102334A4FEAE872322F4FE832744FE65
:101A20008D8B13F7F70F833784FE0D8B1B17170071
:101A30009443E59A558F98C30100626405618280E2
:101A4000011122EC00102334A4FEAE872322F4FE01
:101A5000832744FE858B13F7F70F833784FE058BAE
:101A60001B1747009443BD9A558F98C301006264C9
:101A700005618280011122EC00102334A4FE83371B
:101A800084FE98431367170098C3010062640561E0
:101A90008280011122EC00102334A4FEAE872313B0
:101AA000F4FE835764FE93F7F73F139707034193C0
:101AB000833784FE1376F73FD843137707C0BA867F
:101AC0003287558FD8C3010062640561828001119D
:101AD00022EC00102334A4FEAE8732872322F4FECA
:101AE000BA87A301F4FE832744FE812789EB83474D
:101AF00034FE1B870700833784FE98CB8DA883278D
:101B000044FE1B8707008547631EF700834734FEAA
:101B1000812793E7072081271B870700833784FEEF
:101B200098CBB1A0832744FE1B8707008947631E1B
:101B3000F700834734FE812793E7074081271B87FF
:101B40000700833784FE98CB1DA0832744FE1B87A4
:101B500007008D47631DF700834734FE812793E715
:101B6000076081271B870700833784FE98CB01001D
:101B7000626405618280011122EC00102334A4FE0E
:101B8000AE872322F4FE832744FE812799E783371B
:101B900084FE1307001098CBB9A0832744FE1B874F
:101BA000070085476318F700833784FE130700306A
:101BB00098CB15A8832744FE1B8707008947631825
:101BC000F700833784FE1307005098CB29A883279A
:101BD00044FE1B8707008D476317F700833784FE99
:101BE0001307007098CB01006264056182800111C7
:101BF00022EC00102334A4FEAE872322F4FE8337A8
:101C000084FE032744FE98DB010062640561828044
:101C1000011122EC00102334A4FEAE87A303F4FECE
:101C2000834774FE1B870700833784FED8DF0100DB
:101C3000626405618280011122EC00102334A4FE4D
:101C4000AE87A303F4FE834774FE1B870700833728
:101C500084FE98DF0100626405618280011122EC3C
:101C600000102334A4FEAE872313F4FE833784FED2
:101C7000035764FE239EE7060100626405618280CB
:101C8000011122EC00102334A4FEAE87A303F4FE5E
:101C9000834774FE1B870700833784FE23A0E70A6F
:101CA0000100626405618280797122F40018233C8E
:101CB000A4FC833784FDBC43858B93F7F70FA30700
:101CC000F4FE0100227445618280011122EC0010B3
:101CD0002334A4FE833784FEDC5781273E8562646B
:101CE00005618280011122EC00102334A4FE8337A9
:101CF00084FEBC5B81273E856264056182807971C8
:101D000006F422F00018233CA4FCAE87232AF4FC3E
:101D1000032744FD85679B8707FABB07F7028127E6
:101D20003E879307803EBB57F7028127C217C193B6
:101D3000C9272317F4FE032744FD85679B87C72522
:101D4000BB07F70281273E879307803EBB57F70208
:101D50008127C217C193E5272316F4FE032744FD0C
:101D600093078025BB07F70281273E879307803EB4
:101D7000BB57F7028127C217C193C9272315F4FE69
:101D8000032744FD93074051BB07F70281273E8795
:101D90009307803EBB57F7028127C217C193E527FF
:101DA0002314F4FE032744FDBA879B974700999FAD
:101DB0009B97270081273E879307803EBB57F702FA
:101DC0008127C217C193C9272313F4FE032744FDBB
:101DD000BA879B974700999F9B97370081273E873B
:101DE0009307803EBB57F7028127C217C193E527AF
:101DF0002312F4FE8357E4FEBE860546854503356F
:101E000084FDEFF05FB48357C4FEBE86014685456E
:101E1000033584FDEFF03FB38357A4FEBE8605462D
:101E20008945033584FDEFF01FB2835784FEBE86DB
:101E300001468945033584FDEFF0FFB0835764FE0A
:101E4000BE8605468D45033584FDEFF0DFAF835731
:101E500044FEBE8601468D45033584FDEFF0BFAEDE
:101E60000100A270027445618280797106F422F04B
:101E700000182334A4FEAE8736872322F4FEB287EF
:101E80002320F4FEBA87232EF4FC833784FE93B715
:101E9000170093F7F70F99C3FD57A9A09387018106
:101EA0009C639C6B8146094681453E85EF10C007C7
:101EB000832744FEBE85033584FEEF00400383275D
:101EC00004FEBE85033584FEEF00C00E8327C4FDEB
:101ED000BE85033584FEEF006018033584FEEF00F5
:101EE000402181473E85A2700274456182800111C4
:101EF00022EC00102334A4FEAE872322F4FE8337A5
:101F000084FEDC47812793E707081B870700833798
:101F100084FED8C7832744FE9B97470081273767F5
:101F200062021B0707A0BB57F7028127C217C193A4
:101F30009BD78700C217C1931B870700833784FE96
:101F4000D8C3832744FE9B974700812737676202E7
:101F50001B0707A0BB57F702812793F7F70F1B87D3
:101F60000700833784FE98C3833784FE9C4B812708
:101F700093E717001B870700833784FE98CB8337CE
:101F800084FE9C4B812793E727001B87070083373C
:101F900084FE98CB833784FEDC47812793F7F707CD
:101FA0001B870700833784FED8C781473E8562645C
:101FB00005618280011122EC00102334A4FEAE875B
:101FC0002322F4FE832744FE1B8707008947630A08
:101FD000F704832744FE1B870700894763EFE70464
:101FE000832744FE812789CB832744FE1B87070074
:101FF0008547630CF70091A0833784FEDC471B877D
:102000000700833784FED8C7A9A0833784FEDC4746
:10201000812793E717001B870700833784FED8C703
:102020000DA8833784FEDC47812793E727001B87B1
:102030000700833784FED8C729A8833784FEDC478E
:10204000812793E737001B870700833784FED8C7B3
:10205000010081473E85626405618280011122ECA6
:1020600000102334A4FEAE872322F4FE833784FEBF
:1020700093B7170093F7F70F99C3FD57BDA08327B8
:1020800044FE812789CB832744FE1B8707008547B1
:10209000630CF70035A8833784FEDC471B870700F5
:1020A000833784FED8C789A0833784FEDC471B872B
:1020B0000700833784FED8C7833784FEDC47812737
:1020C00093E747001B870700833784FED8C729A8FA
:1020D000833784FEDC47812793E747001B8707008F
:1020E000833784FED8C7010081473E85626405615D
:1020F0008280011122EC00102334A4FE833784FE79
:1021000093B7170093F7F70F81C79307F00F31A02C
:10211000833784FE054798C781473E856264056121
:102120008280011122EC00102334A4FEAE87A303A9
:10213000F4FE833784FE93B7170093F7F70F99C324
:10214000FD5725A00100833784FEDC4B812793F7E0
:1021500007028127EDDB834774FE93F7F70F1B8798
:102160000700833784FE98C381473E85626405611A
:102170008280797122F40018233CA4FC833784FD0B
:1021800093B7170093F7F70F81C79307F00F15A0C8
:102190000100833784FDDC4B8127858B8127F5DBAC
:1021A000833784FD9C432326F4FE8327C4FE93F7E4
:1021B000F70F3E85227445618280011122EC0010E8
:1021C000AA872326F4FE97E70000938727F1254787
:1021D00098C3FD573E85626405618280011122EC3F
:1021E0000010AA872330B4FE2326F4FE8327C4FE02
:1021F0001B87070085476309F7008327C4FE1B87F9
:10220000070089476318F700833704FE0967D8C3BE
:10221000814701A897E70000938747EC254798C3BB
:10222000FD573E85626405618280011122EC001039
:10223000AA872326F4FE85473E8562640561828075
:10224000011122EC0010AA87AE8632872326F4FE05
:10225000B6872324F4FEBA872322F4FE81473E8505
:10226000626405618280397106FC22F88000AA87C9
:102270002338B4FC2334C4FC232EF4FC8327C4FD90
:10228000812799C3FD5715A0833704FD2334F4FE3D
:102290009307103E13956701EFF0BFEDAA873E87C5
:1022A000833784FE2380E70085473E85E2704274D1
:1022B00021618280011122EC00102334A4FE97E7F3
:1022C0000000938727DF9863833784FE3E979387C8
:1022D00081A06360F70297E700009387A7DD98630A
:1022E000833784FE3E9797D701009387A75163F405
:1022F000E700FD5705A897E700009387A7DB9863E1
:10230000833784FE3E9797E700009387A7DA98E328
:1023100097E70000938707DA9863833784FEB30753
:10232000F040BA973E85626405618280397106FC8F
:1023300022F88000AA872338B4FC2334C4FC232E5F
:10234000F4FC8327C4FD3E85EF001057AA8799E36C
:10235000FD57ADA0833704FD2330F4FE233404FE83
:10236000B1A0033704FE833784FEBA9783C7070002
:102370003E87A9476319F700B5459307103E1395AB
:102380006701EFF01FDA033704FE833784FEBA9744
:1023900083C70700BE859307103E13956701EFF0D2
:1023A0005FD8833784FE85072334F4FE033784FE29
:1023B000833784FCE367F7FA833784FC3E85E27059
:1023C000427421618280411122E4000897E70000F5
:1023D0009387C7CE37F7FA021307070898C301009F
:1023E000226441018280011106EC22E800102334AE
:1023F000A4FE2330B4FE833584FE172500001305A8
:10240000E5FFEF00B01FF327907CBE808687BE8576
:102410001725000013050500EF00501EF3271034A8
:10242000BE808687BE851725000013052500EF00B6
:10243000F01CF3273034BE808687BE851725000048
:1024400013054500EF00901B01A0011122EC0010C4
:10245000232604FE1DA017070000130707F997E6BF
:1024600000009386A6C98327C4FE8E07B69798E31B
:102470008327C4FE85272326F4FE8327C4FE1B87FB
:102480000700B147E3D9E7FC010001006264056180
:102490008280797106F422F00018233CA4FC2338D2
:1024A000B4FC833784FD81273E878567FD17F98F4C
:1024B0002322F4FE832744FE1B870700AD4763EE0B
:1024C000E70017E70000130767C3836744FE8E0722
:1024D000BA979C632334F4FE3DA0832744FE1B87F8
:1024E00007008567FD17631AF70097E700009387D9
:1024F000E7C0BC732334F4FE39A09707000093872C
:10250000C7EE2334F4FE833784FE81CB833784FE09
:10251000833504FD033584FD829781473E85A27093
:10252000027445618280797106F422F000189727C1
:1025300000009387A7F990639467986B9C6F23388A
:10254000C4FC233CD4FC2330E4FE2334F4FE1726E1
:1025500000001306A6F097250000938525F11725A6
:1025600000001305A5F1EF007009833704FEBE8556
:1025700017250000130585F2EF00500897E70000CB
:102580009387C7B39C43BE8517250000130585F2CA
:10259000EF00D0060100A270027445618280011133
:1025A00022EC0010A30504FEB70700680347B4FE41
:1025B000A385E7000100B7070068DC438127821785
:1025C0008193D5838127BD8B81278127812723266E
:1025D000F4FEB707006883C7070013F7F70FB707C4
:1025E0000068059B1377F70F2380E700B7070068A3
:1025F00083C7070093F7F70F1B9787011B57874186
:102600008327C4FE93F7F70F9B97170093F7F70FF5
:102610009B9787019BD78741F98B9B9787019BD716
:102620008741D98F1B9787011B578741B7070068E0
:102630001377F70F2380E700010001006264056152
:102640008280411106E422E0000881460D46F167D0
:10265000938507209307103E13956701EFF0FF80E5
:10266000A14073B0007DEFF01FECEFF01FDEEFF044
:102670001FF30100A260026441018280011122EC7B
:102680000010AA872326F4FE01006264056182809F
:10269000411122E4000801002264410182804111BD
:1026A00022E400080100226441018280797106F46D
:1026B00022F00018AA87232EF4FCA30704FEA30728
:1026C00004FEA1AA8347F4FE93F7F70F812713872F
:1026D000018BBA9783C707009B8607008347F4FEE8
:1026E00093F7F70F1B870700B7C740189B8707149E
:1026F000B99F81279B97270081279C4336876311C9
:10270000F7088347F4FE93F7F70F1B870700B7C757
:102710004018B99F81279B97270081279C43BE853E
:1027200017250000130585DCEF00406D172500001C
:102730001305C5DCEF00C07E8347F4FE93F7F70F67
:102740001B870700B7C740189B870714B99F8127CD
:102750009B97270081279C43BE8517250000130502
:1027600065DAEF00A06917250000130525D9EF00F1
:10277000207B172500001305E5D9EF00607ABDA87E
:102780008347F4FE93F7F70F1B870700B7C740187E
:10279000B99F81279B97270081279C43BE851725DA
:1027A00000001305A5D4EF00606517250000130590
:1027B000E5D4EF00E0768347F4FE93F7F70F1B872D
:1027C0000700B7C740189B870714B99F81279B97BD
:1027D000270081279C43BE8517250000130585D25D
:1027E000EF00C06117250000130545D1EF004073CD
:1027F00017250000130585D3EF0080721725000010
:102800001305C5CFEF00C0718347F4FE93F7F70FB0
:10281000852793F7F70FA307F4FE8347F4FE93F79A
:10282000F70F1B8707008327C4FD8127E36CF7E8B8
:1028300001000100A270027445618280797106F482
:1028400022F00018233CA4FC97E7000093878788B8
:102850003D472380E700A30104FEA30704FE2324D1
:1028600004FE033584FDEFF06F8A930540060335BF
:1028700084FDEFF0CFC88945033584FDEFF00F9953
:102880008145033584FDEFF0AF9B033584FDEFF008
:102890006F9E93050005033584FDEFF08F9F41483F
:1028A0008147014781460146814537850F00130561
:1028B000D5043205EFE03FE493050021033584FDA4
:1028C000EFF0EFB297E700009387C78083C7070058
:1028D000BE85033584FDEFF0AFB38D45033584FD30
:1028E000EFF0CFB79145033584FDEFF06FB90335B5
:1028F00084FDEFF06FBB033584FDEFF0EF820146FE
:102900008145033584FDEFF08F9C014681450335F9
:1029100084FDEFF0CF9BB717E0039387B73413958F
:102920006700EFD05FA98145B717E0039387B734FD
:1029300013956700EFD03FAE033584FDEFF0CFB6BF
:10294000033584FDEFF06FB8AA871B87070097D780
:1029500000009387677898C3033584FDEFF0EFB6E6
:10296000AA87812793F707208127F9DB0100033528
:1029700084FDEFF02FB7AA87812793F707028127FD
:10298000FDF70100B717E0039387B734139567008D
:10299000EFE05FA2AA87FDF7B717E0039387B7348C
:1029A00013956700EFD0FFA38145B717E003938726
:1029B000B73413956700EFD05FBE832784FE852769
:1029C0002324F4FE832784FE1B87070085679387F3
:1029D00077BBE3F4E7FE172500001305A5B8EF0069
:1029E0002054033584FDEFE07FF293054006033564
:1029F00084FDEFF0CFB08945033584FDEFF00F8102
:102A00008145033584FDEFF0AF833D4881470147A1
:102A100081460546814537850F001305D5043205EB
:102A2000EFE07FCD033584FDEFF0CF8493054021A7
:102A3000033584FDEFF0AF9B97D70000938787693C
:102A400083C70700BE85033584FDEFF06F9C97D7E1
:102A500000009387276883C70700FD3793F7F70FB8
:102A6000BE85033584FDEFF00F9D9545033584FD4C
:102A7000EFF0CF9E9545033584FDEFF06FA0033551
:102A800084FDEFF06FA2033584FDEFE0FFE901461E
:102A90008145033584FDEFF08F8301468145033581
:102AA00084FDEFF0CF82A30704FE033584FDEFF031
:102AB000CFA1AA871B87070097D700009387C7611C
:102AC00098C397D70000938727619C4393F707200B
:102AD0008127D1E797D700009387C75F03C7070017
:102AE0008347F4FE93F7F70F63FBE70697D70000E1
:102AF0009387875E9C43C18B8127B5C3232204FE45
:102B000091A08347F4FE8527A307F4FE97D7000022
:102B10009387475C03C707008347F4FE93F7F70FDB
:102B20006398E7008545033584FDEFF0CF8405A861
:102B30008145033584FDEFF00F84832744FE85270C
:102B40002322F4FE97D700009387C75883C7070056
:102B50001B870700832744FE8127E3C4E7FA172574
:102B600000001305A5A1EF00A03B97D700009387B5
:102B7000A7569C4393F70720812785DB1725000084
:102B8000130545A1EF00C039033584FDEFF0EF9345
:102B9000AA871B87070097D700009387E75398C33E
:102BA00097D70000938747539C43918B812795C308
:102BB000B717E0039387B73413956700EFD0AFFFE3
:102BC0008145B717E0039387B73413956700EFD0BB
:102BD0009F84033584FDEFF02F8D0100033584FDC4
:102BE000EFF04F90AA87812793F707028127FDF71F
:102BF0000100B717E0039387B73413956700EFE040
:102C00006FFBAA87FDF7B717E0039387B7341395D7
:102C10006700EFD00FFD8145B717E0039387B73406
:102C200013956700EFD07F97033584FDEFE01FCE4B
:102C30001725000013050598EF00802E81473E857B
:102C4000A2700274456182802D7106EE22EA0012A4
:102C5000232604FEA30304EE2DA0834774EE93F70E
:102C6000F70F81278A07130704FFBA9723AC07EEF3
:102C7000834774EE93F7F70F852793F7F70FA303B6
:102C8000F4EE834774EE93F7F70F3E879307300611
:102C9000E3F5E7FC930784EE370603619305000430
:102CA0003E85EFE00FFA130784EEB7070361138642
:102CB0000750930500043A85EFE0AFF8230304EED4
:102CC000B1A8834764EE93F7F70F8127034764EEBB
:102CD0001377F70F9386018BB6972380E70083471E
:102CE00064EE93F7F70F3E87BD476310F702834703
:102CF00064EE93F7F70F8127034764EE1377F70F1E
:102D00009386018BB6972380E700834764EE93F7A1
:102D1000F70F852793F7F70F2303F4EE834764EE4D
:102D200093F7F70F3E87BD47E3FDE7F8172500004F
:102D30001305C589EF00C01EC1450145EFE0EFF660
:102D4000B757103E13952700EFF05FAF3D45EFF00A
:102D5000FF9581473E85F260526415618280AA85A5
:102D600081460146014525A3011122E826E41724E6
:102D700000001304E49C972400009384649C058C59
:102D800006EC0D8411E4E2604264A2640561828075
:102D90007D1493173400A6979C638297E5B70111C1
:102DA00022E826E4172400001304849997240000E5
:102DB00093840499818C4AE006EC8D840149631563
:102DC0009902172400001304A49797240000938409
:102DD0002497818C8D840149631D9900E2604264CF
:102DE000A2640269056182801C6005092104829742
:102DF000F9B71C60050921048297F9BF597122F0C7
:102E000006F42A842EFCB2E0B6E4BAE8BEECC2F0C6
:102E1000C6F403B5018119C51C5989E72AE4EF00FE
:102E2000207422650C693418228636ECEF00D045F8
:102E3000A270027465618280797126EC4AE806F41A
:102E400022F04EE452E0AA842E8909C51C5999E368
:102E5000EF0000719C58806881E72685EF00407084
:102E6000971700009387077D631FF40280648357E0
:102E70000401A18BA9CB1C6CB9C7FD59294A584440
:102E8000834509009B07F7FF3E87A1ED5CC463D132
:102E900007082286A9452685EF004022FD576309D1
:102EA000F50229453DA0971700009387277C6314FE
:102EB000F40080686DBF9717000093872774E318AC
:102EC000F4FA806C6DB7A2852685EF00802B55D56E
:102ED0007D55A2700274E2644269A269026A45618A
:102EE000828058C4050963D70700185463CBE700F4
:102EF000638945011C601387170018E02380B70021
:102F0000BDBF22862685EF00601BE31A35F7C9B7DF
:102F10001C601387170018E029472380E70051B78A
:102F2000AA8503B5018109BF5D71A2E026FC4AF8BC
:102F30004EF452F086E456EC83B901812A842E893E
:102F4000328AB6846388090083A7090381E74E8526
:102F5000EF000061971700009387C76D6313F40CAF
:102F600003B489008947630AFA0085477D5563E108
:102F7000470B9B87040063CD0708A2854E85EF00B1
:102F8000404C2C7091C99307C4076385F5004E85AA
:102F9000EF00900F2330040683570401232404021A
:102FA0002324040093F7070889C70C6C4E85EF00B3
:102FB000B00D835704017D771307C735F98F2318A8
:102FC000F40089476303FA0E54003000A2854E8551
:102FD000EF008070835704015D8D2318A400A5E4E1
:102FE000A2642685EF00207F2A894DE9A26A6391B9
:102FF0009A0A7D55835704012326040093E727008E
:103000002318F4009307F4071CE01CEC85471CD040
:10301000A6600664E2744279A279027AE26A61618A
:10302000828097170000938767646315F40003B4E8
:1030300009010DBF971700009387475CE314F4F272
:1030400003B4890105B7E30E09F883A7090381E7F3
:103050004E85EF00E05085476318FA00835704015E
:1030600093E717002318F4008357040181242330C9
:103070002401233C240104D013F787001DCB858B4A
:103080009DC7BB0490402326040004D4014549B7E2
:103090005685EF0040742A89D68421DD83570401C8
:1030A00093E707082318F4004DB70145A1B744C4BE
:1030B000F1BF23260400D9BF6FF02F97797122F05A
:1030C00026EC4AE806F44EE4AA842E89328409C527
:1030D0001C5999E3EF00C048971700009387875564
:1030E000631AF40680641C545CC483570401A18BEA
:1030F000D1C31C6CC1C31C6C08609379F90F4E8955
:103100001D9D1C506347F500A2852685EF006033A6
:103110003DE55C440525FD375CC41C601387170042
:1031200018E0238037011C506389A70083570401EE
:10313000858B89CBA9476317F900A2852685EF0007
:10314000403015EDA2700274E264A2694A854269BA
:103150004561828097170000938747516314F400FC
:10316000806851B79717000093874749E31DF4F62D
:10317000806C95BFA2852685EF00A0002DDD7D59CE
:10318000D1B7011122E826E44AE006EC83B40181BC
:103190002A892E8491C49C5881E72685EF00403C03
:1031A00097170000938707496317F4028064831719
:1031B00004011397070393F687004193B5EA9376CA
:1031C000070195EA25472320E90093E70704231820
:1031D000F4007D5545A09717000093872749631495
:1031E000F4008068E9B79717000093872741E31040
:1031F000F4FC806C6DBF118B15C72C7091C99307BF
:10320000C4076385F5004A85EF0000682330040693
:10321000835704012324040093F7B7FD2318F40017
:103220001C6C1CE08357040193E787002318F4000B
:103230001C6C89EF835704011307002093F70728BC
:103240006386E700A2854A85EF00C04E831704011C
:103250001397070393F6170041939DC2145023263A
:103260000400BB06D04014D4146C014581E61377EA
:10327000070821FFE2604264A2640269056182805E
:1032800093762700014691E2105050C4F1BFAA88FE
:1032900017D50000130505E51C6181EF1387018F29
:1032A00018E113050000BA8709C51C612338F7101F
:1032B000BA8798477D487D556347E804638D0802C7
:1032C00003B807116301080413153700429510E194
:1032D0000323082005463B16E6003363C300232082
:1032E00068202330D51089466397D800832648206C
:1032F000558E2322C8209B06170009070E0794C786
:10330000BA978CE30145828083D70501797122F059
:1033100026EC06F44AE84EE413F78700AA842E84CC
:1033200069EF9845634DE000B85D634AE0000145F0
:10333000A2700274E2644269A269456182803868C1
:103340007DD7856603A90400F58F23A00400A5CFCF
:10335000506C83570401918B99C71C441D8E3C709F
:1033600099C33C5C1D8E3C680C7C81462685829707
:10337000FD5703570401631DF5009440F54763E8CA
:10338000D706B70740208507B3D7D700858BA5C3DD
:103390001C6C232404001CE085677D8F19C7FD5732
:1033A0006314F5009C4091E348EC2C7023A02401A9
:1033B000BDDD9307C4076385F5002685EF00C04C8B
:1033C00023300406ADB70C7C01468546268502975E
:1033D000FD572A86E31FF5F69C40A5DF75476385F8
:1033E000E70059476394E70423A0240189B71367D2
:1033F00007042318E4007D5525BF83B98501E388C0
:1034000009F203B905008D8B23B035013B09394121
:10341000014791E3985158C4E35B20F13C640C7C74
:10342000CA864E86268582976349A0008357040189
:1034300093E707042318F4007DBFAA993B09A9402C
:10344000E1BF9C6DA5C3011122E806EC2A8419C5D1
:103450001C5989E72EE4EF00A010A2659717000021
:103460009387471D639BF5000C648397050195C7FF
:1034700022854264E260056141BD97170000938791
:10348000E71E6394F5000C68CDB79717000093878B
:10349000E716E39CF5FC0C6CC9BFE2604264014591
:1034A0000561828001458280411122E006E42A8480
:1034B0002318B5002319C500233005002334050067
:1034C0002326050A233C05002320050223240502A8
:1034D000214681451305450AEF006030971700002B
:1034E0009387E7C33CE097170000938767C63CE4E7
:1034F000971700009387C7CA3CE897170000938787
:10350000A7CDA26000FC3CEC0264410182809705DB
:103510000000938545F399AA011126E41306000BD8
:103520009B84F5FFB384C4024AE02E8922E806ECAE
:103530009385840CEF00A03F2A8401CD2330050041
:1035400023242501610508E81386040B8145EF005B
:103550000029E26022854264A264026905618280DA
:103560001C59BDE7411122E006E49707000093874C
:1035700047FA3CE5233005082324050823380508CD
:1035800083B781812A846314F50085471CD922857D
:10359000EF00200408E42285EF00A00308E822855C
:1035A000EF00200308EC086401469145EFF0DFEFDF
:1035B00008680546A545EFF03FEF086C0946C94588
:1035C000EFF09FEE8547A2601CD802644101828023
:1035D0008280011126E483B481819C584AE006EC84
:1035E00022E82A8981E72685EFF09FF79384040873
:1035F00080689C44FD3763D607009C60A9CF846037
:10360000C5BF0317040129E7C17785072326040AEC
:1036100023300400233404001CC8233C040023206E
:10362000040223240402214681451305440AEF00C5
:10363000001B23300406232404062330040823241B
:103640000408E26022854264A26402690561828006
:103650001304040B45B791454A85EFF0FFEB88E072
:103660002A8451FDB1472320F900E1BF5D71A2E03A
:1036700026FC4EF452F05AE85EE486E44AF856EC32
:10368000AA892E8A930405080144054BFD5B03B902
:10369000040183AA8400FD3A63D00A028460E5F83D
:1036A000A66022850664E2744279A279027AE26A0F
:1036B000426BA26B6161828083570901637BFB00CF
:1036C0008317290163877701CA854E85029A498C41
:1036D00001241309090BC1B77571CAF82E898395A6
:1036E000250122E1A6FC06E53284B68463DC0500F0
:1036F0008317090123A0040093F7070895E39307B4
:1037000000400DA03000EF009033E34305FEB247C8
:103710003D67F98F0967998F93B717009CC0C5B7AC
:1037200093070004AA601CE00A64E6744679014528
:103730004961828083D70501797122F006F426EC75
:103740004AE8898B2E8489CF9307F4071CE01CEC90
:1037500085471CD0A2700274E26442694561828090
:10376000540030002A89EFF03FF7A265AA844A8509
:10377000EF00E01B01ED8317040113F7072079FB2D
:10378000F19B93E727002318F4007DBF9707000003
:10379000938727D82334F9048357040108E008EC01
:1037A00093E707082318F400A2671CD0924791CF33
:1037B000831524014A85EF00B02B01C9835704010A
:1037C000F19B93E717002318F40003550401C98CFB
:1037D0002318940041B7AA8503B5018189AA3D4306
:1037E0002A876371C3029377F700C1E3BDE1937643
:1037F00006FF3D8ABA960CE30CE74107E36DD7FE5E
:1038000011E28280B306C3408A06970200009696B2
:103810006780A6002307B700A306B7002306B700FA
:10382000A305B7002305B700A304B7002304B7001E
:10383000A303B7002303B700A302B7002302B70016
:10384000A301B7002301B700A300B7002300B7000E
:10385000828093F5F50F93968500D58D939605019B
:10386000D58D93960502D58D59B79396270097026B
:10387000000096968682E78026FA9680C1171D8FF3
:103880003E96E371C3F89DB7D5C183B785FF01119B
:1038900022E806EC138485FF63D307003E942AE4F4
:1038A000EF00F02417D70000130747841C6322653C
:1038B00089EB2334040000E34264E26005616F0099
:1038C0003023637DF4001060B306C4006396D70014
:1038D00094639C67B29614E01CE4F1BF3E879C673A
:1038E00099C3E37DF4FE14633306D700631F86009B
:1038F0001060B29614E33306D700E39FC7FA9063D3
:103900009C67B29614E31CE745BF6375C400B147DA
:103910001CC15DB71060B306C4006396D700946302
:103920009C67B29614E01CE400E779B78280938725
:1039300075007971E19B26EC4AE806F422F04EE42A
:10394000A1074147AA84414963E3E7003E8937075D
:1039500000801347F7FF6364F700637CB900B14749
:103960009CC00145A2700274E2644269A26945618B
:1039700082802685EF00B01797C6000093860677F1
:1039800098623A841DE4138401841C6091E78145A8
:103990002685EF00807508E0CA852685EF00E07473
:1039A000FD59631E3505B1479CC02685EF005014B4
:1039B0004DBF1C60BB87274163C007043D4663576A
:1039C000F6001CE03E942330240129A01C646313FC
:1039D00087029CE22685EF00B0111305F4009307DF
:1039E00084006199BB07F540B5DF3E94BB07F0400A
:1039F0001CE08DBF1CE7F9BF2287006461B7130488
:103A000075006198E30185FCB305A4402685EF00AD
:103A1000C06DE31A35FB41BF5C461B87F7FF58C6F4
:103A2000635A07001C566345F700A9476394F500E5
:103A30006FF0CFE81C622E851387170018E22380F1
:103A4000B7008280797122F026EC4AE84EE452E019
:103A500006F42A89AE893284B304D6007D5A6314F1
:103A60009400014511A8834504004E864A85EFF075
:103A7000BFFA0504E31545FFA2700274E2644269CF
:103A8000A269026A456182805571A2E126FD4AF968
:103A90004EF552F186E556ED5AE95EE562E1E6FC47
:103AA000EAF8AA89AE8432893684014A09C51C59CC
:103AB00099E3EFF0FFAA971700009387A7B7639EDB
:103AC000F40C83B4890083D70401A18BEDCB9C6CEB
:103AD000FDC793070002A304F102FD5A93070003F8
:103AE00002D22305F10222E4930B5002139C0A0236
:103AF000171B0000130B0BBB854C4A848347040043
:103B000099C36392770F3B0D2441630E0D00EA8643
:103B10004A86A6854E85EFF0FFF2630B551F92573C
:103B2000BB87A7013ED2834704006383071E1309A6
:103B3000140062E802ECA309010482D48345090061
:103B400015465A85EF0000791304190059EDC24754
:103B500013F7070109C713070002A309E10413F7CC
:103B6000870009C71307B002A309E10483460900CF
:103B70001307A0026384E608F2474A84814625467B
:103B8000294803470400130514009B0507FD2E87F1
:103B9000637BB60AA5CE3ECE95A897170000938703
:103BA000E7AC6395F40083B4090131BF97170000B7
:103BB0009387C7A4E399F4F083B4890129B7A68554
:103BC0004E85EFF00FDC11D57D55AE600E64EA74C2
:103BD0004A79AA790A7AEA6A4A6BAA6B0A6CE67C85
:103BE000467D69618280050411BFC2473305654186
:103BF0003B95AC005D8D2AC8228989B72267930660
:103C00008700184336E4634907023ACE03470400AD
:103C10009307E0026310F704034714009307A00220
:103C20006310F70AA2670904138787009C433AE4EC
:103C300063C107023ECA39A83B07E04093E727006B
:103C40003ACE3EC8E1B7BB07F8022A848546B99F41
:103C50000DBF56CA834504000D4617150000130515
:103C6000E5A4EF00206711CD97170000938707A404
:103C70001D8D930700043B95A700C24705045D8D89
:103C80002AC883450400194617150000130585A2AC
:103C9000130914002304B102EF00C06351C193075C
:103CA0000000A1EB4247A2671377071029C3BD07A5
:103CB000C19BC1073EE49257BB8747013ED235BD49
:103CC000050402CA81468147254629480347040066
:103CD000130514009B0507FD2E876374B600B9FA1F
:103CE00095BFBB07F8022A848546B99FC5B7A107CF
:103CF000D1B7380097060000938606D526860C08B3
:103D00004E8597000000E70000002A8AE31555FB66
:103D100083D7040193F70704E39807EA125575B5B2
:103D2000380097060000938626D226860C084E851A
:103D3000EF00A012D9BF5D719C4952F03A8A9845B4
:103D4000A2E04AF84EF456EC3289B68A86E426FCA4
:103D50005AE85EE41B8607009B060700AA892E84AA
:103D60006353D600BA872320F9000347340401C700
:103D700085272320F9001C4093F7070291C783276A
:103D8000090089272320F9000440998891E8130B42
:103D90009401FD5B5C4403270900999F63C0F4060E
:103DA000834734043336F000B336F0001C4093F7F9
:103DB0000702B5EB13063404D6854E85029AFD57EB
:103DC0006305F5041C4011465444998B03270900F0
:103DD00081446398C700BB87E640BE8463D3070075
:103DE00081441C4418486354F700999FBD9C0149C5
:103DF00069047D5B639A2405014509A885465A86B6
:103E0000D6854E85029A631E75017D55A6600664AF
:103E1000E2744279A279027AE26A426BA26B616132
:103E20008280852485BFB307D40093060003A38155
:103E3000D7041B0716009B06260003465404B3074D
:103E4000E400A381C704BDB785462286D6854E858A
:103E5000029AE30C65FB052971BF5D71A2E04AF887
:103E60004EF452F086E426FC56EC5AE803C885016D
:103E7000930780072A892E84B289368A63EE070168
:103E8000930720069386350463ED07016307081C3A
:103E900093078005630FF81293042404230104059B
:103EA00015A89B07D8F993F7F70F5546E366F6FE7A
:103EB00017160000130646838A07B2979C43B297F1
:103EC00082871C6393842504938687009C4314E3B4
:103ED0002381F504854775AA90411C631375060874
:103EE000938587000DC19C630CE363D8070013071B
:103EF000D002B307F040A301E40417060000130644
:103F0000E67B294835A8137606040CE301C683979F
:103F10000700E1BF9C43D1BF90411C6313750608A5
:103F20009385870041CD9C630CE31307F0061706C9
:103F300000001306A6786304E8102948A3010404CE
:103F4000584018C4634507000C40ED990CC099E334
:103F5000B68419CFB68433F70703FD1432970347AD
:103F600007002380E4003E87B3D70703E37507FF0C
:103F7000A147631EF8001C40858B91CB58401C481C
:103F800063C7E70093070003A38FF4FEFD14858E3B
:103F900014C85287CE867000A2854A85EFF0BFD93B
:103FA000FD5A631C550F7D55A6600664E274427984
:103FB000A279027AE26A426B616182809C43137645
:103FC00006040CE301C6C217C19385B7821781931B
:103FD000A9BFA3820505170600001306266E0C4034
:103FE0001C6313F8050813858700630E08029C63A1
:103FF00008E313F7150001C793E505020CC041481B
:1040000095FF18401377F7FD18C00DBF9C4193E74B
:10401000070A9CC193078007A302F4041706000057
:104020001306466B6DBF9C4313F8050408E3630554
:104030000800C217C19375BF821781935DBF2148E5
:10404000F5BD90411C63CC491378060813858700A1
:104050006309080008E39C638CE323280400B6840A
:104060000DBF08E3137606049C6301C62390B700D6
:10407000EDB78CC3DDB71C63D041814593868700C3
:1040800014E384632685EF00E02419C1058D48C040
:104090005C401CC8A3010404EDBD14482686CE85EF
:1040A0004A85029AE30155F11C40898B95EBB24792
:1040B00048441B8707009B06050063D3E6003E8546
:1040C0000125DDB585465686CE854A85029AE30CE4
:1040D00065ED85245C443247999FE3C5F4FEC1BF7A
:1040E0008144930A94017D5BF5B7411122E02A8453
:1040F0002E8597C7000023A307FE06E4EFE08F9B01
:10410000FD576318F50097C7000083A727FD91C3EB
:104110001CC0A260026441018280411122E02E8411
:104120008395250106E4EF00C01C634905005C6C23
:10413000AA975CECA260026441018280835704016B
:104140007D777D17F98F2318F400EDB783D705012C
:10415000797122F026EC4AE84EE406F493F7071052
:10416000AA842E843289B68999C783952501894608
:104170000146EF00E012835704017D777D17F98F28
:10418000831524012318F4000274A270CE864A8697
:10419000A26942692685E264456181A0411122E05D
:1041A0002E848395250106E4EF00800FFD57035709
:1041B0000401631BF500FD77FD17F98F2318F40048
:1041C000A2600264410182808567D98F2318F400C0
:1041D00048ECFDB7839525011DA8411122E02A84F2
:1041E0002E85B285368697C7000023A907EE06E420
:1041F000EFE0CF93FD576318F50097C7000083A742
:10420000E7ED91C31CC0A2600264410182804111AC
:1042100022E02A842E8597C7000023A107EC06E43C
:10422000EFD0BFF9FD576318F50097C7000083A7CB
:10423000E7EA91C31CC0A26002644101828041117F
:1042400022E02A842E85B28597C7000023A807E8BC
:1042500006E4EFD0BFF8FD576318F50097C70000DC
:1042600083A7C7E791C31CC0A2600264410182809A
:10427000411122E02A842E8597C7000023A007E67B
:1042800006E4EFD09FFAFD576318F50097C70000CA
:1042900083A7C7E491C31CC0A2600264410182806D
:1042A000411122E02A842E85B285368697C7000008
:1042B00023A607E206E4EFD0BFF8FD576318F50028
:1042C00097C7000083A787E191C31CC0A260026466
:1042D0004101828093F5F50F2A966314C5000145CC
:1042E000828083470500E38DB7FE0505FDB7828018
:1042F0008280411122E02A842E85B285368697C7B6
:10430000000023AD07DC06E4EFD0FFF5FD5763188E
:10431000F50097C7000083A767DC91C31CC0A260AB
:06432000026441018280ED
:104328004CC1FFFF68C1FFFF84C1FFFFA0C1FFFFB1
:10433800C2C1FFFFE2C1FFFF04C2FFFF26C2FFFFA9
:104348003CC5FFFF56C5FFFF7AC5FFFF9EC5FFFFAF
:10435800B8C5FFFFD2C5FFFFF6C5FFFF1AC6FFFFAE
:104368003EC6FFFF62C6FFFFF8C7FFFF0CC8FFFF8E
:1043780024C8FFFF3CC8FFFF54C8FFFFDEC8FFFF8B
:10438800F0C8FFFF06C9FFFF1CC9FFFF32C9FFFFC6
:104398005CCAFFFF6CCAFFFF82CAFFFF98CAFFFF13
:1043A800AECAFFFFC4CAFFFFDACAFFFF54CBFFFF44
:1043B80066CBFFFF82CBFFFF9ACBFFFFB6CBFFFF99
:1043C800CECBFFFFEACBFFFF464C4153485849503C
:1043D8000000000000000000464C41534800000067
:1043E800494C4D0000000000444452000000000009
:1043F8004D4341555345203A203078256C780D0AB5
:1044080000000000000000004D4443415553453A68
:10441800203078256C780D0A0000000000000000AC
:104428004D4550432020203A203078256C780D0ADD
:1044380000000000000000004D5456414C20203A76
:10444800203078256C780D0A00000000000000007C
:1044580031393A31383A31390000000000000000A3
:1044680041707220313220323032320000000000B8
:104478004E75636C65692053444B204275696C64C2
:104488002054696D653A2025732C2025730D0A0088
:10449800446F776E6C6F6164204D6F64653A2025B8
:1044A800730D0A00000000004350552046726571E4
:1044B80075656E637920256C7520487A0D0A0000B1
:1044C800D043006100000000E043006100000000EC
:1044D800E843006100000000F043006100000000B4
:1044E8004D454D315F44415441203D202533640002
:1044F8000D000000000000004D454D325F4441545E
:1045080041203D2025336400636865636B20646146
:1045180074612069732072696768740D0000000077
:10452800636865636B2064617461206973206661E8
:10453800696C20706C6561736520636865636B20C6
:10454800796F7520646D612073657420646174618E
:104558000D00000000000000444D412074782063E5
:104568006F6D706C6574650D000000000000000040
:1045780077616974207265616420434D442E2E2E44
:104588000D0000000000000072656164206861731E
:10459800206265656E20636F6D706C657465640D6F
:1045A8000000000000000000444D4120494943201C
:1045B800727820636F6D706C6574650D0000000083
:1045C8002A204578616D706C653A20444D415F65DD
:1045D8003270726F6D20777269746520616E642025
:1045E8007265616420746573742E00000000000019
:1045F80000000000000000000000000000000000B3
:1046080000000000000000000000000000000000A2
:104618000000000000000000000000000000000092
:104628000000000000000000000000000000000082
:104638000000000000000000000000000000000072
:104648000000000000000000000000000000000062
:104658000000000000000000000000000000000052
:104668000000000000000000000000000000000042
:104678000000000000000000000000000000000032
:104688000000000000000000000000000000000022
:104698000000000000000000232D302B2000000047
:1046A800686C4C00000000006566674546470000DE
:1046B8003031323334353637383941424344454650
:1046C8000000000000000000303132333435363746
:1046D800383961626364656600000000DEF7FFFF39
:1046E800F4F7FFFFB4F7FFFFB4F7FFFFB4F7FFFFDE
:1046F800B4F7FFFFF4F7FFFFB4F7FFFFB4F7FFFFCE
:10470800B4F7FFFFB4F7FFFF5EF9FFFF34F8FFFFD0
:1047180028F9FFFFB4F7FFFFB4F7FFFF92F9FFFF97
:10472800B4F7FFFF34F8FFFFB4F7FFFFB4F7FFFF5C
:0447380030F9FFFF56
:10473C000000000000000000304600610000000096
:10474C006846006100000000F845006100000000B0
:10475C00000000000000000000000000000000004D
:10476C00000000000000000000000000000000003D
:10477C00000000000000000000000000000000002D
:10478C00000000000000000000000000000000001D
:10479C00000000000000000000000000000000000D
:1047AC0000000000000000000000000000000000FD
:1047BC0000000000000000000000000000000000ED
:1047CC0000000000000000000000000000000000DD
:1047DC0000000000000000000000000000000000CD
:1047EC00B80201610000000080F0FA020000000035
:1047FC0000000161000000000000016100000000E9
:04000005610001B0E5
:00000001FF
